{
  "contractName": "AppStore",
  "abi": [
    {
      "inputs": [],
      "payable": false,
      "stateMutability": "nonpayable",
      "type": "constructor"
    },
    {
      "constant": true,
      "inputs": [
        {
          "internalType": "uint256",
          "name": "",
          "type": "uint256"
        }
      ],
      "name": "apps",
      "outputs": [
        {
          "internalType": "uint256",
          "name": "id",
          "type": "uint256"
        },
        {
          "internalType": "string",
          "name": "appName",
          "type": "string"
        },
        {
          "internalType": "string",
          "name": "appDeveloper",
          "type": "string"
        }
      ],
      "payable": false,
      "stateMutability": "view",
      "type": "function"
    },
    {
      "constant": true,
      "inputs": [],
      "name": "appsCount",
      "outputs": [
        {
          "internalType": "uint256",
          "name": "",
          "type": "uint256"
        }
      ],
      "payable": false,
      "stateMutability": "view",
      "type": "function"
    },
    {
      "constant": false,
      "inputs": [
        {
          "internalType": "string",
          "name": "_appName",
          "type": "string"
        },
        {
          "internalType": "string",
          "name": "_developerName",
          "type": "string"
        }
      ],
      "name": "createApp",
      "outputs": [],
      "payable": false,
      "stateMutability": "nonpayable",
      "type": "function"
    }
  ],
  "bytecode": "0x60806040526000805534801561001457600080fd5b5061008f6040518060400160405280600b81526020017f63616e64792063727573680000000000000000000000000000000000000000008152506040518060400160405280600681526020017f77617365656d000000000000000000000000000000000000000000000000000081525061009460201b60201c565b6101c6565b6000808154809291906001019190505550604051806060016040528060005481526020018381526020018281525060016000805481526020019081526020016000206000820151816000015560208201518160010190805190602001906100fc929190610121565b506040820151816002019080519060200190610119929190610121565b509050505050565b828054600181600116156101000203166002900490600052602060002090601f016020900481019282601f1061016257805160ff1916838001178555610190565b82800160010185558215610190579182015b8281111561018f578251825591602001919060010190610174565b5b50905061019d91906101a1565b5090565b6101c391905b808211156101bf5760008160009055506001016101a7565b5090565b90565b610597806101d56000396000f3fe608060405234801561001057600080fd5b50600436106100415760003560e01c80632b5f38791461004657806361acc37e14610064578063b3a766831461017e575b600080fd5b61004e6102d0565b6040518082815260200191505060405180910390f35b6100906004803603602081101561007a57600080fd5b81019080803590602001909291905050506102d6565b604051808481526020018060200180602001838103835285818151815260200191508051906020019080838360005b838110156100da5780820151818401526020810190506100bf565b50505050905090810190601f1680156101075780820380516001836020036101000a031916815260200191505b50838103825284818151815260200191508051906020019080838360005b83811015610140578082015181840152602081019050610125565b50505050905090810190601f16801561016d5780820380516001836020036101000a031916815260200191505b509550505050505060405180910390f35b6102ce6004803603604081101561019457600080fd5b81019080803590602001906401000000008111156101b157600080fd5b8201836020820111156101c357600080fd5b803590602001918460018302840111640100000000831117156101e557600080fd5b91908080601f016020809104026020016040519081016040528093929190818152602001838380828437600081840152601f19601f8201169050808301925050505050505091929192908035906020019064010000000081111561024857600080fd5b82018360208201111561025a57600080fd5b8035906020019184600183028401116401000000008311171561027c57600080fd5b91908080601f016020809104026020016040519081016040528093929190818152602001838380828437600081840152601f19601f820116905080830192505050505050509192919290505050610430565b005b60005481565b6001602052806000526040600020600091509050806000015490806001018054600181600116156101000203166002900480601f0160208091040260200160405190810160405280929190818152602001828054600181600116156101000203166002900480156103885780601f1061035d57610100808354040283529160200191610388565b820191906000526020600020905b81548152906001019060200180831161036b57829003601f168201915b505050505090806002018054600181600116156101000203166002900480601f0160208091040260200160405190810160405280929190818152602001828054600181600116156101000203166002900480156104265780601f106103fb57610100808354040283529160200191610426565b820191906000526020600020905b81548152906001019060200180831161040957829003601f168201915b5050505050905083565b6000808154809291906001019190505550604051806060016040528060005481526020018381526020018281525060016000805481526020019081526020016000206000820151816000015560208201518160010190805190602001906104989291906104bd565b5060408201518160020190805190602001906104b59291906104bd565b509050505050565b828054600181600116156101000203166002900490600052602060002090601f016020900481019282601f106104fe57805160ff191683800117855561052c565b8280016001018555821561052c579182015b8281111561052b578251825591602001919060010190610510565b5b509050610539919061053d565b5090565b61055f91905b8082111561055b576000816000905550600101610543565b5090565b9056fea265627a7a72315820c349c5982bc535b8d8ca3409580e1f38cc1f76b73e914dffa762f94a19ae986b64736f6c63430005100032",
  "source": "// SPDX-License-Identifier: MIT\r\npragma solidity >=0.4.22 <0.9.0;\r\n\r\ncontract AppStore {\r\n  uint public appsCount = 0; // state variable\r\n  \r\n  struct AppData {\r\n    uint id;\r\n    string appName;\r\n    string appDeveloper;\r\n  }\r\n  \r\n  constructor() public {\r\n    createApp('candy crush', 'waseem');\r\n  }\r\n  \r\n  mapping(uint => AppData) public apps;\r\n  \r\n  function createApp(string memory _appName, string memory _developerName) public {\r\n    appsCount++;\r\n    apps[appsCount] = AppData(appsCount, _appName, _developerName);\r\n  }\r\n}",
  "sourcePath": "E:\\8semester2022\\parallelProject\\DecentralizedAppStore\\files\\contracts\\contracts\\AppStore.sol",
  "compiler": {
    "name": "solc",
    "version": "0.5.16+commit.9c3226ce.Emscripten.clang"
  },
  "schemaVersion": "3.4.7",
  "updatedAt": "2022-06-20T15:12:58.537Z",
  "networkType": "ethereum",
  "devdoc": {
    "methods": {}
  },
  "userdoc": {
    "methods": {}
  }
}