{
  "contractName": "AppStore",
  "abi": [
    {
      "inputs": [],
      "payable": false,
      "stateMutability": "nonpayable",
      "type": "constructor"
    },
    {
      "constant": true,
      "inputs": [
        {
          "internalType": "uint256",
          "name": "",
          "type": "uint256"
        }
      ],
      "name": "apps",
      "outputs": [
        {
          "internalType": "uint256",
          "name": "id",
          "type": "uint256"
        },
        {
          "internalType": "string",
          "name": "appName",
          "type": "string"
        },
        {
          "internalType": "string",
          "name": "category",
          "type": "string"
        },
        {
          "internalType": "string",
          "name": "appDescription",
          "type": "string"
        },
        {
          "internalType": "string",
          "name": "appDeveloper",
          "type": "string"
        },
        {
          "internalType": "address",
          "name": "developerAddress",
          "type": "address"
        },
        {
          "internalType": "string",
          "name": "appLogoHash",
          "type": "string"
        },
        {
          "internalType": "uint256",
          "name": "price",
          "type": "uint256"
        }
      ],
      "payable": false,
      "stateMutability": "view",
      "type": "function"
    },
    {
      "constant": true,
      "inputs": [],
      "name": "appsCount",
      "outputs": [
        {
          "internalType": "uint256",
          "name": "",
          "type": "uint256"
        }
      ],
      "payable": false,
      "stateMutability": "view",
      "type": "function"
    },
    {
      "constant": true,
      "inputs": [
        {
          "internalType": "address",
          "name": "",
          "type": "address"
        }
      ],
      "name": "userDictionary",
      "outputs": [
        {
          "internalType": "bool",
          "name": "isInit",
          "type": "bool"
        },
        {
          "internalType": "string",
          "name": "userName",
          "type": "string"
        },
        {
          "internalType": "string",
          "name": "downloadCode",
          "type": "string"
        }
      ],
      "payable": false,
      "stateMutability": "view",
      "type": "function"
    },
    {
      "constant": false,
      "inputs": [
        {
          "internalType": "string",
          "name": "_appName",
          "type": "string"
        },
        {
          "internalType": "string",
          "name": "_category",
          "type": "string"
        },
        {
          "internalType": "string",
          "name": "_appDescription",
          "type": "string"
        },
        {
          "internalType": "uint256",
          "name": "price",
          "type": "uint256"
        },
        {
          "internalType": "string",
          "name": "_appLogoHash",
          "type": "string"
        }
      ],
      "name": "createApp",
      "outputs": [],
      "payable": false,
      "stateMutability": "nonpayable",
      "type": "function"
    },
    {
      "constant": true,
      "inputs": [],
      "name": "isNewUser",
      "outputs": [
        {
          "internalType": "bool",
          "name": "",
          "type": "bool"
        }
      ],
      "payable": false,
      "stateMutability": "view",
      "type": "function"
    },
    {
      "constant": false,
      "inputs": [
        {
          "internalType": "string",
          "name": "_userName",
          "type": "string"
        },
        {
          "internalType": "string",
          "name": "initDownloadCode",
          "type": "string"
        }
      ],
      "name": "registerUser",
      "outputs": [],
      "payable": false,
      "stateMutability": "nonpayable",
      "type": "function"
    },
    {
      "constant": false,
      "inputs": [
        {
          "internalType": "uint256",
          "name": "_appid",
          "type": "uint256"
        },
        {
          "internalType": "uint256",
          "name": "_rating",
          "type": "uint256"
        },
        {
          "internalType": "string",
          "name": "_review",
          "type": "string"
        },
        {
          "internalType": "bool",
          "name": "isAnonymous",
          "type": "bool"
        }
      ],
      "name": "addReview",
      "outputs": [],
      "payable": false,
      "stateMutability": "nonpayable",
      "type": "function"
    },
    {
      "constant": true,
      "inputs": [],
      "name": "getUserName",
      "outputs": [
        {
          "internalType": "string",
          "name": "",
          "type": "string"
        }
      ],
      "payable": false,
      "stateMutability": "view",
      "type": "function"
    },
    {
      "constant": true,
      "inputs": [],
      "name": "getUploadedApps",
      "outputs": [
        {
          "internalType": "uint256[]",
          "name": "",
          "type": "uint256[]"
        }
      ],
      "payable": false,
      "stateMutability": "view",
      "type": "function"
    },
    {
      "constant": true,
      "inputs": [],
      "name": "getDownloadCode",
      "outputs": [
        {
          "internalType": "string",
          "name": "",
          "type": "string"
        }
      ],
      "payable": false,
      "stateMutability": "view",
      "type": "function"
    },
    {
      "constant": true,
      "inputs": [
        {
          "internalType": "uint256",
          "name": "appid",
          "type": "uint256"
        }
      ],
      "name": "getReviews",
      "outputs": [
        {
          "components": [
            {
              "internalType": "string",
              "name": "name",
              "type": "string"
            },
            {
              "internalType": "address",
              "name": "evaluaterAddress",
              "type": "address"
            },
            {
              "internalType": "uint256",
              "name": "rating",
              "type": "uint256"
            },
            {
              "internalType": "string",
              "name": "review",
              "type": "string"
            }
          ],
          "internalType": "struct AppStore.ReviewAndRating[]",
          "name": "",
          "type": "tuple[]"
        }
      ],
      "payable": false,
      "stateMutability": "view",
      "type": "function"
    },
    {
      "constant": false,
      "inputs": [
        {
          "internalType": "string",
          "name": "newCode",
          "type": "string"
        }
      ],
      "name": "updateDownloadCode",
      "outputs": [],
      "payable": false,
      "stateMutability": "nonpayable",
      "type": "function"
    }
  ],
  "bytecode": "0x60806040526000805534801561001457600080fd5b50612310806100246000396000f3fe608060405234801561001057600080fd5b50600436106100b45760003560e01c80635a850563116100715780635a8505631461017b57806361acc37e14610199578063766289ed146101d057806385d4e88d146101ec5780639d4a22551461020a578063a4965d361461023a576100b4565b806312958f1c146100b957806318356f90146100d75780631d2e4afd146101095780632b5f3879146101255780632e5c306b146101435780632e8236b91461015f575b600080fd5b6100c1610258565b6040516100ce9190611f4c565b60405180910390f35b6100f160048036036100ec91908101906117ed565b61033a565b60405161010093929190611f07565b60405180910390f35b610123600480360361011e9190810190611857565b6104a1565b005b61012d61068c565b60405161013a919061200e565b60405180910390f35b61015d600480360361015891908101906119c3565b610692565b005b61017960048036036101749190810190611816565b610a60565b005b610183610aba565b6040516101909190611eca565b60405180910390f35b6101b360048036036101ae919081019061199a565b610b52565b6040516101c7989796959493929190612029565b60405180910390f35b6101ea60048036036101e591908101906118c3565b610eb2565b005b6101f461121d565b6040516102019190611f4c565b60405180910390f35b610224600480360361021f919081019061199a565b6112ff565b6040516102319190611ea8565b60405180910390f35b610242611518565b60405161024f9190611eec565b60405180910390f35b6060600260003373ffffffffffffffffffffffffffffffffffffffff1673ffffffffffffffffffffffffffffffffffffffff1681526020019081526020016000206001018054600181600116156101000203166002900480601f0160208091040260200160405190810160405280929190818152602001828054600181600116156101000203166002900480156103305780601f1061030557610100808354040283529160200191610330565b820191906000526020600020905b81548152906001019060200180831161031357829003601f168201915b5050505050905090565b60026020528060005260406000206000915090508060000160009054906101000a900460ff1690806001018054600181600116156101000203166002900480601f0160208091040260200160405190810160405280929190818152602001828054600181600116156101000203166002900480156103f95780601f106103ce576101008083540402835291602001916103f9565b820191906000526020600020905b8154815290600101906020018083116103dc57829003601f168201915b505050505090806002018054600181600116156101000203166002900480601f0160208091040260200160405190810160405280929190818152602001828054600181600116156101000203166002900480156104975780601f1061046c57610100808354040283529160200191610497565b820191906000526020600020905b81548152906001019060200180831161047a57829003601f168201915b5050505050905083565b6000825114156104e6576040517f08c379a00000000000000000000000000000000000000000000000000000000081526004016104dd90611f6e565b60405180910390fd5b6000600260003373ffffffffffffffffffffffffffffffffffffffff1673ffffffffffffffffffffffffffffffffffffffff1681526020019081526020016000206001018054600181600116156101000203166002900490501461057f576040517f08c379a000000000000000000000000000000000000000000000000000000000815260040161057690611fce565b60405180910390fd5b81600260003373ffffffffffffffffffffffffffffffffffffffff1673ffffffffffffffffffffffffffffffffffffffff16815260200190815260200160002060010190805190602001906105d5929190611570565b506001600260003373ffffffffffffffffffffffffffffffffffffffff1673ffffffffffffffffffffffffffffffffffffffff16815260200190815260200160002060000160006101000a81548160ff02191690831515021790555080600260003373ffffffffffffffffffffffffffffffffffffffff1673ffffffffffffffffffffffffffffffffffffffff1681526020019081526020016000206002019080519060200190610687929190611570565b505050565b60005481565b6001600085815260200190815260200160002060050160009054906101000a900473ffffffffffffffffffffffffffffffffffffffff1673ffffffffffffffffffffffffffffffffffffffff163373ffffffffffffffffffffffffffffffffffffffff161415610737576040517f08c379a000000000000000000000000000000000000000000000000000000000815260040161072e90611fee565b60405180910390fd5b60008090505b600160008681526020019081526020016000206008018054905081101561082c573373ffffffffffffffffffffffffffffffffffffffff1660016000878152602001908152602001600020600801828154811061079657fe5b906000526020600020906004020160010160009054906101000a900473ffffffffffffffffffffffffffffffffffffffff1673ffffffffffffffffffffffffffffffffffffffff16141561081f576040517f08c379a000000000000000000000000000000000000000000000000000000000815260040161081690611f8e565b60405180910390fd5b808060010191505061073d565b506108356115f0565b60405180608001604052808361092557600260003373ffffffffffffffffffffffffffffffffffffffff1673ffffffffffffffffffffffffffffffffffffffff1681526020019081526020016000206001018054600181600116156101000203166002900480601f01602080910402602001604051908101604052809291908181526020018280546001816001161561010002031660029004801561091b5780601f106108f05761010080835404028352916020019161091b565b820191906000526020600020905b8154815290600101906020018083116108fe57829003601f168201915b505050505061095c565b6040518060400160405280600981526020017f416e6f6e796d6f757300000000000000000000000000000000000000000000008152505b81526020013373ffffffffffffffffffffffffffffffffffffffff16815260200185815260200184815250905060016000868152602001908152602001600020600801819080600181540180825580915050906001820390600052602060002090600402016000909192909190915060008201518160000190805190602001906109e792919061162e565b5060208201518160010160006101000a81548173ffffffffffffffffffffffffffffffffffffffff021916908373ffffffffffffffffffffffffffffffffffffffff160217905550604082015181600201556060820151816003019080519060200190610a5592919061162e565b505050505050505050565b80600260003373ffffffffffffffffffffffffffffffffffffffff1673ffffffffffffffffffffffffffffffffffffffff1681526020019081526020016000206002019080519060200190610ab6929190611570565b5050565b6060600260003373ffffffffffffffffffffffffffffffffffffffff1673ffffffffffffffffffffffffffffffffffffffff168152602001908152602001600020600301805480602002602001604051908101604052809291908181526020018280548015610b4857602002820191906000526020600020905b815481526020019060010190808311610b34575b5050505050905090565b6001602052806000526040600020600091509050806000015490806001018054600181600116156101000203166002900480601f016020809104026020016040519081016040528092919081815260200182805460018160011615610100020316600290048015610c045780601f10610bd957610100808354040283529160200191610c04565b820191906000526020600020905b815481529060010190602001808311610be757829003601f168201915b505050505090806002018054600181600116156101000203166002900480601f016020809104026020016040519081016040528092919081815260200182805460018160011615610100020316600290048015610ca25780601f10610c7757610100808354040283529160200191610ca2565b820191906000526020600020905b815481529060010190602001808311610c8557829003601f168201915b505050505090806003018054600181600116156101000203166002900480601f016020809104026020016040519081016040528092919081815260200182805460018160011615610100020316600290048015610d405780601f10610d1557610100808354040283529160200191610d40565b820191906000526020600020905b815481529060010190602001808311610d2357829003601f168201915b505050505090806004018054600181600116156101000203166002900480601f016020809104026020016040519081016040528092919081815260200182805460018160011615610100020316600290048015610dde5780601f10610db357610100808354040283529160200191610dde565b820191906000526020600020905b815481529060010190602001808311610dc157829003601f168201915b5050505050908060050160009054906101000a900473ffffffffffffffffffffffffffffffffffffffff1690806006018054600181600116156101000203166002900480601f016020809104026020016040519081016040528092919081815260200182805460018160011615610100020316600290048015610ea25780601f10610e7757610100808354040283529160200191610ea2565b820191906000526020600020905b815481529060010190602001808311610e8557829003601f168201915b5050505050908060070154905088565b60008090505b600260003373ffffffffffffffffffffffffffffffffffffffff1673ffffffffffffffffffffffffffffffffffffffff16815260200190815260200160002060030180549050811015610fdd57858051906020012060016000600260003373ffffffffffffffffffffffffffffffffffffffff1673ffffffffffffffffffffffffffffffffffffffff1681526020019081526020016000206003018481548110610f5e57fe5b90600052602060002001548152602001908152602001600020600101604051610f879190611e91565b60405180910390201415610fd0576040517f08c379a0000000000000000000000000000000000000000000000000000000008152600401610fc790611fae565b60405180910390fd5b8080600101915050610eb8565b5060008081548092919060010191905055506000546001600080548152602001908152602001600020600001819055508460016000805481526020019081526020016000206001019080519060200190611038929190611570565b508360016000805481526020019081526020016000206002019080519060200190611064929190611570565b508260016000805481526020019081526020016000206003019080519060200190611090929190611570565b5080600160008054815260200190815260200160002060060190805190602001906110bc929190611570565b50600260003373ffffffffffffffffffffffffffffffffffffffff1673ffffffffffffffffffffffffffffffffffffffff168152602001908152602001600020600101600160008054815260200190815260200160002060040190805460018160011615610100020316600290046111359291906116ae565b508160016000805481526020019081526020016000206007018190555033600160008054815260200190815260200160002060050160006101000a81548173ffffffffffffffffffffffffffffffffffffffff021916908373ffffffffffffffffffffffffffffffffffffffff160217905550600260003373ffffffffffffffffffffffffffffffffffffffff1673ffffffffffffffffffffffffffffffffffffffff16815260200190815260200160002060030160005490806001815401808255809150509060018203906000526020600020016000909192909190915055505050505050565b6060600260003373ffffffffffffffffffffffffffffffffffffffff1673ffffffffffffffffffffffffffffffffffffffff1681526020019081526020016000206002018054600181600116156101000203166002900480601f0160208091040260200160405190810160405280929190818152602001828054600181600116156101000203166002900480156112f55780601f106112ca576101008083540402835291602001916112f5565b820191906000526020600020905b8154815290600101906020018083116112d857829003601f168201915b5050505050905090565b606060016000838152602001908152602001600020600801805480602002602001604051908101604052809291908181526020016000905b8282101561150d5783829060005260206000209060040201604051806080016040529081600082018054600181600116156101000203166002900480601f0160208091040260200160405190810160405280929190818152602001828054600181600116156101000203166002900480156113f35780601f106113c8576101008083540402835291602001916113f3565b820191906000526020600020905b8154815290600101906020018083116113d657829003601f168201915b505050505081526020016001820160009054906101000a900473ffffffffffffffffffffffffffffffffffffffff1673ffffffffffffffffffffffffffffffffffffffff1673ffffffffffffffffffffffffffffffffffffffff16815260200160028201548152602001600382018054600181600116156101000203166002900480601f0160208091040260200160405190810160405280929190818152602001828054600181600116156101000203166002900480156114f55780601f106114ca576101008083540402835291602001916114f5565b820191906000526020600020905b8154815290600101906020018083116114d857829003601f168201915b50505050508152505081526020019060010190611337565b505050509050919050565b6000600260003373ffffffffffffffffffffffffffffffffffffffff1673ffffffffffffffffffffffffffffffffffffffff16815260200190815260200160002060000160009054906101000a900460ff1615905090565b828054600181600116156101000203166002900490600052602060002090601f016020900481019282601f106115b157805160ff19168380011785556115df565b828001600101855582156115df579182015b828111156115de5782518255916020019190600101906115c3565b5b5090506115ec9190611735565b5090565b604051806080016040528060608152602001600073ffffffffffffffffffffffffffffffffffffffff16815260200160008152602001606081525090565b828054600181600116156101000203166002900490600052602060002090601f016020900481019282601f1061166f57805160ff191683800117855561169d565b8280016001018555821561169d579182015b8281111561169c578251825591602001919060010190611681565b5b5090506116aa9190611735565b5090565b828054600181600116156101000203166002900490600052602060002090601f016020900481019282601f106116e75780548555611724565b8280016001018555821561172457600052602060002091601f016020900482015b82811115611723578254825591600101919060010190611708565b5b5090506117319190611735565b5090565b61175791905b8082111561175357600081600090555060010161173b565b5090565b90565b60008135905061176981612288565b92915050565b60008135905061177e8161229f565b92915050565b600082601f83011261179557600080fd5b81356117a86117a3826120f7565b6120ca565b915080825260208301602083018583830111156117c457600080fd5b6117cf838284612235565b50505092915050565b6000813590506117e7816122b6565b92915050565b6000602082840312156117ff57600080fd5b600061180d8482850161175a565b91505092915050565b60006020828403121561182857600080fd5b600082013567ffffffffffffffff81111561184257600080fd5b61184e84828501611784565b91505092915050565b6000806040838503121561186a57600080fd5b600083013567ffffffffffffffff81111561188457600080fd5b61189085828601611784565b925050602083013567ffffffffffffffff8111156118ad57600080fd5b6118b985828601611784565b9150509250929050565b600080600080600060a086880312156118db57600080fd5b600086013567ffffffffffffffff8111156118f557600080fd5b61190188828901611784565b955050602086013567ffffffffffffffff81111561191e57600080fd5b61192a88828901611784565b945050604086013567ffffffffffffffff81111561194757600080fd5b61195388828901611784565b9350506060611964888289016117d8565b925050608086013567ffffffffffffffff81111561198157600080fd5b61198d88828901611784565b9150509295509295909350565b6000602082840312156119ac57600080fd5b60006119ba848285016117d8565b91505092915050565b600080600080608085870312156119d957600080fd5b60006119e7878288016117d8565b94505060206119f8878288016117d8565b935050604085013567ffffffffffffffff811115611a1557600080fd5b611a2187828801611784565b9250506060611a328782880161176f565b91505092959194509250565b6000611a4a8383611e09565b905092915050565b6000611a5e8383611e73565b60208301905092915050565b611a73816121ed565b82525050565b611a82816121ed565b82525050565b6000611a9382612158565b611a9d818561219e565b935083602082028501611aaf85612123565b8060005b85811015611aeb5784840389528151611acc8582611a3e565b9450611ad783612184565b925060208a01995050600181019050611ab3565b50829750879550505050505092915050565b6000611b0882612163565b611b1281856121af565b9350611b1d83612133565b8060005b83811015611b4e578151611b358882611a52565b9750611b4083612191565b925050600181019050611b21565b5085935050505092915050565b611b64816121ff565b82525050565b600081546001811660008114611b875760018114611bac57611bf0565b607f6002830416611b9881876121c0565b955060ff1983168652808601935050611bf0565b60028204611bba81876121c0565b9550611bc585612143565b60005b82811015611be757815481890152600182019150602081019050611bc8565b82880195505050505b505092915050565b6000611c0382612179565b611c0d81856121dc565b9350611c1d818560208601612244565b611c2681612277565b840191505092915050565b6000611c3c8261216e565b611c4681856121cb565b9350611c56818560208601612244565b611c5f81612277565b840191505092915050565b6000611c758261216e565b611c7f81856121dc565b9350611c8f818560208601612244565b611c9881612277565b840191505092915050565b6000611cb06018836121dc565b91507f757365726e616d652063616e6e6f7420626520656d70747900000000000000006000830152602082019050919050565b6000611cf06019836121dc565b91507f796f752063616e20726576696577206f6e6c79206f6e636521000000000000006000830152602082019050919050565b6000611d30602c836121dc565b91507f796f7520616c7265616479207075626c697368656420616e206170702077697460008301527f682074686973206e616d652100000000000000000000000000000000000000006020830152604082019050919050565b6000611d966017836121dc565b91507f757365726e616d6520697320616c7265616479207365740000000000000000006000830152602082019050919050565b6000611dd6601b836121dc565b91507f796f752063616e6e6f742072657669657720796f7572206170702100000000006000830152602082019050919050565b60006080830160008301518482036000860152611e268282611c31565b9150506020830151611e3b6020860182611a6a565b506040830151611e4e6040860182611e73565b5060608301518482036060860152611e668282611c31565b9150508091505092915050565b611e7c8161222b565b82525050565b611e8b8161222b565b82525050565b6000611e9d8284611b6a565b915081905092915050565b60006020820190508181036000830152611ec28184611a88565b905092915050565b60006020820190508181036000830152611ee48184611afd565b905092915050565b6000602082019050611f016000830184611b5b565b92915050565b6000606082019050611f1c6000830186611b5b565b8181036020830152611f2e8185611c6a565b90508181036040830152611f428184611c6a565b9050949350505050565b60006020820190508181036000830152611f668184611bf8565b905092915050565b60006020820190508181036000830152611f8781611ca3565b9050919050565b60006020820190508181036000830152611fa781611ce3565b9050919050565b60006020820190508181036000830152611fc781611d23565b9050919050565b60006020820190508181036000830152611fe781611d89565b9050919050565b6000602082019050818103600083015261200781611dc9565b9050919050565b60006020820190506120236000830184611e82565b92915050565b60006101008201905061203f600083018b611e82565b8181036020830152612051818a611c6a565b905081810360408301526120658189611c6a565b905081810360608301526120798188611c6a565b9050818103608083015261208d8187611c6a565b905061209c60a0830186611a79565b81810360c08301526120ae8185611c6a565b90506120bd60e0830184611e82565b9998505050505050505050565b6000604051905081810181811067ffffffffffffffff821117156120ed57600080fd5b8060405250919050565b600067ffffffffffffffff82111561210e57600080fd5b601f19601f8301169050602081019050919050565b6000819050602082019050919050565b6000819050602082019050919050565b60008190508160005260206000209050919050565b600081519050919050565b600081519050919050565b600081519050919050565b600081519050919050565b6000602082019050919050565b6000602082019050919050565b600082825260208201905092915050565b600082825260208201905092915050565b600081905092915050565b600082825260208201905092915050565b600082825260208201905092915050565b60006121f88261220b565b9050919050565b60008115159050919050565b600073ffffffffffffffffffffffffffffffffffffffff82169050919050565b6000819050919050565b82818337600083830152505050565b60005b83811015612262578082015181840152602081019050612247565b83811115612271576000848401525b50505050565b6000601f19601f8301169050919050565b612291816121ed565b811461229c57600080fd5b50565b6122a8816121ff565b81146122b357600080fd5b50565b6122bf8161222b565b81146122ca57600080fd5b5056fea365627a7a7231582015da7be9749036c7c190a51a863ea1a8b3256853f5f75b18308bca4bc79b4b566c6578706572696d656e74616cf564736f6c63430005100040",
  "source": "// SPDX-License-Identifier: MIT\r\npragma solidity >=0.4.22 <0.9.0;\r\npragma experimental ABIEncoderV2;\r\n\r\ncontract AppStore {\r\n  uint public appsCount = 0; // state variable\r\n  //enum appCategory{ Education, Entertainment, News, Sports, Music, Shopping, Business}\r\n  struct ReviewAndRating{\r\n    string name;\r\n    address evaluaterAddress;\r\n    uint rating;\r\n    string review;\r\n  }\r\n  struct AppData {\r\n    uint id;\r\n    string appName;\r\n    string category;\r\n    string appDescription;\r\n    string appDeveloper;\r\n    address developerAddress;\r\n    string appLogoHash;\r\n    uint price;\r\n    ReviewAndRating [] reviews;\r\n  }\r\n\r\n  struct UserData {\r\n    bool isInit;\r\n    string userName;\r\n    string downloadCode;\r\n    uint[] uploadedApps;\r\n  }\r\n  \r\n  constructor() public {\r\n  }\r\n  \r\n  mapping(uint => AppData) public apps;\r\n  mapping(address  => UserData) public userDictionary;\r\n\r\n  function createApp(string memory _appName,string memory _category,string memory _appDescription,uint price,string memory _appLogoHash) public {\r\n  //  apps[appsCount]= AppData(appsCount, _appName, _category, _appDescription,userDictionary[msg.sender].userName ,price);\r\n      for (uint i = 0; i < userDictionary[msg.sender].uploadedApps.length; i++) {\r\n        require(keccak256(bytes(apps[userDictionary[msg.sender].uploadedApps[i]].appName))!=keccak256(bytes(_appName)),'you already published an app with this name!');\r\n    }\r\n    appsCount++;\r\n    apps[appsCount].id=appsCount;\r\n    apps[appsCount].appName=_appName;\r\n    apps[appsCount].category=_category;\r\n    apps[appsCount].appDescription=_appDescription;\r\n    apps[appsCount].appLogoHash=_appLogoHash;\r\n    apps[appsCount].appDeveloper=userDictionary[msg.sender].userName;\r\n    apps[appsCount].price=price;\r\n    apps[appsCount].developerAddress=msg.sender;\r\n    userDictionary[msg.sender].uploadedApps.push(appsCount);\r\n  }\r\n\r\n  function isNewUser()public view returns(bool){\r\n    return !userDictionary[msg.sender].isInit;\r\n  } \r\n\r\n  function registerUser(string memory _userName, string memory initDownloadCode)public{\r\n    require(bytes(_userName).length!=0,\"username cannot be empty\");\r\n    require(bytes(userDictionary[msg.sender].userName).length==0,\"username is already set\");\r\n    userDictionary[msg.sender].userName=_userName;\r\n    userDictionary[msg.sender].isInit=true;\r\n    userDictionary[msg.sender].downloadCode=initDownloadCode;\r\n  }\r\n\r\n\r\n  function addReview(uint _appid,uint _rating,string memory _review,bool isAnonymous) public {\r\n    require(msg.sender!=apps[_appid].developerAddress,'you cannot review your app!');\r\n    for (uint i = 0; i < apps[_appid].reviews.length; i++) {\r\n        require(apps[_appid].reviews[i].evaluaterAddress!=msg.sender,'you can review only once!');\r\n    }\r\n    ReviewAndRating memory NewReview=ReviewAndRating(isAnonymous?'Anonymous':userDictionary[msg.sender].userName, msg.sender, _rating, _review);\r\n    apps[_appid].reviews.push(NewReview);\r\n  }\r\n\r\n  function getUserName()public view returns(string memory){\r\n    return userDictionary[msg.sender].userName;\r\n  }\r\n\r\n  function getUploadedApps() public view returns(uint[] memory){\r\n    return userDictionary[msg.sender].uploadedApps;\r\n  }\r\n\r\n  function getDownloadCode() public view returns(string memory){\r\n    return userDictionary[msg.sender].downloadCode;\r\n  }\r\n    function getReviews(uint appid) public view returns(ReviewAndRating [] memory ){\r\n    return apps[appid].reviews;\r\n  }\r\n\r\n  function updateDownloadCode(string memory newCode) public {\r\n    userDictionary[msg.sender].downloadCode = newCode;\r\n  }\r\n}",
  "sourcePath": "E:\\8semester2022\\parallelProject\\DecentralizedAppStore\\AppStore\\src\\contracts\\contracts\\AppStore.sol",
  "compiler": {
    "name": "solc",
    "version": "0.5.16+commit.9c3226ce.Emscripten.clang"
  },
  "schemaVersion": "3.4.7",
  "updatedAt": "2022-11-02T21:08:04.621Z",
  "networkType": "ethereum",
  "devdoc": {
    "methods": {}
  },
  "userdoc": {
    "methods": {}
  }
}