{
  "contractName": "AppStore",
  "abi": [
    {
      "constant": true,
      "inputs": [
        {
          "internalType": "uint256",
          "name": "",
          "type": "uint256"
        }
      ],
      "name": "apps",
      "outputs": [
        {
          "internalType": "uint256",
          "name": "id",
          "type": "uint256"
        },
        {
          "internalType": "string",
          "name": "appName",
          "type": "string"
        },
        {
          "internalType": "string",
          "name": "category",
          "type": "string"
        },
        {
          "internalType": "string",
          "name": "appDescription",
          "type": "string"
        },
        {
          "internalType": "string",
          "name": "appDeveloper",
          "type": "string"
        },
        {
          "internalType": "address",
          "name": "developerAddress",
          "type": "address"
        },
        {
          "internalType": "string",
          "name": "appLogoHash",
          "type": "string"
        },
        {
          "internalType": "string",
          "name": "appFileHash",
          "type": "string"
        },
        {
          "internalType": "string",
          "name": "price",
          "type": "string"
        },
        {
          "internalType": "string",
          "name": "priceCurrency",
          "type": "string"
        }
      ],
      "payable": false,
      "stateMutability": "view",
      "type": "function"
    },
    {
      "constant": true,
      "inputs": [],
      "name": "appsCount",
      "outputs": [
        {
          "internalType": "uint256",
          "name": "",
          "type": "uint256"
        }
      ],
      "payable": false,
      "stateMutability": "view",
      "type": "function"
    },
    {
      "constant": true,
      "inputs": [
        {
          "internalType": "address",
          "name": "",
          "type": "address"
        }
      ],
      "name": "userDictionary",
      "outputs": [
        {
          "internalType": "bool",
          "name": "isInit",
          "type": "bool"
        },
        {
          "internalType": "string",
          "name": "userName",
          "type": "string"
        },
        {
          "internalType": "string",
          "name": "downloadCode",
          "type": "string"
        }
      ],
      "payable": false,
      "stateMutability": "view",
      "type": "function"
    },
    {
      "constant": false,
      "inputs": [
        {
          "internalType": "string",
          "name": "_appName",
          "type": "string"
        },
        {
          "internalType": "string",
          "name": "_category",
          "type": "string"
        },
        {
          "internalType": "string",
          "name": "_appDescription",
          "type": "string"
        },
        {
          "internalType": "string",
          "name": "_price",
          "type": "string"
        },
        {
          "internalType": "string",
          "name": "_priceCurrency",
          "type": "string"
        },
        {
          "internalType": "string",
          "name": "_appLogoHash",
          "type": "string"
        },
        {
          "internalType": "string",
          "name": "_appFileHash",
          "type": "string"
        }
      ],
      "name": "createApp",
      "outputs": [],
      "payable": false,
      "stateMutability": "nonpayable",
      "type": "function"
    },
    {
      "constant": false,
      "inputs": [
        {
          "internalType": "string",
          "name": "_userName",
          "type": "string"
        },
        {
          "internalType": "string",
          "name": "initDownloadCode",
          "type": "string"
        }
      ],
      "name": "registerUser",
      "outputs": [],
      "payable": false,
      "stateMutability": "nonpayable",
      "type": "function"
    },
    {
      "constant": false,
      "inputs": [
        {
          "internalType": "uint256",
          "name": "_appid",
          "type": "uint256"
        },
        {
          "internalType": "uint256",
          "name": "_rating",
          "type": "uint256"
        },
        {
          "internalType": "string",
          "name": "_review",
          "type": "string"
        },
        {
          "internalType": "bool",
          "name": "isAnonymous",
          "type": "bool"
        }
      ],
      "name": "addReview",
      "outputs": [],
      "payable": false,
      "stateMutability": "nonpayable",
      "type": "function"
    },
    {
      "constant": true,
      "inputs": [
        {
          "internalType": "address",
          "name": "_user",
          "type": "address"
        }
      ],
      "name": "isNewUser",
      "outputs": [
        {
          "internalType": "bool",
          "name": "",
          "type": "bool"
        }
      ],
      "payable": false,
      "stateMutability": "view",
      "type": "function"
    },
    {
      "constant": true,
      "inputs": [
        {
          "internalType": "address",
          "name": "_user",
          "type": "address"
        }
      ],
      "name": "getUserName",
      "outputs": [
        {
          "internalType": "string",
          "name": "",
          "type": "string"
        }
      ],
      "payable": false,
      "stateMutability": "view",
      "type": "function"
    },
    {
      "constant": true,
      "inputs": [
        {
          "internalType": "address",
          "name": "_user",
          "type": "address"
        }
      ],
      "name": "getUploadedApps",
      "outputs": [
        {
          "internalType": "uint256[]",
          "name": "",
          "type": "uint256[]"
        }
      ],
      "payable": false,
      "stateMutability": "view",
      "type": "function"
    },
    {
      "constant": true,
      "inputs": [
        {
          "internalType": "address",
          "name": "_user",
          "type": "address"
        }
      ],
      "name": "getDownloadCode",
      "outputs": [
        {
          "internalType": "string",
          "name": "",
          "type": "string"
        }
      ],
      "payable": false,
      "stateMutability": "view",
      "type": "function"
    },
    {
      "constant": true,
      "inputs": [
        {
          "internalType": "uint256",
          "name": "appid",
          "type": "uint256"
        }
      ],
      "name": "getReviews",
      "outputs": [
        {
          "components": [
            {
              "internalType": "string",
              "name": "name",
              "type": "string"
            },
            {
              "internalType": "address",
              "name": "evaluaterAddress",
              "type": "address"
            },
            {
              "internalType": "uint256",
              "name": "rating",
              "type": "uint256"
            },
            {
              "internalType": "string",
              "name": "review",
              "type": "string"
            }
          ],
          "internalType": "struct AppStore.ReviewAndRating[]",
          "name": "",
          "type": "tuple[]"
        }
      ],
      "payable": false,
      "stateMutability": "view",
      "type": "function"
    },
    {
      "constant": false,
      "inputs": [
        {
          "internalType": "string",
          "name": "newCode",
          "type": "string"
        }
      ],
      "name": "updateDownloadCode",
      "outputs": [],
      "payable": false,
      "stateMutability": "nonpayable",
      "type": "function"
    }
  ],
  "bytecode": "0x6080604052600060025534801561001557600080fd5b50612688806100256000396000f3fe608060405234801561001057600080fd5b50600436106100b45760003560e01c806361acc37e1161007157806361acc37e1461018d5780638bf7f936146101c65780639d4a2255146101e2578063b0d7959914610212578063d84f55ee14610242578063f1144c6d14610272576100b4565b806318356f90146100b95780631d2e4afd146100eb5780632b5f3879146101075780632e5c306b146101255780632e8236b9146101415780634facffd91461015d575b600080fd5b6100d360048036036100ce9190810190611a77565b6102a2565b6040516100e29392919061224c565b60405180910390f35b61010560048036036101009190810190611ae1565b610409565b005b61010f6105f3565b60405161011c9190612353565b60405180910390f35b61013f600480360361013a9190810190611cbc565b6105f9565b005b61015b60048036036101569190810190611aa0565b6109c3565b005b61017760048036036101729190810190611a77565b610a1d565b6040516101849190612291565b60405180910390f35b6101a760048036036101a29190810190611c93565b610b01565b6040516101bd9a9998979695949392919061236e565b60405180910390f35b6101e060048036036101db9190810190611b4d565b611035565b005b6101fc60048036036101f79190810190611c93565b61140a565b60405161020991906121ed565b60405180910390f35b61022c60048036036102279190810190611a77565b611622565b604051610239919061220f565b60405180910390f35b61025c60048036036102579190810190611a77565b6116bc565b6040516102699190612291565b60405180910390f35b61028c60048036036102879190810190611a77565b6117a0565b6040516102999190612231565b60405180910390f35b60016020528060005260406000206000915090508060000160009054906101000a900460ff1690806001018054600181600116156101000203166002900480601f0160208091040260200160405190810160405280929190818152602001828054600181600116156101000203166002900480156103615780601f1061033657610100808354040283529160200191610361565b820191906000526020600020905b81548152906001019060200180831161034457829003601f168201915b505050505090806002018054600181600116156101000203166002900480601f0160208091040260200160405190810160405280929190818152602001828054600181600116156101000203166002900480156103ff5780601f106103d4576101008083540402835291602001916103ff565b820191906000526020600020905b8154815290600101906020018083116103e257829003601f168201915b5050505050905083565b60008251141561044e576040517f08c379a0000000000000000000000000000000000000000000000000000000008152600401610445906122d3565b60405180910390fd5b6000600160003373ffffffffffffffffffffffffffffffffffffffff1673ffffffffffffffffffffffffffffffffffffffff168152602001908152602001600020600101805460018160011615610100020316600290049050146104e7576040517f08c379a00000000000000000000000000000000000000000000000000000000081526004016104de906122b3565b60405180910390fd5b81600160003373ffffffffffffffffffffffffffffffffffffffff1673ffffffffffffffffffffffffffffffffffffffff168152602001908152602001600020600101908051906020019061053d9291906117fa565b5060018060003373ffffffffffffffffffffffffffffffffffffffff1673ffffffffffffffffffffffffffffffffffffffff16815260200190815260200160002060000160006101000a81548160ff02191690831515021790555080600160003373ffffffffffffffffffffffffffffffffffffffff1673ffffffffffffffffffffffffffffffffffffffff16815260200190815260200160002060020190805190602001906105ee9291906117fa565b505050565b60025481565b60008085815260200190815260200160002060050160009054906101000a900473ffffffffffffffffffffffffffffffffffffffff1673ffffffffffffffffffffffffffffffffffffffff163373ffffffffffffffffffffffffffffffffffffffff16141561069d576040517f08c379a000000000000000000000000000000000000000000000000000000000815260040161069490612333565b60405180910390fd5b60008090505b600080868152602001908152602001600020600a0180549050811015610790573373ffffffffffffffffffffffffffffffffffffffff16600080878152602001908152602001600020600a0182815481106106fa57fe5b906000526020600020906004020160010160009054906101000a900473ffffffffffffffffffffffffffffffffffffffff1673ffffffffffffffffffffffffffffffffffffffff161415610783576040517f08c379a000000000000000000000000000000000000000000000000000000000815260040161077a906122f3565b60405180910390fd5b80806001019150506106a3565b5061079961187a565b60405180608001604052808361088957600160003373ffffffffffffffffffffffffffffffffffffffff1673ffffffffffffffffffffffffffffffffffffffff1681526020019081526020016000206001018054600181600116156101000203166002900480601f01602080910402602001604051908101604052809291908181526020018280546001816001161561010002031660029004801561087f5780601f106108545761010080835404028352916020019161087f565b820191906000526020600020905b81548152906001019060200180831161086257829003601f168201915b50505050506108c0565b6040518060400160405280600981526020017f416e6f6e796d6f757300000000000000000000000000000000000000000000008152505b81526020013373ffffffffffffffffffffffffffffffffffffffff168152602001858152602001848152509050600080868152602001908152602001600020600a018190806001815401808255809150509060018203906000526020600020906004020160009091929091909150600082015181600001908051906020019061094a9291906118b8565b5060208201518160010160006101000a81548173ffffffffffffffffffffffffffffffffffffffff021916908373ffffffffffffffffffffffffffffffffffffffff1602179055506040820151816002015560608201518160030190805190602001906109b89291906118b8565b505050505050505050565b80600160003373ffffffffffffffffffffffffffffffffffffffff1673ffffffffffffffffffffffffffffffffffffffff1681526020019081526020016000206002019080519060200190610a199291906117fa565b5050565b6060600160008373ffffffffffffffffffffffffffffffffffffffff1673ffffffffffffffffffffffffffffffffffffffff1681526020019081526020016000206002018054600181600116156101000203166002900480601f016020809104026020016040519081016040528092919081815260200182805460018160011615610100020316600290048015610af55780601f10610aca57610100808354040283529160200191610af5565b820191906000526020600020905b815481529060010190602001808311610ad857829003601f168201915b50505050509050919050565b6000602052806000526040600020600091509050806000015490806001018054600181600116156101000203166002900480601f016020809104026020016040519081016040528092919081815260200182805460018160011615610100020316600290048015610bb35780601f10610b8857610100808354040283529160200191610bb3565b820191906000526020600020905b815481529060010190602001808311610b9657829003601f168201915b505050505090806002018054600181600116156101000203166002900480601f016020809104026020016040519081016040528092919081815260200182805460018160011615610100020316600290048015610c515780601f10610c2657610100808354040283529160200191610c51565b820191906000526020600020905b815481529060010190602001808311610c3457829003601f168201915b505050505090806003018054600181600116156101000203166002900480601f016020809104026020016040519081016040528092919081815260200182805460018160011615610100020316600290048015610cef5780601f10610cc457610100808354040283529160200191610cef565b820191906000526020600020905b815481529060010190602001808311610cd257829003601f168201915b505050505090806004018054600181600116156101000203166002900480601f016020809104026020016040519081016040528092919081815260200182805460018160011615610100020316600290048015610d8d5780601f10610d6257610100808354040283529160200191610d8d565b820191906000526020600020905b815481529060010190602001808311610d7057829003601f168201915b5050505050908060050160009054906101000a900473ffffffffffffffffffffffffffffffffffffffff1690806006018054600181600116156101000203166002900480601f016020809104026020016040519081016040528092919081815260200182805460018160011615610100020316600290048015610e515780601f10610e2657610100808354040283529160200191610e51565b820191906000526020600020905b815481529060010190602001808311610e3457829003601f168201915b505050505090806007018054600181600116156101000203166002900480601f016020809104026020016040519081016040528092919081815260200182805460018160011615610100020316600290048015610eef5780601f10610ec457610100808354040283529160200191610eef565b820191906000526020600020905b815481529060010190602001808311610ed257829003601f168201915b505050505090806008018054600181600116156101000203166002900480601f016020809104026020016040519081016040528092919081815260200182805460018160011615610100020316600290048015610f8d5780601f10610f6257610100808354040283529160200191610f8d565b820191906000526020600020905b815481529060010190602001808311610f7057829003601f168201915b505050505090806009018054600181600116156101000203166002900480601f01602080910402602001604051908101604052809291908181526020018280546001816001161561010002031660029004801561102b5780601f106110005761010080835404028352916020019161102b565b820191906000526020600020905b81548152906001019060200180831161100e57829003601f168201915b505050505090508a565b60008090505b600160003373ffffffffffffffffffffffffffffffffffffffff1673ffffffffffffffffffffffffffffffffffffffff1681526020019081526020016000206003018054905081101561115f578780519060200120600080600160003373ffffffffffffffffffffffffffffffffffffffff1673ffffffffffffffffffffffffffffffffffffffff16815260200190815260200160002060030184815481106110e057fe5b9060005260206000200154815260200190815260200160002060010160405161110991906121d6565b60405180910390201415611152576040517f08c379a000000000000000000000000000000000000000000000000000000000815260040161114990612313565b60405180910390fd5b808060010191505061103b565b5060026000815480929190600101919050555060025460008060025481526020019081526020016000206000018190555086600080600254815260200190815260200160002060010190805190602001906111bb9291906117fa565b5085600080600254815260200190815260200160002060020190805190602001906111e79291906117fa565b5084600080600254815260200190815260200160002060030190805190602001906112139291906117fa565b50816000806002548152602001908152602001600020600601908051906020019061123f9291906117fa565b50806000806002548152602001908152602001600020600701908051906020019061126b9291906117fa565b50600160003373ffffffffffffffffffffffffffffffffffffffff1673ffffffffffffffffffffffffffffffffffffffff168152602001908152602001600020600101600080600254815260200190815260200160002060040190805460018160011615610100020316600290046112e4929190611938565b5083600080600254815260200190815260200160002060080190805190602001906113109291906117fa565b50826000806002548152602001908152602001600020600901908051906020019061133c9291906117fa565b5033600080600254815260200190815260200160002060050160006101000a81548173ffffffffffffffffffffffffffffffffffffffff021916908373ffffffffffffffffffffffffffffffffffffffff160217905550600160003373ffffffffffffffffffffffffffffffffffffffff1673ffffffffffffffffffffffffffffffffffffffff168152602001908152602001600020600301600254908060018154018082558091505090600182039060005260206000200160009091929091909150555050505050505050565b6060600080838152602001908152602001600020600a01805480602002602001604051908101604052809291908181526020016000905b828210156116175783829060005260206000209060040201604051806080016040529081600082018054600181600116156101000203166002900480601f0160208091040260200160405190810160405280929190818152602001828054600181600116156101000203166002900480156114fd5780601f106114d2576101008083540402835291602001916114fd565b820191906000526020600020905b8154815290600101906020018083116114e057829003601f168201915b505050505081526020016001820160009054906101000a900473ffffffffffffffffffffffffffffffffffffffff1673ffffffffffffffffffffffffffffffffffffffff1673ffffffffffffffffffffffffffffffffffffffff16815260200160028201548152602001600382018054600181600116156101000203166002900480601f0160208091040260200160405190810160405280929190818152602001828054600181600116156101000203166002900480156115ff5780601f106115d4576101008083540402835291602001916115ff565b820191906000526020600020905b8154815290600101906020018083116115e257829003601f168201915b50505050508152505081526020019060010190611441565b505050509050919050565b6060600160008373ffffffffffffffffffffffffffffffffffffffff1673ffffffffffffffffffffffffffffffffffffffff1681526020019081526020016000206003018054806020026020016040519081016040528092919081815260200182805480156116b057602002820191906000526020600020905b81548152602001906001019080831161169c575b50505050509050919050565b6060600160008373ffffffffffffffffffffffffffffffffffffffff1673ffffffffffffffffffffffffffffffffffffffff1681526020019081526020016000206001018054600181600116156101000203166002900480601f0160208091040260200160405190810160405280929190818152602001828054600181600116156101000203166002900480156117945780601f1061176957610100808354040283529160200191611794565b820191906000526020600020905b81548152906001019060200180831161177757829003601f168201915b50505050509050919050565b6000600160008373ffffffffffffffffffffffffffffffffffffffff1673ffffffffffffffffffffffffffffffffffffffff16815260200190815260200160002060000160009054906101000a900460ff16159050919050565b828054600181600116156101000203166002900490600052602060002090601f016020900481019282601f1061183b57805160ff1916838001178555611869565b82800160010185558215611869579182015b8281111561186857825182559160200191906001019061184d565b5b50905061187691906119bf565b5090565b604051806080016040528060608152602001600073ffffffffffffffffffffffffffffffffffffffff16815260200160008152602001606081525090565b828054600181600116156101000203166002900490600052602060002090601f016020900481019282601f106118f957805160ff1916838001178555611927565b82800160010185558215611927579182015b8281111561192657825182559160200191906001019061190b565b5b50905061193491906119bf565b5090565b828054600181600116156101000203166002900490600052602060002090601f016020900481019282601f1061197157805485556119ae565b828001600101855582156119ae57600052602060002091601f016020900482015b828111156119ad578254825591600101919060010190611992565b5b5090506119bb91906119bf565b5090565b6119e191905b808211156119dd5760008160009055506001016119c5565b5090565b90565b6000813590506119f381612600565b92915050565b600081359050611a0881612617565b92915050565b600082601f830112611a1f57600080fd5b8135611a32611a2d8261246f565b612442565b91508082526020830160208301858383011115611a4e57600080fd5b611a598382846125ad565b50505092915050565b600081359050611a718161262e565b92915050565b600060208284031215611a8957600080fd5b6000611a97848285016119e4565b91505092915050565b600060208284031215611ab257600080fd5b600082013567ffffffffffffffff811115611acc57600080fd5b611ad884828501611a0e565b91505092915050565b60008060408385031215611af457600080fd5b600083013567ffffffffffffffff811115611b0e57600080fd5b611b1a85828601611a0e565b925050602083013567ffffffffffffffff811115611b3757600080fd5b611b4385828601611a0e565b9150509250929050565b600080600080600080600060e0888a031215611b6857600080fd5b600088013567ffffffffffffffff811115611b8257600080fd5b611b8e8a828b01611a0e565b975050602088013567ffffffffffffffff811115611bab57600080fd5b611bb78a828b01611a0e565b965050604088013567ffffffffffffffff811115611bd457600080fd5b611be08a828b01611a0e565b955050606088013567ffffffffffffffff811115611bfd57600080fd5b611c098a828b01611a0e565b945050608088013567ffffffffffffffff811115611c2657600080fd5b611c328a828b01611a0e565b93505060a088013567ffffffffffffffff811115611c4f57600080fd5b611c5b8a828b01611a0e565b92505060c088013567ffffffffffffffff811115611c7857600080fd5b611c848a828b01611a0e565b91505092959891949750929550565b600060208284031215611ca557600080fd5b6000611cb384828501611a62565b91505092915050565b60008060008060808587031215611cd257600080fd5b6000611ce087828801611a62565b9450506020611cf187828801611a62565b935050604085013567ffffffffffffffff811115611d0e57600080fd5b611d1a87828801611a0e565b9250506060611d2b878288016119f9565b91505092959194509250565b6000611d43838361214e565b905092915050565b6000611d5783836121b8565b60208301905092915050565b611d6c81612565565b82525050565b611d7b81612565565b82525050565b6000611d8c826124d0565b611d968185612516565b935083602082028501611da88561249b565b8060005b85811015611de45784840389528151611dc58582611d37565b9450611dd0836124fc565b925060208a01995050600181019050611dac565b50829750879550505050505092915050565b6000611e01826124db565b611e0b8185612527565b9350611e16836124ab565b8060005b83811015611e47578151611e2e8882611d4b565b9750611e3983612509565b925050600181019050611e1a565b5085935050505092915050565b611e5d81612577565b82525050565b600081546001811660008114611e805760018114611ea557611ee9565b607f6002830416611e918187612538565b955060ff1983168652808601935050611ee9565b60028204611eb38187612538565b9550611ebe856124bb565b60005b82811015611ee057815481890152600182019150602081019050611ec1565b82880195505050505b505092915050565b6000611efc826124f1565b611f068185612554565b9350611f168185602086016125bc565b611f1f816125ef565b840191505092915050565b6000611f35826124e6565b611f3f8185612543565b9350611f4f8185602086016125bc565b611f58816125ef565b840191505092915050565b6000611f6e826124e6565b611f788185612554565b9350611f888185602086016125bc565b611f91816125ef565b840191505092915050565b6000611fa9602383612554565b91507f74686973206163636f756e7420697320616c726561647920726567697374657260008301527f65642100000000000000000000000000000000000000000000000000000000006020830152604082019050919050565b600061200f601883612554565b91507f757365726e616d652063616e6e6f7420626520656d70747900000000000000006000830152602082019050919050565b600061204f602283612554565b91507f796f752063616e20726576696577207468697320617070206f6e6c79206f6e6360008301527f65210000000000000000000000000000000000000000000000000000000000006020830152604082019050919050565b60006120b5602c83612554565b91507f796f7520616c7265616479207075626c697368656420616e206170702077697460008301527f682074686973206e616d652100000000000000000000000000000000000000006020830152604082019050919050565b600061211b601b83612554565b91507f796f752063616e6e6f742072657669657720796f7572206170702100000000006000830152602082019050919050565b6000608083016000830151848203600086015261216b8282611f2a565b91505060208301516121806020860182611d63565b50604083015161219360408601826121b8565b50606083015184820360608601526121ab8282611f2a565b9150508091505092915050565b6121c1816125a3565b82525050565b6121d0816125a3565b82525050565b60006121e28284611e63565b915081905092915050565b600060208201905081810360008301526122078184611d81565b905092915050565b600060208201905081810360008301526122298184611df6565b905092915050565b60006020820190506122466000830184611e54565b92915050565b60006060820190506122616000830186611e54565b81810360208301526122738185611f63565b905081810360408301526122878184611f63565b9050949350505050565b600060208201905081810360008301526122ab8184611ef1565b905092915050565b600060208201905081810360008301526122cc81611f9c565b9050919050565b600060208201905081810360008301526122ec81612002565b9050919050565b6000602082019050818103600083015261230c81612042565b9050919050565b6000602082019050818103600083015261232c816120a8565b9050919050565b6000602082019050818103600083015261234c8161210e565b9050919050565b600060208201905061236860008301846121c7565b92915050565b600061014082019050612384600083018d6121c7565b8181036020830152612396818c611f63565b905081810360408301526123aa818b611f63565b905081810360608301526123be818a611f63565b905081810360808301526123d28189611f63565b90506123e160a0830188611d72565b81810360c08301526123f38187611f63565b905081810360e08301526124078186611f63565b905081810361010083015261241c8185611f63565b90508181036101208301526124318184611f63565b90509b9a5050505050505050505050565b6000604051905081810181811067ffffffffffffffff8211171561246557600080fd5b8060405250919050565b600067ffffffffffffffff82111561248657600080fd5b601f19601f8301169050602081019050919050565b6000819050602082019050919050565b6000819050602082019050919050565b60008190508160005260206000209050919050565b600081519050919050565b600081519050919050565b600081519050919050565b600081519050919050565b6000602082019050919050565b6000602082019050919050565b600082825260208201905092915050565b600082825260208201905092915050565b600081905092915050565b600082825260208201905092915050565b600082825260208201905092915050565b600061257082612583565b9050919050565b60008115159050919050565b600073ffffffffffffffffffffffffffffffffffffffff82169050919050565b6000819050919050565b82818337600083830152505050565b60005b838110156125da5780820151818401526020810190506125bf565b838111156125e9576000848401525b50505050565b6000601f19601f8301169050919050565b61260981612565565b811461261457600080fd5b50565b61262081612577565b811461262b57600080fd5b50565b612637816125a3565b811461264257600080fd5b5056fea365627a7a72315820f577f605c8f264a0dbc0e8f29ae3c17607ead8923e48cc8ee67db357e7624c2f6c6578706572696d656e74616cf564736f6c63430005100040",
  "source": "// SPDX-License-Identifier: MIT\r\npragma solidity >=0.4.22 <0.9.0;\r\npragma experimental ABIEncoderV2;\r\n\r\ncontract AppStore {\r\n\r\n  mapping(uint => AppData) public apps;\r\n  mapping(address  => UserData) public userDictionary;\r\n  uint public appsCount = 0; \r\n\r\n  struct UserData {\r\n    bool isInit;\r\n    string userName;\r\n    string downloadCode;\r\n    uint[] uploadedApps;\r\n  }\r\n\r\n  struct AppData {\r\n    uint id;\r\n    string appName;\r\n    string category;\r\n    string appDescription;\r\n    string appDeveloper;\r\n    address developerAddress;\r\n    string appLogoHash;\r\n    string appFileHash;\r\n    string price;\r\n    string priceCurrency;\r\n    ReviewAndRating [] reviews;\r\n  }\r\n\r\n  struct ReviewAndRating{\r\n    string name;\r\n    address evaluaterAddress;\r\n    uint rating;\r\n    string review;\r\n  }\r\n\r\n  function createApp(string memory _appName,string memory _category,string memory _appDescription,string memory _price,string memory _priceCurrency, string memory _appLogoHash,string memory _appFileHash) public {\r\n    for (uint i = 0; i < userDictionary[msg.sender].uploadedApps.length; i++) {\r\n      require(keccak256(bytes(apps[userDictionary[msg.sender].uploadedApps[i]].appName))!=keccak256(bytes(_appName)),'you already published an app with this name!');\r\n    }\r\n    appsCount++;\r\n    apps[appsCount].id=appsCount;\r\n    apps[appsCount].appName=_appName;\r\n    apps[appsCount].category=_category;\r\n    apps[appsCount].appDescription=_appDescription;\r\n    apps[appsCount].appLogoHash=_appLogoHash;\r\n    apps[appsCount].appFileHash=_appFileHash;\r\n    apps[appsCount].appDeveloper=userDictionary[msg.sender].userName;\r\n    apps[appsCount].price=_price;\r\n    apps[appsCount].priceCurrency=_priceCurrency;\r\n    apps[appsCount].developerAddress=msg.sender;\r\n    userDictionary[msg.sender].uploadedApps.push(appsCount);\r\n  }\r\n\r\n\r\n  function registerUser(string memory _userName, string memory initDownloadCode)public{\r\n    require(bytes(_userName).length!=0,\"username cannot be empty\");\r\n    require(bytes(userDictionary[msg.sender].userName).length==0,'this account is already registered!');\r\n    userDictionary[msg.sender].userName=_userName;\r\n    userDictionary[msg.sender].isInit=true;\r\n    userDictionary[msg.sender].downloadCode=initDownloadCode;\r\n  }\r\n\r\n\r\n  function addReview(uint _appid,uint _rating,string memory _review,bool isAnonymous) public {\r\n    require(msg.sender!=apps[_appid].developerAddress,'you cannot review your app!');\r\n    for (uint i = 0; i < apps[_appid].reviews.length; i++) {\r\n        require(apps[_appid].reviews[i].evaluaterAddress!=msg.sender,'you can review this app only once!');\r\n    }\r\n    ReviewAndRating memory NewReview=ReviewAndRating(isAnonymous?'Anonymous':userDictionary[msg.sender].userName, msg.sender, _rating, _review);\r\n    apps[_appid].reviews.push(NewReview);\r\n  }\r\n\r\n\r\n  function isNewUser(address _user)public view returns(bool){\r\n    return !userDictionary[_user].isInit;\r\n  } \r\n\r\n\r\n  function getUserName(address _user)public view returns(string memory){\r\n    return userDictionary[_user].userName;\r\n  }\r\n\r\n\r\n  function getUploadedApps(address _user) public view returns(uint[] memory){\r\n    return userDictionary[_user].uploadedApps;\r\n  }\r\n\r\n\r\n  function getDownloadCode(address _user) public view returns(string memory){\r\n    return userDictionary[_user].downloadCode;\r\n  }\r\n\r\n\r\n  function getReviews(uint appid) public view returns(ReviewAndRating [] memory ){\r\n    return apps[appid].reviews;\r\n  }\r\n\r\n\r\n  function updateDownloadCode(string memory newCode) public {\r\n    userDictionary[msg.sender].downloadCode = newCode;\r\n  }\r\n\r\n}\r\n",
  "sourcePath": "E:\\8semester2022\\parallelProject\\DecentralizedAppStore\\AppStore\\src\\contracts\\contracts\\AppStore.sol",
  "compiler": {
    "name": "solc",
    "version": "0.5.16+commit.9c3226ce.Emscripten.clang"
  },
  "schemaVersion": "3.4.7",
  "updatedAt": "2022-11-12T13:22:09.396Z",
  "networkType": "ethereum",
  "devdoc": {
    "methods": {}
  },
  "userdoc": {
    "methods": {}
  }
}