{
  "contractName": "AppStore",
  "abi": [
    {
      "inputs": [],
      "payable": false,
      "stateMutability": "nonpayable",
      "type": "constructor"
    },
    {
      "constant": true,
      "inputs": [
        {
          "internalType": "uint256",
          "name": "",
          "type": "uint256"
        }
      ],
      "name": "apps",
      "outputs": [
        {
          "internalType": "uint256",
          "name": "id",
          "type": "uint256"
        },
        {
          "internalType": "string",
          "name": "appName",
          "type": "string"
        },
        {
          "internalType": "string",
          "name": "category",
          "type": "string"
        },
        {
          "internalType": "string",
          "name": "appDescription",
          "type": "string"
        },
        {
          "internalType": "string",
          "name": "appDeveloper",
          "type": "string"
        },
        {
          "internalType": "string",
          "name": "appLogoHash",
          "type": "string"
        },
        {
          "internalType": "uint256",
          "name": "price",
          "type": "uint256"
        }
      ],
      "payable": false,
      "stateMutability": "view",
      "type": "function"
    },
    {
      "constant": true,
      "inputs": [],
      "name": "appsCount",
      "outputs": [
        {
          "internalType": "uint256",
          "name": "",
          "type": "uint256"
        }
      ],
      "payable": false,
      "stateMutability": "view",
      "type": "function"
    },
    {
      "constant": true,
      "inputs": [
        {
          "internalType": "address",
          "name": "",
          "type": "address"
        }
      ],
      "name": "userDictionary",
      "outputs": [
        {
          "internalType": "bool",
          "name": "isInit",
          "type": "bool"
        },
        {
          "internalType": "string",
          "name": "userName",
          "type": "string"
        },
        {
          "internalType": "string",
          "name": "downloadCode",
          "type": "string"
        }
      ],
      "payable": false,
      "stateMutability": "view",
      "type": "function"
    },
    {
      "constant": true,
      "inputs": [],
      "name": "getUserName",
      "outputs": [
        {
          "internalType": "string",
          "name": "",
          "type": "string"
        }
      ],
      "payable": false,
      "stateMutability": "view",
      "type": "function"
    },
    {
      "constant": false,
      "inputs": [
        {
          "internalType": "string",
          "name": "_appName",
          "type": "string"
        },
        {
          "internalType": "string",
          "name": "_category",
          "type": "string"
        },
        {
          "internalType": "string",
          "name": "_appDescription",
          "type": "string"
        },
        {
          "internalType": "uint256",
          "name": "price",
          "type": "uint256"
        },
        {
          "internalType": "string",
          "name": "_appLogoHash",
          "type": "string"
        }
      ],
      "name": "createApp",
      "outputs": [],
      "payable": false,
      "stateMutability": "nonpayable",
      "type": "function"
    },
    {
      "constant": false,
      "inputs": [
        {
          "internalType": "string",
          "name": "userName",
          "type": "string"
        },
        {
          "internalType": "string",
          "name": "initDownloadCode",
          "type": "string"
        }
      ],
      "name": "registerUser",
      "outputs": [],
      "payable": false,
      "stateMutability": "nonpayable",
      "type": "function"
    },
    {
      "constant": true,
      "inputs": [],
      "name": "getUploadedApps",
      "outputs": [
        {
          "internalType": "uint256[]",
          "name": "",
          "type": "uint256[]"
        }
      ],
      "payable": false,
      "stateMutability": "view",
      "type": "function"
    },
    {
      "constant": true,
      "inputs": [],
      "name": "getDownloadCode",
      "outputs": [
        {
          "internalType": "string",
          "name": "",
          "type": "string"
        }
      ],
      "payable": false,
      "stateMutability": "view",
      "type": "function"
    },
    {
      "constant": true,
      "inputs": [
        {
          "internalType": "uint256",
          "name": "appid",
          "type": "uint256"
        }
      ],
      "name": "getReviews",
      "outputs": [
        {
          "components": [
            {
              "internalType": "string",
              "name": "name",
              "type": "string"
            },
            {
              "internalType": "uint256",
              "name": "rating",
              "type": "uint256"
            },
            {
              "internalType": "string",
              "name": "review",
              "type": "string"
            }
          ],
          "internalType": "struct AppStore.ReviewAndRating[]",
          "name": "",
          "type": "tuple[]"
        }
      ],
      "payable": false,
      "stateMutability": "view",
      "type": "function"
    },
    {
      "constant": false,
      "inputs": [
        {
          "internalType": "string",
          "name": "newCode",
          "type": "string"
        }
      ],
      "name": "updateDownloadCode",
      "outputs": [],
      "payable": false,
      "stateMutability": "nonpayable",
      "type": "function"
    },
    {
      "constant": false,
      "inputs": [
        {
          "internalType": "uint256",
          "name": "_appid",
          "type": "uint256"
        },
        {
          "internalType": "uint256",
          "name": "_rating",
          "type": "uint256"
        },
        {
          "internalType": "string",
          "name": "_review",
          "type": "string"
        },
        {
          "internalType": "string",
          "name": "_userName",
          "type": "string"
        }
      ],
      "name": "addReview",
      "outputs": [],
      "payable": false,
      "stateMutability": "nonpayable",
      "type": "function"
    }
  ],
  "bytecode": "0x60806040526000805534801561001457600080fd5b50611a85806100246000396000f3fe608060405234801561001057600080fd5b50600436106100a95760003560e01c80632e8236b9116100715780632e8236b9146101545780635a8505631461017057806361acc37e1461018e578063766289ed146101c457806385d4e88d146101e05780639d4a2255146101fe576100a9565b806312958f1c146100ae57806313657109146100cc57806318356f90146100e85780631d2e4afd1461011a5780632b5f387914610136575b600080fd5b6100b661022e565b6040516100c39190611767565b60405180910390f35b6100e660048036036100e1919081019061139d565b610310565b005b61010260048036036100fd91908101906111c7565b6103c5565b60405161011193929190611722565b60405180910390f35b610134600480360361012f9190810190611231565b61052c565b005b61013e6106bc565b60405161014b91906117c9565b60405180910390f35b61016e600480360361016991908101906111f0565b6106c2565b005b61017861071c565b6040516101859190611700565b60405180910390f35b6101a860048036036101a39190810190611374565b6107b4565b6040516101bb97969594939291906117e4565b60405180910390f35b6101de60048036036101d9919081019061129d565b610aee565b005b6101e8610cd7565b6040516101f59190611767565b60405180910390f35b61021860048036036102139190810190611374565b610db9565b60405161022591906116de565b60405180910390f35b6060600260003373ffffffffffffffffffffffffffffffffffffffff1673ffffffffffffffffffffffffffffffffffffffff1681526020019081526020016000206001018054600181600116156101000203166002900480601f0160208091040260200160405190810160405280929190818152602001828054600181600116156101000203166002900480156103065780601f106102db57610100808354040283529160200191610306565b820191906000526020600020905b8154815290600101906020018083116102e957829003601f168201915b5050505050905090565b610318610f7c565b60405180606001604052808381526020018581526020018481525090506001600086815260200190815260200160002060070181908060018154018082558091505090600182039060005260206000209060030201600090919290919091506000820151816000019080519060200190610393929190610f9d565b506020820151816001015560408201518160020190805190602001906103ba929190610f9d565b505050505050505050565b60026020528060005260406000206000915090508060000160009054906101000a900460ff1690806001018054600181600116156101000203166002900480601f0160208091040260200160405190810160405280929190818152602001828054600181600116156101000203166002900480156104845780601f1061045957610100808354040283529160200191610484565b820191906000526020600020905b81548152906001019060200180831161046757829003601f168201915b505050505090806002018054600181600116156101000203166002900480601f0160208091040260200160405190810160405280929190818152602001828054600181600116156101000203166002900480156105225780601f106104f757610100808354040283529160200191610522565b820191906000526020600020905b81548152906001019060200180831161050557829003601f168201915b5050505050905083565b600082511415610571576040517f08c379a000000000000000000000000000000000000000000000000000000000815260040161056890611789565b60405180910390fd5b6000600260003373ffffffffffffffffffffffffffffffffffffffff1673ffffffffffffffffffffffffffffffffffffffff1681526020019081526020016000206001018054600181600116156101000203166002900490501461060a576040517f08c379a0000000000000000000000000000000000000000000000000000000008152600401610601906117a9565b60405180910390fd5b81600260003373ffffffffffffffffffffffffffffffffffffffff1673ffffffffffffffffffffffffffffffffffffffff168152602001908152602001600020600101908051906020019061066092919061101d565b5080600260003373ffffffffffffffffffffffffffffffffffffffff1673ffffffffffffffffffffffffffffffffffffffff16815260200190815260200160002060020190805190602001906106b792919061101d565b505050565b60005481565b80600260003373ffffffffffffffffffffffffffffffffffffffff1673ffffffffffffffffffffffffffffffffffffffff168152602001908152602001600020600201908051906020019061071892919061101d565b5050565b6060600260003373ffffffffffffffffffffffffffffffffffffffff1673ffffffffffffffffffffffffffffffffffffffff1681526020019081526020016000206003018054806020026020016040519081016040528092919081815260200182805480156107aa57602002820191906000526020600020905b815481526020019060010190808311610796575b5050505050905090565b6001602052806000526040600020600091509050806000015490806001018054600181600116156101000203166002900480601f0160208091040260200160405190810160405280929190818152602001828054600181600116156101000203166002900480156108665780601f1061083b57610100808354040283529160200191610866565b820191906000526020600020905b81548152906001019060200180831161084957829003601f168201915b505050505090806002018054600181600116156101000203166002900480601f0160208091040260200160405190810160405280929190818152602001828054600181600116156101000203166002900480156109045780601f106108d957610100808354040283529160200191610904565b820191906000526020600020905b8154815290600101906020018083116108e757829003601f168201915b505050505090806003018054600181600116156101000203166002900480601f0160208091040260200160405190810160405280929190818152602001828054600181600116156101000203166002900480156109a25780601f10610977576101008083540402835291602001916109a2565b820191906000526020600020905b81548152906001019060200180831161098557829003601f168201915b505050505090806004018054600181600116156101000203166002900480601f016020809104026020016040519081016040528092919081815260200182805460018160011615610100020316600290048015610a405780601f10610a1557610100808354040283529160200191610a40565b820191906000526020600020905b815481529060010190602001808311610a2357829003601f168201915b505050505090806005018054600181600116156101000203166002900480601f016020809104026020016040519081016040528092919081815260200182805460018160011615610100020316600290048015610ade5780601f10610ab357610100808354040283529160200191610ade565b820191906000526020600020905b815481529060010190602001808311610ac157829003601f168201915b5050505050908060060154905087565b60008081548092919060010191905055506000546001600080548152602001908152602001600020600001819055508460016000805481526020019081526020016000206001019080519060200190610b4892919061101d565b508360016000805481526020019081526020016000206002019080519060200190610b7492919061101d565b508260016000805481526020019081526020016000206003019080519060200190610ba092919061101d565b508060016000805481526020019081526020016000206005019080519060200190610bcc92919061101d565b50600260003373ffffffffffffffffffffffffffffffffffffffff1673ffffffffffffffffffffffffffffffffffffffff16815260200190815260200160002060010160016000805481526020019081526020016000206004019080546001816001161561010002031660029004610c4592919061109d565b5081600160008054815260200190815260200160002060060181905550600260003373ffffffffffffffffffffffffffffffffffffffff1673ffffffffffffffffffffffffffffffffffffffff16815260200190815260200160002060030160005490806001815401808255809150509060018203906000526020600020016000909192909190915055505050505050565b6060600260003373ffffffffffffffffffffffffffffffffffffffff1673ffffffffffffffffffffffffffffffffffffffff1681526020019081526020016000206002018054600181600116156101000203166002900480601f016020809104026020016040519081016040528092919081815260200182805460018160011615610100020316600290048015610daf5780601f10610d8457610100808354040283529160200191610daf565b820191906000526020600020905b815481529060010190602001808311610d9257829003601f168201915b5050505050905090565b606060016000838152602001908152602001600020600701805480602002602001604051908101604052809291908181526020016000905b82821015610f715783829060005260206000209060030201604051806060016040529081600082018054600181600116156101000203166002900480601f016020809104026020016040519081016040528092919081815260200182805460018160011615610100020316600290048015610ead5780601f10610e8257610100808354040283529160200191610ead565b820191906000526020600020905b815481529060010190602001808311610e9057829003601f168201915b5050505050815260200160018201548152602001600282018054600181600116156101000203166002900480601f016020809104026020016040519081016040528092919081815260200182805460018160011615610100020316600290048015610f595780601f10610f2e57610100808354040283529160200191610f59565b820191906000526020600020905b815481529060010190602001808311610f3c57829003601f168201915b50505050508152505081526020019060010190610df1565b505050509050919050565b60405180606001604052806060815260200160008152602001606081525090565b828054600181600116156101000203166002900490600052602060002090601f016020900481019282601f10610fde57805160ff191683800117855561100c565b8280016001018555821561100c579182015b8281111561100b578251825591602001919060010190610ff0565b5b5090506110199190611124565b5090565b828054600181600116156101000203166002900490600052602060002090601f016020900481019282601f1061105e57805160ff191683800117855561108c565b8280016001018555821561108c579182015b8281111561108b578251825591602001919060010190611070565b5b5090506110999190611124565b5090565b828054600181600116156101000203166002900490600052602060002090601f016020900481019282601f106110d65780548555611113565b8280016001018555821561111357600052602060002091601f016020900482015b828111156111125782548255916001019190600101906110f7565b5b5090506111209190611124565b5090565b61114691905b8082111561114257600081600090555060010161112a565b5090565b90565b60008135905061115881611a14565b92915050565b600082601f83011261116f57600080fd5b813561118261117d826118a3565b611876565b9150808252602083016020830185838301111561119e57600080fd5b6111a98382846119c1565b50505092915050565b6000813590506111c181611a2b565b92915050565b6000602082840312156111d957600080fd5b60006111e784828501611149565b91505092915050565b60006020828403121561120257600080fd5b600082013567ffffffffffffffff81111561121c57600080fd5b6112288482850161115e565b91505092915050565b6000806040838503121561124457600080fd5b600083013567ffffffffffffffff81111561125e57600080fd5b61126a8582860161115e565b925050602083013567ffffffffffffffff81111561128757600080fd5b6112938582860161115e565b9150509250929050565b600080600080600060a086880312156112b557600080fd5b600086013567ffffffffffffffff8111156112cf57600080fd5b6112db8882890161115e565b955050602086013567ffffffffffffffff8111156112f857600080fd5b6113048882890161115e565b945050604086013567ffffffffffffffff81111561132157600080fd5b61132d8882890161115e565b935050606061133e888289016111b2565b925050608086013567ffffffffffffffff81111561135b57600080fd5b6113678882890161115e565b9150509295509295909350565b60006020828403121561138657600080fd5b6000611394848285016111b2565b91505092915050565b600080600080608085870312156113b357600080fd5b60006113c1878288016111b2565b94505060206113d2878288016111b2565b935050604085013567ffffffffffffffff8111156113ef57600080fd5b6113fb8782880161115e565b925050606085013567ffffffffffffffff81111561141857600080fd5b6114248782880161115e565b91505092959194509250565b600061143c8383611669565b905092915050565b600061145083836116c0565b60208301905092915050565b6000611467826118ef565b6114718185611935565b935083602082028501611483856118cf565b8060005b858110156114bf57848403895281516114a08582611430565b94506114ab8361191b565b925060208a01995050600181019050611487565b50829750879550505050505092915050565b60006114dc826118fa565b6114e68185611946565b93506114f1836118df565b8060005b838110156115225781516115098882611444565b975061151483611928565b9250506001810190506114f5565b5085935050505092915050565b6115388161198b565b82525050565b600061154982611910565b6115538185611968565b93506115638185602086016119d0565b61156c81611a03565b840191505092915050565b600061158282611905565b61158c8185611957565b935061159c8185602086016119d0565b6115a581611a03565b840191505092915050565b60006115bb82611905565b6115c58185611968565b93506115d58185602086016119d0565b6115de81611a03565b840191505092915050565b60006115f6601883611968565b91507f757365726e616d652063616e6e6f7420626520656d70747900000000000000006000830152602082019050919050565b6000611636601783611968565b91507f757365726e616d6520697320616c7265616479207365740000000000000000006000830152602082019050919050565b600060608301600083015184820360008601526116868282611577565b915050602083015161169b60208601826116c0565b50604083015184820360408601526116b38282611577565b9150508091505092915050565b6116c9816119b7565b82525050565b6116d8816119b7565b82525050565b600060208201905081810360008301526116f8818461145c565b905092915050565b6000602082019050818103600083015261171a81846114d1565b905092915050565b6000606082019050611737600083018661152f565b818103602083015261174981856115b0565b9050818103604083015261175d81846115b0565b9050949350505050565b60006020820190508181036000830152611781818461153e565b905092915050565b600060208201905081810360008301526117a2816115e9565b9050919050565b600060208201905081810360008301526117c281611629565b9050919050565b60006020820190506117de60008301846116cf565b92915050565b600060e0820190506117f9600083018a6116cf565b818103602083015261180b81896115b0565b9050818103604083015261181f81886115b0565b9050818103606083015261183381876115b0565b9050818103608083015261184781866115b0565b905081810360a083015261185b81856115b0565b905061186a60c08301846116cf565b98975050505050505050565b6000604051905081810181811067ffffffffffffffff8211171561189957600080fd5b8060405250919050565b600067ffffffffffffffff8211156118ba57600080fd5b601f19601f8301169050602081019050919050565b6000819050602082019050919050565b6000819050602082019050919050565b600081519050919050565b600081519050919050565b600081519050919050565b600081519050919050565b6000602082019050919050565b6000602082019050919050565b600082825260208201905092915050565b600082825260208201905092915050565b600082825260208201905092915050565b600082825260208201905092915050565b600061198482611997565b9050919050565b60008115159050919050565b600073ffffffffffffffffffffffffffffffffffffffff82169050919050565b6000819050919050565b82818337600083830152505050565b60005b838110156119ee5780820151818401526020810190506119d3565b838111156119fd576000848401525b50505050565b6000601f19601f8301169050919050565b611a1d81611979565b8114611a2857600080fd5b50565b611a34816119b7565b8114611a3f57600080fd5b5056fea365627a7a72315820645d43eab9b5d8b0ae899d2a2f4cd708e5240bbbd69c3df0186ca84ecf7fcbd66c6578706572696d656e74616cf564736f6c63430005100040",
  "source": "// SPDX-License-Identifier: MIT\r\npragma solidity >=0.4.22 <0.9.0;\r\npragma experimental ABIEncoderV2;\r\n\r\ncontract AppStore {\r\n  uint public appsCount = 0; // state variable\r\n  //enum appCategory{ Education, Entertainment, News, Sports, Music, Shopping, Business}\r\n  struct ReviewAndRating{\r\n    string name;\r\n    uint rating;\r\n    string review;\r\n  }\r\n  struct AppData {\r\n    uint id;\r\n    string appName;\r\n    string category;\r\n    string appDescription;\r\n    string appDeveloper;\r\n    string appLogoHash;\r\n    uint price;\r\n    ReviewAndRating [] reviews;\r\n  }\r\n\r\n  struct UserData {\r\n    bool isInit;\r\n    string userName;\r\n  \r\n    string downloadCode;\r\n    uint[] uploadedApps;\r\n  }\r\n  \r\n  constructor() public {\r\n  }\r\n  \r\n  mapping(uint => AppData) public apps;\r\n  mapping(address  => UserData) public userDictionary;\r\n\r\n  function getUserName()public view returns(string memory){\r\n    return userDictionary[msg.sender].userName;\r\n  }\r\n\r\n  function createApp(string memory _appName,string memory _category,string memory _appDescription,uint price,string memory _appLogoHash) public {\r\n    appsCount++;\r\n  //  apps[appsCount]= AppData(appsCount, _appName, _category, _appDescription,userDictionary[msg.sender].userName ,price);\r\n    apps[appsCount].id=appsCount;\r\n    apps[appsCount].appName=_appName;\r\n    apps[appsCount].category=_category;\r\n    apps[appsCount].appDescription=_appDescription;\r\n    apps[appsCount].appLogoHash=_appLogoHash;\r\n    apps[appsCount].appDeveloper=userDictionary[msg.sender].userName;\r\n    apps[appsCount].price=price;\r\n    userDictionary[msg.sender].uploadedApps.push(appsCount);\r\n  }\r\n\r\n  function registerUser(string memory userName, string memory initDownloadCode)public{\r\n    require(bytes(userName).length!=0,\"username cannot be empty\");\r\n    require(bytes(userDictionary[msg.sender].userName).length==0,\"username is already set\");\r\n    userDictionary[msg.sender].userName=userName;\r\n    userDictionary[msg.sender].downloadCode=initDownloadCode;\r\n  }\r\n\r\n  function getUploadedApps() public view returns(uint[] memory){\r\n    return userDictionary[msg.sender].uploadedApps;\r\n  }\r\n\r\n  function getDownloadCode() public view returns(string memory){\r\n    return userDictionary[msg.sender].downloadCode;\r\n  }\r\n    function getReviews(uint appid) public view returns(ReviewAndRating [] memory ){\r\n    return apps[appid].reviews;\r\n  }\r\n\r\n  function updateDownloadCode(string memory newCode) public {\r\n    userDictionary[msg.sender].downloadCode = newCode;\r\n  }\r\n\r\n  function addReview(uint _appid,uint _rating,string memory _review,string memory _userName) public {\r\n      ReviewAndRating memory NewReview=ReviewAndRating(_userName  , _rating, _review);\r\n      apps[_appid].reviews.push(NewReview);\r\n  }\r\n}",
  "sourcePath": "E:\\8semester2022\\parallelProject\\DecentralizedAppStore\\AppStore\\src\\contracts\\contracts\\AppStore.sol",
  "compiler": {
    "name": "solc",
    "version": "0.5.16+commit.9c3226ce.Emscripten.clang"
  },
  "schemaVersion": "3.4.7",
  "updatedAt": "2022-10-29T13:33:30.503Z",
  "networkType": "ethereum",
  "devdoc": {
    "methods": {}
  },
  "userdoc": {
    "methods": {}
  }
}