{
  "contractName": "AppStore",
  "abi": [
    {
      "inputs": [],
      "payable": false,
      "stateMutability": "nonpayable",
      "type": "constructor"
    },
    {
      "constant": true,
      "inputs": [
        {
          "internalType": "uint256",
          "name": "",
          "type": "uint256"
        }
      ],
      "name": "apps",
      "outputs": [
        {
          "internalType": "uint256",
          "name": "id",
          "type": "uint256"
        },
        {
          "internalType": "string",
          "name": "appName",
          "type": "string"
        },
        {
          "internalType": "string",
          "name": "category",
          "type": "string"
        },
        {
          "internalType": "string",
          "name": "appDescription",
          "type": "string"
        },
        {
          "internalType": "string",
          "name": "appDeveloper",
          "type": "string"
        },
        {
          "internalType": "uint256",
          "name": "price",
          "type": "uint256"
        }
      ],
      "payable": false,
      "stateMutability": "view",
      "type": "function"
    },
    {
      "constant": true,
      "inputs": [],
      "name": "appsCount",
      "outputs": [
        {
          "internalType": "uint256",
          "name": "",
          "type": "uint256"
        }
      ],
      "payable": false,
      "stateMutability": "view",
      "type": "function"
    },
    {
      "constant": true,
      "inputs": [
        {
          "internalType": "address",
          "name": "",
          "type": "address"
        }
      ],
      "name": "userDictionary",
      "outputs": [
        {
          "internalType": "bool",
          "name": "isInit",
          "type": "bool"
        },
        {
          "internalType": "string",
          "name": "userName",
          "type": "string"
        },
        {
          "internalType": "string",
          "name": "downloadCode",
          "type": "string"
        }
      ],
      "payable": false,
      "stateMutability": "view",
      "type": "function"
    },
    {
      "constant": true,
      "inputs": [],
      "name": "getUserName",
      "outputs": [
        {
          "internalType": "string",
          "name": "",
          "type": "string"
        }
      ],
      "payable": false,
      "stateMutability": "view",
      "type": "function"
    },
    {
      "constant": false,
      "inputs": [
        {
          "internalType": "string",
          "name": "_appName",
          "type": "string"
        },
        {
          "internalType": "string",
          "name": "_category",
          "type": "string"
        },
        {
          "internalType": "string",
          "name": "_appDescription",
          "type": "string"
        },
        {
          "internalType": "uint256",
          "name": "price",
          "type": "uint256"
        }
      ],
      "name": "createApp",
      "outputs": [],
      "payable": false,
      "stateMutability": "nonpayable",
      "type": "function"
    },
    {
      "constant": false,
      "inputs": [
        {
          "internalType": "string",
          "name": "userName",
          "type": "string"
        },
        {
          "internalType": "string",
          "name": "initDownloadCode",
          "type": "string"
        }
      ],
      "name": "registerUser",
      "outputs": [],
      "payable": false,
      "stateMutability": "nonpayable",
      "type": "function"
    },
    {
      "constant": true,
      "inputs": [],
      "name": "getUploadedApps",
      "outputs": [
        {
          "internalType": "uint256[]",
          "name": "",
          "type": "uint256[]"
        }
      ],
      "payable": false,
      "stateMutability": "view",
      "type": "function"
    },
    {
      "constant": true,
      "inputs": [],
      "name": "getDownloadCode",
      "outputs": [
        {
          "internalType": "string",
          "name": "",
          "type": "string"
        }
      ],
      "payable": false,
      "stateMutability": "view",
      "type": "function"
    },
    {
      "constant": true,
      "inputs": [
        {
          "internalType": "uint256",
          "name": "appid",
          "type": "uint256"
        }
      ],
      "name": "getReviews",
      "outputs": [
        {
          "components": [
            {
              "internalType": "string",
              "name": "name",
              "type": "string"
            },
            {
              "internalType": "uint256",
              "name": "rating",
              "type": "uint256"
            },
            {
              "internalType": "string",
              "name": "review",
              "type": "string"
            }
          ],
          "internalType": "struct AppStore.ReviewAndRating[]",
          "name": "",
          "type": "tuple[]"
        }
      ],
      "payable": false,
      "stateMutability": "view",
      "type": "function"
    },
    {
      "constant": false,
      "inputs": [
        {
          "internalType": "string",
          "name": "newCode",
          "type": "string"
        }
      ],
      "name": "updateDownloadCode",
      "outputs": [],
      "payable": false,
      "stateMutability": "nonpayable",
      "type": "function"
    },
    {
      "constant": false,
      "inputs": [
        {
          "internalType": "uint256",
          "name": "_appid",
          "type": "uint256"
        },
        {
          "internalType": "uint256",
          "name": "_rating",
          "type": "uint256"
        },
        {
          "internalType": "string",
          "name": "_review",
          "type": "string"
        },
        {
          "internalType": "string",
          "name": "_userName",
          "type": "string"
        }
      ],
      "name": "addReview",
      "outputs": [],
      "payable": false,
      "stateMutability": "nonpayable",
      "type": "function"
    }
  ],
  "bytecode": "0x60806040526000805534801561001457600080fd5b50611978806100246000396000f3fe608060405234801561001057600080fd5b50600436106100a95760003560e01c80632e8236b9116100715780632e8236b9146101545780634b0ec5ae146101705780635a8505631461018c57806361acc37e146101aa57806385d4e88d146101df5780639d4a2255146101fd576100a9565b806312958f1c146100ae57806313657109146100cc57806318356f90146100e85780631d2e4afd1461011a5780632b5f387914610136575b600080fd5b6100b661022d565b6040516100c3919061166f565b60405180910390f35b6100e660048036036100e191908101906112a5565b61030f565b005b61010260048036036100fd91908101906110fb565b6103c4565b6040516101119392919061162a565b60405180910390f35b610134600480360361012f9190810190611165565b61052b565b005b61013e6106bb565b60405161014b91906116d1565b60405180910390f35b61016e60048036036101699190810190611124565b6106c1565b005b61018a600480360361018591908101906111d1565b61071b565b005b6101946108d7565b6040516101a19190611608565b60405180910390f35b6101c460048036036101bf919081019061127c565b61096f565b6040516101d6969594939291906116ec565b60405180910390f35b6101e7610c0b565b6040516101f4919061166f565b60405180910390f35b6102176004803603610212919081019061127c565b610ced565b60405161022491906115e6565b60405180910390f35b6060600260003373ffffffffffffffffffffffffffffffffffffffff1673ffffffffffffffffffffffffffffffffffffffff1681526020019081526020016000206001018054600181600116156101000203166002900480601f0160208091040260200160405190810160405280929190818152602001828054600181600116156101000203166002900480156103055780601f106102da57610100808354040283529160200191610305565b820191906000526020600020905b8154815290600101906020018083116102e857829003601f168201915b5050505050905090565b610317610eb0565b60405180606001604052808381526020018581526020018481525090506001600086815260200190815260200160002060060181908060018154018082558091505090600182039060005260206000209060030201600090919290919091506000820151816000019080519060200190610392929190610ed1565b506020820151816001015560408201518160020190805190602001906103b9929190610ed1565b505050505050505050565b60026020528060005260406000206000915090508060000160009054906101000a900460ff1690806001018054600181600116156101000203166002900480601f0160208091040260200160405190810160405280929190818152602001828054600181600116156101000203166002900480156104835780601f1061045857610100808354040283529160200191610483565b820191906000526020600020905b81548152906001019060200180831161046657829003601f168201915b505050505090806002018054600181600116156101000203166002900480601f0160208091040260200160405190810160405280929190818152602001828054600181600116156101000203166002900480156105215780601f106104f657610100808354040283529160200191610521565b820191906000526020600020905b81548152906001019060200180831161050457829003601f168201915b5050505050905083565b600082511415610570576040517f08c379a000000000000000000000000000000000000000000000000000000000815260040161056790611691565b60405180910390fd5b6000600260003373ffffffffffffffffffffffffffffffffffffffff1673ffffffffffffffffffffffffffffffffffffffff16815260200190815260200160002060010180546001816001161561010002031660029004905014610609576040517f08c379a0000000000000000000000000000000000000000000000000000000008152600401610600906116b1565b60405180910390fd5b81600260003373ffffffffffffffffffffffffffffffffffffffff1673ffffffffffffffffffffffffffffffffffffffff168152602001908152602001600020600101908051906020019061065f929190610f51565b5080600260003373ffffffffffffffffffffffffffffffffffffffff1673ffffffffffffffffffffffffffffffffffffffff16815260200190815260200160002060020190805190602001906106b6929190610f51565b505050565b60005481565b80600260003373ffffffffffffffffffffffffffffffffffffffff1673ffffffffffffffffffffffffffffffffffffffff1681526020019081526020016000206002019080519060200190610717929190610f51565b5050565b60008081548092919060010191905055506000546001600080548152602001908152602001600020600001819055508360016000805481526020019081526020016000206001019080519060200190610775929190610f51565b5082600160008054815260200190815260200160002060020190805190602001906107a1929190610f51565b5081600160008054815260200190815260200160002060030190805190602001906107cd929190610f51565b50600260003373ffffffffffffffffffffffffffffffffffffffff1673ffffffffffffffffffffffffffffffffffffffff16815260200190815260200160002060010160016000805481526020019081526020016000206004019080546001816001161561010002031660029004610846929190610fd1565b5080600160008054815260200190815260200160002060050181905550600260003373ffffffffffffffffffffffffffffffffffffffff1673ffffffffffffffffffffffffffffffffffffffff168152602001908152602001600020600301600054908060018154018082558091505090600182039060005260206000200160009091929091909150555050505050565b6060600260003373ffffffffffffffffffffffffffffffffffffffff1673ffffffffffffffffffffffffffffffffffffffff16815260200190815260200160002060030180548060200260200160405190810160405280929190818152602001828054801561096557602002820191906000526020600020905b815481526020019060010190808311610951575b5050505050905090565b6001602052806000526040600020600091509050806000015490806001018054600181600116156101000203166002900480601f016020809104026020016040519081016040528092919081815260200182805460018160011615610100020316600290048015610a215780601f106109f657610100808354040283529160200191610a21565b820191906000526020600020905b815481529060010190602001808311610a0457829003601f168201915b505050505090806002018054600181600116156101000203166002900480601f016020809104026020016040519081016040528092919081815260200182805460018160011615610100020316600290048015610abf5780601f10610a9457610100808354040283529160200191610abf565b820191906000526020600020905b815481529060010190602001808311610aa257829003601f168201915b505050505090806003018054600181600116156101000203166002900480601f016020809104026020016040519081016040528092919081815260200182805460018160011615610100020316600290048015610b5d5780601f10610b3257610100808354040283529160200191610b5d565b820191906000526020600020905b815481529060010190602001808311610b4057829003601f168201915b505050505090806004018054600181600116156101000203166002900480601f016020809104026020016040519081016040528092919081815260200182805460018160011615610100020316600290048015610bfb5780601f10610bd057610100808354040283529160200191610bfb565b820191906000526020600020905b815481529060010190602001808311610bde57829003601f168201915b5050505050908060050154905086565b6060600260003373ffffffffffffffffffffffffffffffffffffffff1673ffffffffffffffffffffffffffffffffffffffff1681526020019081526020016000206002018054600181600116156101000203166002900480601f016020809104026020016040519081016040528092919081815260200182805460018160011615610100020316600290048015610ce35780601f10610cb857610100808354040283529160200191610ce3565b820191906000526020600020905b815481529060010190602001808311610cc657829003601f168201915b5050505050905090565b606060016000838152602001908152602001600020600601805480602002602001604051908101604052809291908181526020016000905b82821015610ea55783829060005260206000209060030201604051806060016040529081600082018054600181600116156101000203166002900480601f016020809104026020016040519081016040528092919081815260200182805460018160011615610100020316600290048015610de15780601f10610db657610100808354040283529160200191610de1565b820191906000526020600020905b815481529060010190602001808311610dc457829003601f168201915b5050505050815260200160018201548152602001600282018054600181600116156101000203166002900480601f016020809104026020016040519081016040528092919081815260200182805460018160011615610100020316600290048015610e8d5780601f10610e6257610100808354040283529160200191610e8d565b820191906000526020600020905b815481529060010190602001808311610e7057829003601f168201915b50505050508152505081526020019060010190610d25565b505050509050919050565b60405180606001604052806060815260200160008152602001606081525090565b828054600181600116156101000203166002900490600052602060002090601f016020900481019282601f10610f1257805160ff1916838001178555610f40565b82800160010185558215610f40579182015b82811115610f3f578251825591602001919060010190610f24565b5b509050610f4d9190611058565b5090565b828054600181600116156101000203166002900490600052602060002090601f016020900481019282601f10610f9257805160ff1916838001178555610fc0565b82800160010185558215610fc0579182015b82811115610fbf578251825591602001919060010190610fa4565b5b509050610fcd9190611058565b5090565b828054600181600116156101000203166002900490600052602060002090601f016020900481019282601f1061100a5780548555611047565b8280016001018555821561104757600052602060002091601f016020900482015b8281111561104657825482559160010191906001019061102b565b5b5090506110549190611058565b5090565b61107a91905b8082111561107657600081600090555060010161105e565b5090565b90565b60008135905061108c81611907565b92915050565b600082601f8301126110a357600080fd5b81356110b66110b182611796565b611769565b915080825260208301602083018583830111156110d257600080fd5b6110dd8382846118b4565b50505092915050565b6000813590506110f58161191e565b92915050565b60006020828403121561110d57600080fd5b600061111b8482850161107d565b91505092915050565b60006020828403121561113657600080fd5b600082013567ffffffffffffffff81111561115057600080fd5b61115c84828501611092565b91505092915050565b6000806040838503121561117857600080fd5b600083013567ffffffffffffffff81111561119257600080fd5b61119e85828601611092565b925050602083013567ffffffffffffffff8111156111bb57600080fd5b6111c785828601611092565b9150509250929050565b600080600080608085870312156111e757600080fd5b600085013567ffffffffffffffff81111561120157600080fd5b61120d87828801611092565b945050602085013567ffffffffffffffff81111561122a57600080fd5b61123687828801611092565b935050604085013567ffffffffffffffff81111561125357600080fd5b61125f87828801611092565b9250506060611270878288016110e6565b91505092959194509250565b60006020828403121561128e57600080fd5b600061129c848285016110e6565b91505092915050565b600080600080608085870312156112bb57600080fd5b60006112c9878288016110e6565b94505060206112da878288016110e6565b935050604085013567ffffffffffffffff8111156112f757600080fd5b61130387828801611092565b925050606085013567ffffffffffffffff81111561132057600080fd5b61132c87828801611092565b91505092959194509250565b60006113448383611571565b905092915050565b600061135883836115c8565b60208301905092915050565b600061136f826117e2565b6113798185611828565b93508360208202850161138b856117c2565b8060005b858110156113c757848403895281516113a88582611338565b94506113b38361180e565b925060208a0199505060018101905061138f565b50829750879550505050505092915050565b60006113e4826117ed565b6113ee8185611839565b93506113f9836117d2565b8060005b8381101561142a578151611411888261134c565b975061141c8361181b565b9250506001810190506113fd565b5085935050505092915050565b6114408161187e565b82525050565b600061145182611803565b61145b818561185b565b935061146b8185602086016118c3565b611474816118f6565b840191505092915050565b600061148a826117f8565b611494818561184a565b93506114a48185602086016118c3565b6114ad816118f6565b840191505092915050565b60006114c3826117f8565b6114cd818561185b565b93506114dd8185602086016118c3565b6114e6816118f6565b840191505092915050565b60006114fe60188361185b565b91507f757365726e616d652063616e6e6f7420626520656d70747900000000000000006000830152602082019050919050565b600061153e60178361185b565b91507f757365726e616d6520697320616c7265616479207365740000000000000000006000830152602082019050919050565b6000606083016000830151848203600086015261158e828261147f565b91505060208301516115a360208601826115c8565b50604083015184820360408601526115bb828261147f565b9150508091505092915050565b6115d1816118aa565b82525050565b6115e0816118aa565b82525050565b600060208201905081810360008301526116008184611364565b905092915050565b6000602082019050818103600083015261162281846113d9565b905092915050565b600060608201905061163f6000830186611437565b818103602083015261165181856114b8565b9050818103604083015261166581846114b8565b9050949350505050565b600060208201905081810360008301526116898184611446565b905092915050565b600060208201905081810360008301526116aa816114f1565b9050919050565b600060208201905081810360008301526116ca81611531565b9050919050565b60006020820190506116e660008301846115d7565b92915050565b600060c08201905061170160008301896115d7565b818103602083015261171381886114b8565b9050818103604083015261172781876114b8565b9050818103606083015261173b81866114b8565b9050818103608083015261174f81856114b8565b905061175e60a08301846115d7565b979650505050505050565b6000604051905081810181811067ffffffffffffffff8211171561178c57600080fd5b8060405250919050565b600067ffffffffffffffff8211156117ad57600080fd5b601f19601f8301169050602081019050919050565b6000819050602082019050919050565b6000819050602082019050919050565b600081519050919050565b600081519050919050565b600081519050919050565b600081519050919050565b6000602082019050919050565b6000602082019050919050565b600082825260208201905092915050565b600082825260208201905092915050565b600082825260208201905092915050565b600082825260208201905092915050565b60006118778261188a565b9050919050565b60008115159050919050565b600073ffffffffffffffffffffffffffffffffffffffff82169050919050565b6000819050919050565b82818337600083830152505050565b60005b838110156118e15780820151818401526020810190506118c6565b838111156118f0576000848401525b50505050565b6000601f19601f8301169050919050565b6119108161186c565b811461191b57600080fd5b50565b611927816118aa565b811461193257600080fd5b5056fea365627a7a72315820701a6528d37746ac7e2f3e9a06d73e5e6b74f3779b16b99573ad801ecb7e45406c6578706572696d656e74616cf564736f6c63430005100040",
  "source": "// SPDX-License-Identifier: MIT\r\npragma solidity >=0.4.22 <0.9.0;\r\npragma experimental ABIEncoderV2;\r\n\r\ncontract AppStore {\r\n  uint public appsCount = 0; // state variable\r\n  //enum appCategory{ Education, Entertainment, News, Sports, Music, Shopping, Business}\r\n  struct ReviewAndRating{\r\n    string name;\r\n    uint rating;\r\n    string review;\r\n  }\r\n  struct AppData {\r\n    uint id;\r\n    string appName;\r\n    string category;\r\n    string appDescription;\r\n    string appDeveloper;\r\n    uint price;\r\n    ReviewAndRating [] reviews;\r\n  }\r\n\r\n  struct UserData {\r\n    bool isInit;\r\n    string userName;\r\n  \r\n    string downloadCode;\r\n    uint[] uploadedApps;\r\n  }\r\n  \r\n  constructor() public {\r\n  }\r\n  \r\n  mapping(uint => AppData) public apps;\r\n  mapping(address  => UserData) public userDictionary;\r\n\r\n  function getUserName()public view returns(string memory){\r\n    return userDictionary[msg.sender].userName;\r\n  }\r\n\r\n  function createApp(string memory _appName,string memory _category,string memory _appDescription,uint price) public {\r\n    appsCount++;\r\n  //  apps[appsCount]= AppData(appsCount, _appName, _category, _appDescription,userDictionary[msg.sender].userName ,price);\r\n    apps[appsCount].id=appsCount;\r\n    apps[appsCount].appName=_appName;\r\n    apps[appsCount].category=_category;\r\n    apps[appsCount].appDescription=_appDescription;\r\n    apps[appsCount].appDeveloper=userDictionary[msg.sender].userName;\r\n    apps[appsCount].price=price;\r\n    userDictionary[msg.sender].uploadedApps.push(appsCount);\r\n  }\r\n\r\n  function registerUser(string memory userName, string memory initDownloadCode)public{\r\n    require(bytes(userName).length!=0,\"username cannot be empty\");\r\n    require(bytes(userDictionary[msg.sender].userName).length==0,\"username is already set\");\r\n    userDictionary[msg.sender].userName=userName;\r\n    userDictionary[msg.sender].downloadCode=initDownloadCode;\r\n  }\r\n\r\n  function getUploadedApps() public view returns(uint[] memory){\r\n    return userDictionary[msg.sender].uploadedApps;\r\n  }\r\n\r\n  function getDownloadCode() public view returns(string memory){\r\n    return userDictionary[msg.sender].downloadCode;\r\n  }\r\n    function getReviews(uint appid) public view returns(ReviewAndRating [] memory ){\r\n    return apps[appid].reviews;\r\n  }\r\n\r\n  function updateDownloadCode(string memory newCode) public {\r\n    userDictionary[msg.sender].downloadCode = newCode;\r\n  }\r\n\r\n  function addReview(uint _appid,uint _rating,string memory _review,string memory _userName) public {\r\n      ReviewAndRating memory NewReview=ReviewAndRating(_userName  , _rating, _review);\r\n      apps[_appid].reviews.push(NewReview);\r\n  }\r\n}",
  "sourcePath": "E:\\8semester2022\\parallelProject\\DecentralizedAppStore\\AppStore\\src\\contracts\\contracts\\AppStore.sol",
  "compiler": {
    "name": "solc",
    "version": "0.5.16+commit.9c3226ce.Emscripten.clang"
  },
  "schemaVersion": "3.4.7",
  "updatedAt": "2022-09-25T16:44:44.492Z",
  "networkType": "ethereum",
  "devdoc": {
    "methods": {}
  },
  "userdoc": {
    "methods": {}
  }
}