{
  "contractName": "AppStore",
  "abi": [
    {
      "inputs": [],
      "payable": false,
      "stateMutability": "nonpayable",
      "type": "constructor"
    },
    {
      "constant": true,
      "inputs": [
        {
          "internalType": "uint256",
          "name": "",
          "type": "uint256"
        }
      ],
      "name": "apps",
      "outputs": [
        {
          "internalType": "uint256",
          "name": "id",
          "type": "uint256"
        },
        {
          "internalType": "string",
          "name": "appName",
          "type": "string"
        },
        {
          "internalType": "string",
          "name": "category",
          "type": "string"
        },
        {
          "internalType": "string",
          "name": "appDescription",
          "type": "string"
        },
        {
          "internalType": "string",
          "name": "appDeveloper",
          "type": "string"
        },
        {
          "internalType": "address",
          "name": "developerAddress",
          "type": "address"
        },
        {
          "internalType": "string",
          "name": "appLogoHash",
          "type": "string"
        },
        {
          "internalType": "uint256",
          "name": "price",
          "type": "uint256"
        }
      ],
      "payable": false,
      "stateMutability": "view",
      "type": "function"
    },
    {
      "constant": true,
      "inputs": [],
      "name": "appsCount",
      "outputs": [
        {
          "internalType": "uint256",
          "name": "",
          "type": "uint256"
        }
      ],
      "payable": false,
      "stateMutability": "view",
      "type": "function"
    },
    {
      "constant": true,
      "inputs": [
        {
          "internalType": "address",
          "name": "",
          "type": "address"
        }
      ],
      "name": "userDictionary",
      "outputs": [
        {
          "internalType": "bool",
          "name": "isInit",
          "type": "bool"
        },
        {
          "internalType": "string",
          "name": "userName",
          "type": "string"
        },
        {
          "internalType": "string",
          "name": "downloadCode",
          "type": "string"
        }
      ],
      "payable": false,
      "stateMutability": "view",
      "type": "function"
    },
    {
      "constant": false,
      "inputs": [
        {
          "internalType": "string",
          "name": "_appName",
          "type": "string"
        },
        {
          "internalType": "string",
          "name": "_category",
          "type": "string"
        },
        {
          "internalType": "string",
          "name": "_appDescription",
          "type": "string"
        },
        {
          "internalType": "uint256",
          "name": "price",
          "type": "uint256"
        },
        {
          "internalType": "string",
          "name": "_appLogoHash",
          "type": "string"
        }
      ],
      "name": "createApp",
      "outputs": [],
      "payable": false,
      "stateMutability": "nonpayable",
      "type": "function"
    },
    {
      "constant": false,
      "inputs": [
        {
          "internalType": "string",
          "name": "userName",
          "type": "string"
        },
        {
          "internalType": "string",
          "name": "initDownloadCode",
          "type": "string"
        }
      ],
      "name": "registerUser",
      "outputs": [],
      "payable": false,
      "stateMutability": "nonpayable",
      "type": "function"
    },
    {
      "constant": false,
      "inputs": [
        {
          "internalType": "uint256",
          "name": "_appid",
          "type": "uint256"
        },
        {
          "internalType": "uint256",
          "name": "_rating",
          "type": "uint256"
        },
        {
          "internalType": "string",
          "name": "_review",
          "type": "string"
        },
        {
          "internalType": "string",
          "name": "_userName",
          "type": "string"
        }
      ],
      "name": "addReview",
      "outputs": [],
      "payable": false,
      "stateMutability": "nonpayable",
      "type": "function"
    },
    {
      "constant": true,
      "inputs": [],
      "name": "getUserName",
      "outputs": [
        {
          "internalType": "string",
          "name": "",
          "type": "string"
        }
      ],
      "payable": false,
      "stateMutability": "view",
      "type": "function"
    },
    {
      "constant": true,
      "inputs": [],
      "name": "getUploadedApps",
      "outputs": [
        {
          "internalType": "uint256[]",
          "name": "",
          "type": "uint256[]"
        }
      ],
      "payable": false,
      "stateMutability": "view",
      "type": "function"
    },
    {
      "constant": true,
      "inputs": [],
      "name": "getDownloadCode",
      "outputs": [
        {
          "internalType": "string",
          "name": "",
          "type": "string"
        }
      ],
      "payable": false,
      "stateMutability": "view",
      "type": "function"
    },
    {
      "constant": true,
      "inputs": [
        {
          "internalType": "uint256",
          "name": "appid",
          "type": "uint256"
        }
      ],
      "name": "getReviews",
      "outputs": [
        {
          "components": [
            {
              "internalType": "string",
              "name": "name",
              "type": "string"
            },
            {
              "internalType": "uint256",
              "name": "rating",
              "type": "uint256"
            },
            {
              "internalType": "string",
              "name": "review",
              "type": "string"
            }
          ],
          "internalType": "struct AppStore.ReviewAndRating[]",
          "name": "",
          "type": "tuple[]"
        }
      ],
      "payable": false,
      "stateMutability": "view",
      "type": "function"
    },
    {
      "constant": false,
      "inputs": [
        {
          "internalType": "string",
          "name": "newCode",
          "type": "string"
        }
      ],
      "name": "updateDownloadCode",
      "outputs": [],
      "payable": false,
      "stateMutability": "nonpayable",
      "type": "function"
    }
  ],
  "bytecode": "0x60806040526000805534801561001457600080fd5b50611b20806100246000396000f3fe608060405234801561001057600080fd5b50600436106100a95760003560e01c80632e8236b9116100715780632e8236b9146101545780635a8505631461017057806361acc37e1461018e578063766289ed146101c557806385d4e88d146101e15780639d4a2255146101ff576100a9565b806312958f1c146100ae57806313657109146100cc57806318356f90146100e85780631d2e4afd1461011a5780632b5f387914610136575b600080fd5b6100b661022f565b6040516100c391906117f3565b60405180910390f35b6100e660048036036100e1919081019061141a565b610311565b005b61010260048036036100fd9190810190611244565b6103c6565b604051610111939291906117ae565b60405180910390f35b610134600480360361012f91908101906112ae565b61052d565b005b61013e6106bd565b60405161014b9190611855565b60405180910390f35b61016e6004803603610169919081019061126d565b6106c3565b005b61017861071d565b604051610185919061178c565b60405180910390f35b6101a860048036036101a391908101906113f1565b6107b5565b6040516101bc989796959493929190611870565b60405180910390f35b6101df60048036036101da919081019061131a565b610b15565b005b6101e9610d54565b6040516101f691906117f3565b60405180910390f35b610219600480360361021491908101906113f1565b610e36565b604051610226919061176a565b60405180910390f35b6060600260003373ffffffffffffffffffffffffffffffffffffffff1673ffffffffffffffffffffffffffffffffffffffff1681526020019081526020016000206001018054600181600116156101000203166002900480601f0160208091040260200160405190810160405280929190818152602001828054600181600116156101000203166002900480156103075780601f106102dc57610100808354040283529160200191610307565b820191906000526020600020905b8154815290600101906020018083116102ea57829003601f168201915b5050505050905090565b610319610ff9565b6040518060600160405280838152602001858152602001848152509050600160008681526020019081526020016000206008018190806001815401808255809150509060018203906000526020600020906003020160009091929091909150600082015181600001908051906020019061039492919061101a565b506020820151816001015560408201518160020190805190602001906103bb92919061101a565b505050505050505050565b60026020528060005260406000206000915090508060000160009054906101000a900460ff1690806001018054600181600116156101000203166002900480601f0160208091040260200160405190810160405280929190818152602001828054600181600116156101000203166002900480156104855780601f1061045a57610100808354040283529160200191610485565b820191906000526020600020905b81548152906001019060200180831161046857829003601f168201915b505050505090806002018054600181600116156101000203166002900480601f0160208091040260200160405190810160405280929190818152602001828054600181600116156101000203166002900480156105235780601f106104f857610100808354040283529160200191610523565b820191906000526020600020905b81548152906001019060200180831161050657829003601f168201915b5050505050905083565b600082511415610572576040517f08c379a000000000000000000000000000000000000000000000000000000000815260040161056990611815565b60405180910390fd5b6000600260003373ffffffffffffffffffffffffffffffffffffffff1673ffffffffffffffffffffffffffffffffffffffff1681526020019081526020016000206001018054600181600116156101000203166002900490501461060b576040517f08c379a000000000000000000000000000000000000000000000000000000000815260040161060290611835565b60405180910390fd5b81600260003373ffffffffffffffffffffffffffffffffffffffff1673ffffffffffffffffffffffffffffffffffffffff168152602001908152602001600020600101908051906020019061066192919061109a565b5080600260003373ffffffffffffffffffffffffffffffffffffffff1673ffffffffffffffffffffffffffffffffffffffff16815260200190815260200160002060020190805190602001906106b892919061109a565b505050565b60005481565b80600260003373ffffffffffffffffffffffffffffffffffffffff1673ffffffffffffffffffffffffffffffffffffffff168152602001908152602001600020600201908051906020019061071992919061109a565b5050565b6060600260003373ffffffffffffffffffffffffffffffffffffffff1673ffffffffffffffffffffffffffffffffffffffff1681526020019081526020016000206003018054806020026020016040519081016040528092919081815260200182805480156107ab57602002820191906000526020600020905b815481526020019060010190808311610797575b5050505050905090565b6001602052806000526040600020600091509050806000015490806001018054600181600116156101000203166002900480601f0160208091040260200160405190810160405280929190818152602001828054600181600116156101000203166002900480156108675780601f1061083c57610100808354040283529160200191610867565b820191906000526020600020905b81548152906001019060200180831161084a57829003601f168201915b505050505090806002018054600181600116156101000203166002900480601f0160208091040260200160405190810160405280929190818152602001828054600181600116156101000203166002900480156109055780601f106108da57610100808354040283529160200191610905565b820191906000526020600020905b8154815290600101906020018083116108e857829003601f168201915b505050505090806003018054600181600116156101000203166002900480601f0160208091040260200160405190810160405280929190818152602001828054600181600116156101000203166002900480156109a35780601f10610978576101008083540402835291602001916109a3565b820191906000526020600020905b81548152906001019060200180831161098657829003601f168201915b505050505090806004018054600181600116156101000203166002900480601f016020809104026020016040519081016040528092919081815260200182805460018160011615610100020316600290048015610a415780601f10610a1657610100808354040283529160200191610a41565b820191906000526020600020905b815481529060010190602001808311610a2457829003601f168201915b5050505050908060050160009054906101000a900473ffffffffffffffffffffffffffffffffffffffff1690806006018054600181600116156101000203166002900480601f016020809104026020016040519081016040528092919081815260200182805460018160011615610100020316600290048015610b055780601f10610ada57610100808354040283529160200191610b05565b820191906000526020600020905b815481529060010190602001808311610ae857829003601f168201915b5050505050908060070154905088565b60008081548092919060010191905055506000546001600080548152602001908152602001600020600001819055508460016000805481526020019081526020016000206001019080519060200190610b6f92919061109a565b508360016000805481526020019081526020016000206002019080519060200190610b9b92919061109a565b508260016000805481526020019081526020016000206003019080519060200190610bc792919061109a565b508060016000805481526020019081526020016000206006019080519060200190610bf392919061109a565b50600260003373ffffffffffffffffffffffffffffffffffffffff1673ffffffffffffffffffffffffffffffffffffffff16815260200190815260200160002060010160016000805481526020019081526020016000206004019080546001816001161561010002031660029004610c6c92919061111a565b508160016000805481526020019081526020016000206007018190555033600160008054815260200190815260200160002060050160006101000a81548173ffffffffffffffffffffffffffffffffffffffff021916908373ffffffffffffffffffffffffffffffffffffffff160217905550600260003373ffffffffffffffffffffffffffffffffffffffff1673ffffffffffffffffffffffffffffffffffffffff16815260200190815260200160002060030160005490806001815401808255809150509060018203906000526020600020016000909192909190915055505050505050565b6060600260003373ffffffffffffffffffffffffffffffffffffffff1673ffffffffffffffffffffffffffffffffffffffff1681526020019081526020016000206002018054600181600116156101000203166002900480601f016020809104026020016040519081016040528092919081815260200182805460018160011615610100020316600290048015610e2c5780601f10610e0157610100808354040283529160200191610e2c565b820191906000526020600020905b815481529060010190602001808311610e0f57829003601f168201915b5050505050905090565b606060016000838152602001908152602001600020600801805480602002602001604051908101604052809291908181526020016000905b82821015610fee5783829060005260206000209060030201604051806060016040529081600082018054600181600116156101000203166002900480601f016020809104026020016040519081016040528092919081815260200182805460018160011615610100020316600290048015610f2a5780601f10610eff57610100808354040283529160200191610f2a565b820191906000526020600020905b815481529060010190602001808311610f0d57829003601f168201915b5050505050815260200160018201548152602001600282018054600181600116156101000203166002900480601f016020809104026020016040519081016040528092919081815260200182805460018160011615610100020316600290048015610fd65780601f10610fab57610100808354040283529160200191610fd6565b820191906000526020600020905b815481529060010190602001808311610fb957829003601f168201915b50505050508152505081526020019060010190610e6e565b505050509050919050565b60405180606001604052806060815260200160008152602001606081525090565b828054600181600116156101000203166002900490600052602060002090601f016020900481019282601f1061105b57805160ff1916838001178555611089565b82800160010185558215611089579182015b8281111561108857825182559160200191906001019061106d565b5b50905061109691906111a1565b5090565b828054600181600116156101000203166002900490600052602060002090601f016020900481019282601f106110db57805160ff1916838001178555611109565b82800160010185558215611109579182015b828111156111085782518255916020019190600101906110ed565b5b50905061111691906111a1565b5090565b828054600181600116156101000203166002900490600052602060002090601f016020900481019282601f106111535780548555611190565b8280016001018555821561119057600052602060002091601f016020900482015b8281111561118f578254825591600101919060010190611174565b5b50905061119d91906111a1565b5090565b6111c391905b808211156111bf5760008160009055506001016111a7565b5090565b90565b6000813590506111d581611aaf565b92915050565b600082601f8301126111ec57600080fd5b81356111ff6111fa8261193e565b611911565b9150808252602083016020830185838301111561121b57600080fd5b611226838284611a5c565b50505092915050565b60008135905061123e81611ac6565b92915050565b60006020828403121561125657600080fd5b6000611264848285016111c6565b91505092915050565b60006020828403121561127f57600080fd5b600082013567ffffffffffffffff81111561129957600080fd5b6112a5848285016111db565b91505092915050565b600080604083850312156112c157600080fd5b600083013567ffffffffffffffff8111156112db57600080fd5b6112e7858286016111db565b925050602083013567ffffffffffffffff81111561130457600080fd5b611310858286016111db565b9150509250929050565b600080600080600060a0868803121561133257600080fd5b600086013567ffffffffffffffff81111561134c57600080fd5b611358888289016111db565b955050602086013567ffffffffffffffff81111561137557600080fd5b611381888289016111db565b945050604086013567ffffffffffffffff81111561139e57600080fd5b6113aa888289016111db565b93505060606113bb8882890161122f565b925050608086013567ffffffffffffffff8111156113d857600080fd5b6113e4888289016111db565b9150509295509295909350565b60006020828403121561140357600080fd5b60006114118482850161122f565b91505092915050565b6000806000806080858703121561143057600080fd5b600061143e8782880161122f565b945050602061144f8782880161122f565b935050604085013567ffffffffffffffff81111561146c57600080fd5b611478878288016111db565b925050606085013567ffffffffffffffff81111561149557600080fd5b6114a1878288016111db565b91505092959194509250565b60006114b983836116f5565b905092915050565b60006114cd838361174c565b60208301905092915050565b6114e281611a14565b82525050565b60006114f38261198a565b6114fd81856119d0565b93508360208202850161150f8561196a565b8060005b8581101561154b578484038952815161152c85826114ad565b9450611537836119b6565b925060208a01995050600181019050611513565b50829750879550505050505092915050565b600061156882611995565b61157281856119e1565b935061157d8361197a565b8060005b838110156115ae57815161159588826114c1565b97506115a0836119c3565b925050600181019050611581565b5085935050505092915050565b6115c481611a26565b82525050565b60006115d5826119ab565b6115df8185611a03565b93506115ef818560208601611a6b565b6115f881611a9e565b840191505092915050565b600061160e826119a0565b61161881856119f2565b9350611628818560208601611a6b565b61163181611a9e565b840191505092915050565b6000611647826119a0565b6116518185611a03565b9350611661818560208601611a6b565b61166a81611a9e565b840191505092915050565b6000611682601883611a03565b91507f757365726e616d652063616e6e6f7420626520656d70747900000000000000006000830152602082019050919050565b60006116c2601783611a03565b91507f757365726e616d6520697320616c7265616479207365740000000000000000006000830152602082019050919050565b600060608301600083015184820360008601526117128282611603565b9150506020830151611727602086018261174c565b506040830151848203604086015261173f8282611603565b9150508091505092915050565b61175581611a52565b82525050565b61176481611a52565b82525050565b6000602082019050818103600083015261178481846114e8565b905092915050565b600060208201905081810360008301526117a6818461155d565b905092915050565b60006060820190506117c360008301866115bb565b81810360208301526117d5818561163c565b905081810360408301526117e9818461163c565b9050949350505050565b6000602082019050818103600083015261180d81846115ca565b905092915050565b6000602082019050818103600083015261182e81611675565b9050919050565b6000602082019050818103600083015261184e816116b5565b9050919050565b600060208201905061186a600083018461175b565b92915050565b600061010082019050611886600083018b61175b565b8181036020830152611898818a61163c565b905081810360408301526118ac818961163c565b905081810360608301526118c0818861163c565b905081810360808301526118d4818761163c565b90506118e360a08301866114d9565b81810360c08301526118f5818561163c565b905061190460e083018461175b565b9998505050505050505050565b6000604051905081810181811067ffffffffffffffff8211171561193457600080fd5b8060405250919050565b600067ffffffffffffffff82111561195557600080fd5b601f19601f8301169050602081019050919050565b6000819050602082019050919050565b6000819050602082019050919050565b600081519050919050565b600081519050919050565b600081519050919050565b600081519050919050565b6000602082019050919050565b6000602082019050919050565b600082825260208201905092915050565b600082825260208201905092915050565b600082825260208201905092915050565b600082825260208201905092915050565b6000611a1f82611a32565b9050919050565b60008115159050919050565b600073ffffffffffffffffffffffffffffffffffffffff82169050919050565b6000819050919050565b82818337600083830152505050565b60005b83811015611a89578082015181840152602081019050611a6e565b83811115611a98576000848401525b50505050565b6000601f19601f8301169050919050565b611ab881611a14565b8114611ac357600080fd5b50565b611acf81611a52565b8114611ada57600080fd5b5056fea365627a7a72315820c7f78eceb001da493c8755a6e41c700e651042246ab715e9304b270cd505b64d6c6578706572696d656e74616cf564736f6c63430005100040",
  "source": "// SPDX-License-Identifier: MIT\r\npragma solidity >=0.4.22 <0.9.0;\r\npragma experimental ABIEncoderV2;\r\n\r\ncontract AppStore {\r\n  uint public appsCount = 0; // state variable\r\n  //enum appCategory{ Education, Entertainment, News, Sports, Music, Shopping, Business}\r\n  struct ReviewAndRating{\r\n    string name;\r\n    uint rating;\r\n    string review;\r\n  }\r\n  struct AppData {\r\n    uint id;\r\n    string appName;\r\n    string category;\r\n    string appDescription;\r\n    string appDeveloper;\r\n    address developerAddress;\r\n    string appLogoHash;\r\n    uint price;\r\n    ReviewAndRating [] reviews;\r\n  }\r\n\r\n  struct UserData {\r\n    bool isInit;\r\n    string userName;\r\n  \r\n    string downloadCode;\r\n    uint[] uploadedApps;\r\n  }\r\n  \r\n  constructor() public {\r\n  }\r\n  \r\n  mapping(uint => AppData) public apps;\r\n  mapping(address  => UserData) public userDictionary;\r\n\r\n  function createApp(string memory _appName,string memory _category,string memory _appDescription,uint price,string memory _appLogoHash) public {\r\n    appsCount++;\r\n  //  apps[appsCount]= AppData(appsCount, _appName, _category, _appDescription,userDictionary[msg.sender].userName ,price);\r\n    apps[appsCount].id=appsCount;\r\n    apps[appsCount].appName=_appName;\r\n    apps[appsCount].category=_category;\r\n    apps[appsCount].appDescription=_appDescription;\r\n    apps[appsCount].appLogoHash=_appLogoHash;\r\n    apps[appsCount].appDeveloper=userDictionary[msg.sender].userName;\r\n    apps[appsCount].price=price;\r\n    apps[appsCount].developerAddress=msg.sender;\r\n    userDictionary[msg.sender].uploadedApps.push(appsCount);\r\n  }\r\n\r\n  function registerUser(string memory userName, string memory initDownloadCode)public{\r\n    require(bytes(userName).length!=0,\"username cannot be empty\");\r\n    require(bytes(userDictionary[msg.sender].userName).length==0,\"username is already set\");\r\n    userDictionary[msg.sender].userName=userName;\r\n    userDictionary[msg.sender].downloadCode=initDownloadCode;\r\n  }\r\n\r\n\r\n  function addReview(uint _appid,uint _rating,string memory _review,string memory _userName) public {\r\n //   require(msg.sender!=apps[_appid].developerAddress,'you cannot rate your app!');\r\n    ReviewAndRating memory NewReview=ReviewAndRating(_userName  , _rating, _review);\r\n    apps[_appid].reviews.push(NewReview);\r\n  }\r\n\r\n  function getUserName()public view returns(string memory){\r\n    return userDictionary[msg.sender].userName;\r\n  }\r\n\r\n  function getUploadedApps() public view returns(uint[] memory){\r\n    return userDictionary[msg.sender].uploadedApps;\r\n  }\r\n\r\n  function getDownloadCode() public view returns(string memory){\r\n    return userDictionary[msg.sender].downloadCode;\r\n  }\r\n    function getReviews(uint appid) public view returns(ReviewAndRating [] memory ){\r\n    return apps[appid].reviews;\r\n  }\r\n\r\n  function updateDownloadCode(string memory newCode) public {\r\n    userDictionary[msg.sender].downloadCode = newCode;\r\n  }\r\n}",
  "sourcePath": "E:\\8semester2022\\parallelProject\\DecentralizedAppStore\\AppStore\\src\\contracts\\contracts\\AppStore.sol",
  "compiler": {
    "name": "solc",
    "version": "0.5.16+commit.9c3226ce.Emscripten.clang"
  },
  "schemaVersion": "3.4.7",
  "updatedAt": "2022-10-30T21:44:36.524Z",
  "networkType": "ethereum",
  "devdoc": {
    "methods": {}
  },
  "userdoc": {
    "methods": {}
  }
}