{
  "contractName": "AppStore",
  "abi": [
    {
      "constant": true,
      "inputs": [
        {
          "internalType": "uint256",
          "name": "",
          "type": "uint256"
        }
      ],
      "name": "apps",
      "outputs": [
        {
          "internalType": "uint256",
          "name": "id",
          "type": "uint256"
        },
        {
          "internalType": "string",
          "name": "appName",
          "type": "string"
        },
        {
          "internalType": "string",
          "name": "category",
          "type": "string"
        },
        {
          "internalType": "string",
          "name": "appDescription",
          "type": "string"
        },
        {
          "internalType": "string",
          "name": "appDeveloper",
          "type": "string"
        },
        {
          "internalType": "address",
          "name": "developerAddress",
          "type": "address"
        },
        {
          "internalType": "string",
          "name": "appLogoHash",
          "type": "string"
        },
        {
          "internalType": "string",
          "name": "appFileHash",
          "type": "string"
        },
        {
          "internalType": "uint256",
          "name": "price",
          "type": "uint256"
        }
      ],
      "payable": false,
      "stateMutability": "view",
      "type": "function"
    },
    {
      "constant": true,
      "inputs": [],
      "name": "appsCount",
      "outputs": [
        {
          "internalType": "uint256",
          "name": "",
          "type": "uint256"
        }
      ],
      "payable": false,
      "stateMutability": "view",
      "type": "function"
    },
    {
      "constant": true,
      "inputs": [
        {
          "internalType": "address",
          "name": "",
          "type": "address"
        }
      ],
      "name": "userDictionary",
      "outputs": [
        {
          "internalType": "bool",
          "name": "isInit",
          "type": "bool"
        },
        {
          "internalType": "string",
          "name": "userName",
          "type": "string"
        },
        {
          "internalType": "string",
          "name": "downloadCode",
          "type": "string"
        }
      ],
      "payable": false,
      "stateMutability": "view",
      "type": "function"
    },
    {
      "constant": false,
      "inputs": [
        {
          "internalType": "string",
          "name": "_appName",
          "type": "string"
        },
        {
          "internalType": "string",
          "name": "_category",
          "type": "string"
        },
        {
          "internalType": "string",
          "name": "_appDescription",
          "type": "string"
        },
        {
          "internalType": "uint256",
          "name": "price",
          "type": "uint256"
        },
        {
          "internalType": "string",
          "name": "_appLogoHash",
          "type": "string"
        },
        {
          "internalType": "string",
          "name": "_appFileHash",
          "type": "string"
        }
      ],
      "name": "createApp",
      "outputs": [],
      "payable": false,
      "stateMutability": "nonpayable",
      "type": "function"
    },
    {
      "constant": false,
      "inputs": [
        {
          "internalType": "string",
          "name": "_userName",
          "type": "string"
        },
        {
          "internalType": "string",
          "name": "initDownloadCode",
          "type": "string"
        }
      ],
      "name": "registerUser",
      "outputs": [],
      "payable": false,
      "stateMutability": "nonpayable",
      "type": "function"
    },
    {
      "constant": false,
      "inputs": [
        {
          "internalType": "uint256",
          "name": "_appid",
          "type": "uint256"
        },
        {
          "internalType": "uint256",
          "name": "_rating",
          "type": "uint256"
        },
        {
          "internalType": "string",
          "name": "_review",
          "type": "string"
        },
        {
          "internalType": "bool",
          "name": "isAnonymous",
          "type": "bool"
        }
      ],
      "name": "addReview",
      "outputs": [],
      "payable": false,
      "stateMutability": "nonpayable",
      "type": "function"
    },
    {
      "constant": true,
      "inputs": [
        {
          "internalType": "address",
          "name": "_user",
          "type": "address"
        }
      ],
      "name": "isNewUser",
      "outputs": [
        {
          "internalType": "bool",
          "name": "",
          "type": "bool"
        }
      ],
      "payable": false,
      "stateMutability": "view",
      "type": "function"
    },
    {
      "constant": true,
      "inputs": [
        {
          "internalType": "address",
          "name": "_user",
          "type": "address"
        }
      ],
      "name": "getUserName",
      "outputs": [
        {
          "internalType": "string",
          "name": "",
          "type": "string"
        }
      ],
      "payable": false,
      "stateMutability": "view",
      "type": "function"
    },
    {
      "constant": true,
      "inputs": [
        {
          "internalType": "address",
          "name": "_user",
          "type": "address"
        }
      ],
      "name": "getUploadedApps",
      "outputs": [
        {
          "internalType": "uint256[]",
          "name": "",
          "type": "uint256[]"
        }
      ],
      "payable": false,
      "stateMutability": "view",
      "type": "function"
    },
    {
      "constant": true,
      "inputs": [
        {
          "internalType": "address",
          "name": "_user",
          "type": "address"
        }
      ],
      "name": "getDownloadCode",
      "outputs": [
        {
          "internalType": "string",
          "name": "",
          "type": "string"
        }
      ],
      "payable": false,
      "stateMutability": "view",
      "type": "function"
    },
    {
      "constant": true,
      "inputs": [
        {
          "internalType": "uint256",
          "name": "appid",
          "type": "uint256"
        }
      ],
      "name": "getReviews",
      "outputs": [
        {
          "components": [
            {
              "internalType": "string",
              "name": "name",
              "type": "string"
            },
            {
              "internalType": "address",
              "name": "evaluaterAddress",
              "type": "address"
            },
            {
              "internalType": "uint256",
              "name": "rating",
              "type": "uint256"
            },
            {
              "internalType": "string",
              "name": "review",
              "type": "string"
            }
          ],
          "internalType": "struct AppStore.ReviewAndRating[]",
          "name": "",
          "type": "tuple[]"
        }
      ],
      "payable": false,
      "stateMutability": "view",
      "type": "function"
    },
    {
      "constant": false,
      "inputs": [
        {
          "internalType": "string",
          "name": "newCode",
          "type": "string"
        }
      ],
      "name": "updateDownloadCode",
      "outputs": [],
      "payable": false,
      "stateMutability": "nonpayable",
      "type": "function"
    }
  ],
  "bytecode": "0x6080604052600060025534801561001557600080fd5b506124b2806100256000396000f3fe608060405234801561001057600080fd5b50600436106100b45760003560e01c806361acc37e1161007157806361acc37e1461018d5780638e7cb2ea146101c55780639d4a2255146101e1578063b0d7959914610211578063d84f55ee14610241578063f1144c6d14610271576100b4565b806318356f90146100b95780631d2e4afd146100eb5780632b5f3879146101075780632e5c306b146101255780632e8236b9146101415780634facffd91461015d575b600080fd5b6100d360048036036100ce9190810190611903565b6102a1565b6040516100e293929190612093565b60405180910390f35b6101056004803603610100919081019061196d565b610408565b005b61010f6105f2565b60405161011c919061219a565b60405180910390f35b61013f600480360361013a9190810190611b03565b6105f8565b005b61015b6004803603610156919081019061192c565b6109c2565b005b61017760048036036101729190810190611903565b610a1c565b60405161018491906120d8565b60405180910390f35b6101a760048036036101a29190810190611ada565b610b00565b6040516101bc999897969594939291906121b5565b60405180910390f35b6101df60048036036101da91908101906119d9565b610efe565b005b6101fb60048036036101f69190810190611ada565b611296565b6040516102089190612034565b60405180910390f35b61022b60048036036102269190810190611903565b6114ae565b6040516102389190612056565b60405180910390f35b61025b60048036036102569190810190611903565b611548565b60405161026891906120d8565b60405180910390f35b61028b60048036036102869190810190611903565b61162c565b6040516102989190612078565b60405180910390f35b60016020528060005260406000206000915090508060000160009054906101000a900460ff1690806001018054600181600116156101000203166002900480601f0160208091040260200160405190810160405280929190818152602001828054600181600116156101000203166002900480156103605780601f1061033557610100808354040283529160200191610360565b820191906000526020600020905b81548152906001019060200180831161034357829003601f168201915b505050505090806002018054600181600116156101000203166002900480601f0160208091040260200160405190810160405280929190818152602001828054600181600116156101000203166002900480156103fe5780601f106103d3576101008083540402835291602001916103fe565b820191906000526020600020905b8154815290600101906020018083116103e157829003601f168201915b5050505050905083565b60008251141561044d576040517f08c379a00000000000000000000000000000000000000000000000000000000081526004016104449061211a565b60405180910390fd5b6000600160003373ffffffffffffffffffffffffffffffffffffffff1673ffffffffffffffffffffffffffffffffffffffff168152602001908152602001600020600101805460018160011615610100020316600290049050146104e6576040517f08c379a00000000000000000000000000000000000000000000000000000000081526004016104dd906120fa565b60405180910390fd5b81600160003373ffffffffffffffffffffffffffffffffffffffff1673ffffffffffffffffffffffffffffffffffffffff168152602001908152602001600020600101908051906020019061053c929190611686565b5060018060003373ffffffffffffffffffffffffffffffffffffffff1673ffffffffffffffffffffffffffffffffffffffff16815260200190815260200160002060000160006101000a81548160ff02191690831515021790555080600160003373ffffffffffffffffffffffffffffffffffffffff1673ffffffffffffffffffffffffffffffffffffffff16815260200190815260200160002060020190805190602001906105ed929190611686565b505050565b60025481565b60008085815260200190815260200160002060050160009054906101000a900473ffffffffffffffffffffffffffffffffffffffff1673ffffffffffffffffffffffffffffffffffffffff163373ffffffffffffffffffffffffffffffffffffffff16141561069c576040517f08c379a00000000000000000000000000000000000000000000000000000000081526004016106939061217a565b60405180910390fd5b60008090505b6000808681526020019081526020016000206009018054905081101561078f573373ffffffffffffffffffffffffffffffffffffffff1660008087815260200190815260200160002060090182815481106106f957fe5b906000526020600020906004020160010160009054906101000a900473ffffffffffffffffffffffffffffffffffffffff1673ffffffffffffffffffffffffffffffffffffffff161415610782576040517f08c379a00000000000000000000000000000000000000000000000000000000081526004016107799061213a565b60405180910390fd5b80806001019150506106a2565b50610798611706565b60405180608001604052808361088857600160003373ffffffffffffffffffffffffffffffffffffffff1673ffffffffffffffffffffffffffffffffffffffff1681526020019081526020016000206001018054600181600116156101000203166002900480601f01602080910402602001604051908101604052809291908181526020018280546001816001161561010002031660029004801561087e5780601f106108535761010080835404028352916020019161087e565b820191906000526020600020905b81548152906001019060200180831161086157829003601f168201915b50505050506108bf565b6040518060400160405280600981526020017f416e6f6e796d6f757300000000000000000000000000000000000000000000008152505b81526020013373ffffffffffffffffffffffffffffffffffffffff16815260200185815260200184815250905060008086815260200190815260200160002060090181908060018154018082558091505090600182039060005260206000209060040201600090919290919091506000820151816000019080519060200190610949929190611744565b5060208201518160010160006101000a81548173ffffffffffffffffffffffffffffffffffffffff021916908373ffffffffffffffffffffffffffffffffffffffff1602179055506040820151816002015560608201518160030190805190602001906109b7929190611744565b505050505050505050565b80600160003373ffffffffffffffffffffffffffffffffffffffff1673ffffffffffffffffffffffffffffffffffffffff1681526020019081526020016000206002019080519060200190610a18929190611686565b5050565b6060600160008373ffffffffffffffffffffffffffffffffffffffff1673ffffffffffffffffffffffffffffffffffffffff1681526020019081526020016000206002018054600181600116156101000203166002900480601f016020809104026020016040519081016040528092919081815260200182805460018160011615610100020316600290048015610af45780601f10610ac957610100808354040283529160200191610af4565b820191906000526020600020905b815481529060010190602001808311610ad757829003601f168201915b50505050509050919050565b6000602052806000526040600020600091509050806000015490806001018054600181600116156101000203166002900480601f016020809104026020016040519081016040528092919081815260200182805460018160011615610100020316600290048015610bb25780601f10610b8757610100808354040283529160200191610bb2565b820191906000526020600020905b815481529060010190602001808311610b9557829003601f168201915b505050505090806002018054600181600116156101000203166002900480601f016020809104026020016040519081016040528092919081815260200182805460018160011615610100020316600290048015610c505780601f10610c2557610100808354040283529160200191610c50565b820191906000526020600020905b815481529060010190602001808311610c3357829003601f168201915b505050505090806003018054600181600116156101000203166002900480601f016020809104026020016040519081016040528092919081815260200182805460018160011615610100020316600290048015610cee5780601f10610cc357610100808354040283529160200191610cee565b820191906000526020600020905b815481529060010190602001808311610cd157829003601f168201915b505050505090806004018054600181600116156101000203166002900480601f016020809104026020016040519081016040528092919081815260200182805460018160011615610100020316600290048015610d8c5780601f10610d6157610100808354040283529160200191610d8c565b820191906000526020600020905b815481529060010190602001808311610d6f57829003601f168201915b5050505050908060050160009054906101000a900473ffffffffffffffffffffffffffffffffffffffff1690806006018054600181600116156101000203166002900480601f016020809104026020016040519081016040528092919081815260200182805460018160011615610100020316600290048015610e505780601f10610e2557610100808354040283529160200191610e50565b820191906000526020600020905b815481529060010190602001808311610e3357829003601f168201915b505050505090806007018054600181600116156101000203166002900480601f016020809104026020016040519081016040528092919081815260200182805460018160011615610100020316600290048015610eee5780601f10610ec357610100808354040283529160200191610eee565b820191906000526020600020905b815481529060010190602001808311610ed157829003601f168201915b5050505050908060080154905089565b60008090505b600160003373ffffffffffffffffffffffffffffffffffffffff1673ffffffffffffffffffffffffffffffffffffffff16815260200190815260200160002060030180549050811015611028578680519060200120600080600160003373ffffffffffffffffffffffffffffffffffffffff1673ffffffffffffffffffffffffffffffffffffffff1681526020019081526020016000206003018481548110610fa957fe5b90600052602060002001548152602001908152602001600020600101604051610fd2919061201d565b6040518091039020141561101b576040517f08c379a00000000000000000000000000000000000000000000000000000000081526004016110129061215a565b60405180910390fd5b8080600101915050610f04565b506002600081548092919060010191905055506002546000806002548152602001908152602001600020600001819055508560008060025481526020019081526020016000206001019080519060200190611084929190611686565b5084600080600254815260200190815260200160002060020190805190602001906110b0929190611686565b5083600080600254815260200190815260200160002060030190805190602001906110dc929190611686565b508160008060025481526020019081526020016000206006019080519060200190611108929190611686565b508060008060025481526020019081526020016000206007019080519060200190611134929190611686565b50600160003373ffffffffffffffffffffffffffffffffffffffff1673ffffffffffffffffffffffffffffffffffffffff168152602001908152602001600020600101600080600254815260200190815260200160002060040190805460018160011615610100020316600290046111ad9291906117c4565b508260008060025481526020019081526020016000206008018190555033600080600254815260200190815260200160002060050160006101000a81548173ffffffffffffffffffffffffffffffffffffffff021916908373ffffffffffffffffffffffffffffffffffffffff160217905550600160003373ffffffffffffffffffffffffffffffffffffffff1673ffffffffffffffffffffffffffffffffffffffff1681526020019081526020016000206003016002549080600181540180825580915050906001820390600052602060002001600090919290919091505550505050505050565b6060600080838152602001908152602001600020600901805480602002602001604051908101604052809291908181526020016000905b828210156114a35783829060005260206000209060040201604051806080016040529081600082018054600181600116156101000203166002900480601f0160208091040260200160405190810160405280929190818152602001828054600181600116156101000203166002900480156113895780601f1061135e57610100808354040283529160200191611389565b820191906000526020600020905b81548152906001019060200180831161136c57829003601f168201915b505050505081526020016001820160009054906101000a900473ffffffffffffffffffffffffffffffffffffffff1673ffffffffffffffffffffffffffffffffffffffff1673ffffffffffffffffffffffffffffffffffffffff16815260200160028201548152602001600382018054600181600116156101000203166002900480601f01602080910402602001604051908101604052809291908181526020018280546001816001161561010002031660029004801561148b5780601f106114605761010080835404028352916020019161148b565b820191906000526020600020905b81548152906001019060200180831161146e57829003601f168201915b505050505081525050815260200190600101906112cd565b505050509050919050565b6060600160008373ffffffffffffffffffffffffffffffffffffffff1673ffffffffffffffffffffffffffffffffffffffff16815260200190815260200160002060030180548060200260200160405190810160405280929190818152602001828054801561153c57602002820191906000526020600020905b815481526020019060010190808311611528575b50505050509050919050565b6060600160008373ffffffffffffffffffffffffffffffffffffffff1673ffffffffffffffffffffffffffffffffffffffff1681526020019081526020016000206001018054600181600116156101000203166002900480601f0160208091040260200160405190810160405280929190818152602001828054600181600116156101000203166002900480156116205780601f106115f557610100808354040283529160200191611620565b820191906000526020600020905b81548152906001019060200180831161160357829003601f168201915b50505050509050919050565b6000600160008373ffffffffffffffffffffffffffffffffffffffff1673ffffffffffffffffffffffffffffffffffffffff16815260200190815260200160002060000160009054906101000a900460ff16159050919050565b828054600181600116156101000203166002900490600052602060002090601f016020900481019282601f106116c757805160ff19168380011785556116f5565b828001600101855582156116f5579182015b828111156116f45782518255916020019190600101906116d9565b5b509050611702919061184b565b5090565b604051806080016040528060608152602001600073ffffffffffffffffffffffffffffffffffffffff16815260200160008152602001606081525090565b828054600181600116156101000203166002900490600052602060002090601f016020900481019282601f1061178557805160ff19168380011785556117b3565b828001600101855582156117b3579182015b828111156117b2578251825591602001919060010190611797565b5b5090506117c0919061184b565b5090565b828054600181600116156101000203166002900490600052602060002090601f016020900481019282601f106117fd578054855561183a565b8280016001018555821561183a57600052602060002091601f016020900482015b8281111561183957825482559160010191906001019061181e565b5b509050611847919061184b565b5090565b61186d91905b80821115611869576000816000905550600101611851565b5090565b90565b60008135905061187f8161242a565b92915050565b60008135905061189481612441565b92915050565b600082601f8301126118ab57600080fd5b81356118be6118b982612299565b61226c565b915080825260208301602083018583830111156118da57600080fd5b6118e58382846123d7565b50505092915050565b6000813590506118fd81612458565b92915050565b60006020828403121561191557600080fd5b600061192384828501611870565b91505092915050565b60006020828403121561193e57600080fd5b600082013567ffffffffffffffff81111561195857600080fd5b6119648482850161189a565b91505092915050565b6000806040838503121561198057600080fd5b600083013567ffffffffffffffff81111561199a57600080fd5b6119a68582860161189a565b925050602083013567ffffffffffffffff8111156119c357600080fd5b6119cf8582860161189a565b9150509250929050565b60008060008060008060c087890312156119f257600080fd5b600087013567ffffffffffffffff811115611a0c57600080fd5b611a1889828a0161189a565b965050602087013567ffffffffffffffff811115611a3557600080fd5b611a4189828a0161189a565b955050604087013567ffffffffffffffff811115611a5e57600080fd5b611a6a89828a0161189a565b9450506060611a7b89828a016118ee565b935050608087013567ffffffffffffffff811115611a9857600080fd5b611aa489828a0161189a565b92505060a087013567ffffffffffffffff811115611ac157600080fd5b611acd89828a0161189a565b9150509295509295509295565b600060208284031215611aec57600080fd5b6000611afa848285016118ee565b91505092915050565b60008060008060808587031215611b1957600080fd5b6000611b27878288016118ee565b9450506020611b38878288016118ee565b935050604085013567ffffffffffffffff811115611b5557600080fd5b611b618782880161189a565b9250506060611b7287828801611885565b91505092959194509250565b6000611b8a8383611f95565b905092915050565b6000611b9e8383611fff565b60208301905092915050565b611bb38161238f565b82525050565b611bc28161238f565b82525050565b6000611bd3826122fa565b611bdd8185612340565b935083602082028501611bef856122c5565b8060005b85811015611c2b5784840389528151611c0c8582611b7e565b9450611c1783612326565b925060208a01995050600181019050611bf3565b50829750879550505050505092915050565b6000611c4882612305565b611c528185612351565b9350611c5d836122d5565b8060005b83811015611c8e578151611c758882611b92565b9750611c8083612333565b925050600181019050611c61565b5085935050505092915050565b611ca4816123a1565b82525050565b600081546001811660008114611cc75760018114611cec57611d30565b607f6002830416611cd88187612362565b955060ff1983168652808601935050611d30565b60028204611cfa8187612362565b9550611d05856122e5565b60005b82811015611d2757815481890152600182019150602081019050611d08565b82880195505050505b505092915050565b6000611d438261231b565b611d4d818561237e565b9350611d5d8185602086016123e6565b611d6681612419565b840191505092915050565b6000611d7c82612310565b611d86818561236d565b9350611d968185602086016123e6565b611d9f81612419565b840191505092915050565b6000611db582612310565b611dbf818561237e565b9350611dcf8185602086016123e6565b611dd881612419565b840191505092915050565b6000611df060238361237e565b91507f74686973206163636f756e7420697320616c726561647920726567697374657260008301527f65642100000000000000000000000000000000000000000000000000000000006020830152604082019050919050565b6000611e5660188361237e565b91507f757365726e616d652063616e6e6f7420626520656d70747900000000000000006000830152602082019050919050565b6000611e9660228361237e565b91507f796f752063616e20726576696577207468697320617070206f6e6c79206f6e6360008301527f65210000000000000000000000000000000000000000000000000000000000006020830152604082019050919050565b6000611efc602c8361237e565b91507f796f7520616c7265616479207075626c697368656420616e206170702077697460008301527f682074686973206e616d652100000000000000000000000000000000000000006020830152604082019050919050565b6000611f62601b8361237e565b91507f796f752063616e6e6f742072657669657720796f7572206170702100000000006000830152602082019050919050565b60006080830160008301518482036000860152611fb28282611d71565b9150506020830151611fc76020860182611baa565b506040830151611fda6040860182611fff565b5060608301518482036060860152611ff28282611d71565b9150508091505092915050565b612008816123cd565b82525050565b612017816123cd565b82525050565b60006120298284611caa565b915081905092915050565b6000602082019050818103600083015261204e8184611bc8565b905092915050565b600060208201905081810360008301526120708184611c3d565b905092915050565b600060208201905061208d6000830184611c9b565b92915050565b60006060820190506120a86000830186611c9b565b81810360208301526120ba8185611daa565b905081810360408301526120ce8184611daa565b9050949350505050565b600060208201905081810360008301526120f28184611d38565b905092915050565b6000602082019050818103600083015261211381611de3565b9050919050565b6000602082019050818103600083015261213381611e49565b9050919050565b6000602082019050818103600083015261215381611e89565b9050919050565b6000602082019050818103600083015261217381611eef565b9050919050565b6000602082019050818103600083015261219381611f55565b9050919050565b60006020820190506121af600083018461200e565b92915050565b6000610120820190506121cb600083018c61200e565b81810360208301526121dd818b611daa565b905081810360408301526121f1818a611daa565b905081810360608301526122058189611daa565b905081810360808301526122198188611daa565b905061222860a0830187611bb9565b81810360c083015261223a8186611daa565b905081810360e083015261224e8185611daa565b905061225e61010083018461200e565b9a9950505050505050505050565b6000604051905081810181811067ffffffffffffffff8211171561228f57600080fd5b8060405250919050565b600067ffffffffffffffff8211156122b057600080fd5b601f19601f8301169050602081019050919050565b6000819050602082019050919050565b6000819050602082019050919050565b60008190508160005260206000209050919050565b600081519050919050565b600081519050919050565b600081519050919050565b600081519050919050565b6000602082019050919050565b6000602082019050919050565b600082825260208201905092915050565b600082825260208201905092915050565b600081905092915050565b600082825260208201905092915050565b600082825260208201905092915050565b600061239a826123ad565b9050919050565b60008115159050919050565b600073ffffffffffffffffffffffffffffffffffffffff82169050919050565b6000819050919050565b82818337600083830152505050565b60005b838110156124045780820151818401526020810190506123e9565b83811115612413576000848401525b50505050565b6000601f19601f8301169050919050565b6124338161238f565b811461243e57600080fd5b50565b61244a816123a1565b811461245557600080fd5b50565b612461816123cd565b811461246c57600080fd5b5056fea365627a7a723158201b4b07c77d2377d90458df3afb89559ca76365c2b12dec199173206cc84983c46c6578706572696d656e74616cf564736f6c63430005100040",
  "source": "// SPDX-License-Identifier: MIT\r\npragma solidity >=0.4.22 <0.9.0;\r\npragma experimental ABIEncoderV2;\r\n\r\ncontract AppStore {\r\n\r\n  mapping(uint => AppData) public apps;\r\n  mapping(address  => UserData) public userDictionary;\r\n  uint public appsCount = 0; \r\n\r\n  struct UserData {\r\n    bool isInit;\r\n    string userName;\r\n    string downloadCode;\r\n    uint[] uploadedApps;\r\n  }\r\n\r\n  struct AppData {\r\n    uint id;\r\n    string appName;\r\n    string category;\r\n    string appDescription;\r\n    string appDeveloper;\r\n    address developerAddress;\r\n    string appLogoHash;\r\n    string appFileHash;\r\n    uint price;\r\n    ReviewAndRating [] reviews;\r\n  }\r\n\r\n  struct ReviewAndRating{\r\n    string name;\r\n    address evaluaterAddress;\r\n    uint rating;\r\n    string review;\r\n  }\r\n\r\n  function createApp(string memory _appName,string memory _category,string memory _appDescription,uint price,string memory _appLogoHash,string memory _appFileHash) public {\r\n    for (uint i = 0; i < userDictionary[msg.sender].uploadedApps.length; i++) {\r\n      require(keccak256(bytes(apps[userDictionary[msg.sender].uploadedApps[i]].appName))!=keccak256(bytes(_appName)),'you already published an app with this name!');\r\n    }\r\n    appsCount++;\r\n    apps[appsCount].id=appsCount;\r\n    apps[appsCount].appName=_appName;\r\n    apps[appsCount].category=_category;\r\n    apps[appsCount].appDescription=_appDescription;\r\n    apps[appsCount].appLogoHash=_appLogoHash;\r\n    apps[appsCount].appFileHash=_appFileHash;\r\n    apps[appsCount].appDeveloper=userDictionary[msg.sender].userName;\r\n    apps[appsCount].price=price;\r\n    apps[appsCount].developerAddress=msg.sender;\r\n    userDictionary[msg.sender].uploadedApps.push(appsCount);\r\n  }\r\n\r\n\r\n  function registerUser(string memory _userName, string memory initDownloadCode)public{\r\n    require(bytes(_userName).length!=0,\"username cannot be empty\");\r\n    require(bytes(userDictionary[msg.sender].userName).length==0,'this account is already registered!');\r\n    userDictionary[msg.sender].userName=_userName;\r\n    userDictionary[msg.sender].isInit=true;\r\n    userDictionary[msg.sender].downloadCode=initDownloadCode;\r\n  }\r\n\r\n\r\n  function addReview(uint _appid,uint _rating,string memory _review,bool isAnonymous) public {\r\n    require(msg.sender!=apps[_appid].developerAddress,'you cannot review your app!');\r\n    for (uint i = 0; i < apps[_appid].reviews.length; i++) {\r\n        require(apps[_appid].reviews[i].evaluaterAddress!=msg.sender,'you can review this app only once!');\r\n    }\r\n    ReviewAndRating memory NewReview=ReviewAndRating(isAnonymous?'Anonymous':userDictionary[msg.sender].userName, msg.sender, _rating, _review);\r\n    apps[_appid].reviews.push(NewReview);\r\n  }\r\n\r\n\r\n  function isNewUser(address _user)public view returns(bool){\r\n    return !userDictionary[_user].isInit;\r\n  } \r\n\r\n\r\n  function getUserName(address _user)public view returns(string memory){\r\n    return userDictionary[_user].userName;\r\n  }\r\n\r\n\r\n  function getUploadedApps(address _user) public view returns(uint[] memory){\r\n    return userDictionary[_user].uploadedApps;\r\n  }\r\n\r\n\r\n  function getDownloadCode(address _user) public view returns(string memory){\r\n    return userDictionary[_user].downloadCode;\r\n  }\r\n\r\n\r\n  function getReviews(uint appid) public view returns(ReviewAndRating [] memory ){\r\n    return apps[appid].reviews;\r\n  }\r\n\r\n\r\n  function updateDownloadCode(string memory newCode) public {\r\n    userDictionary[msg.sender].downloadCode = newCode;\r\n  }\r\n\r\n}\r\n",
  "sourcePath": "E:\\8semester2022\\parallelProject\\DecentralizedAppStore\\AppStore\\src\\contracts\\contracts\\AppStore.sol",
  "compiler": {
    "name": "solc",
    "version": "0.5.16+commit.9c3226ce.Emscripten.clang"
  },
  "schemaVersion": "3.4.7",
  "updatedAt": "2022-11-10T20:21:57.295Z",
  "networkType": "ethereum",
  "devdoc": {
    "methods": {}
  },
  "userdoc": {
    "methods": {}
  }
}