{
  "contractName": "AppStore",
  "abi": [
    {
      "constant": true,
      "inputs": [
        {
          "internalType": "uint256",
          "name": "",
          "type": "uint256"
        }
      ],
      "name": "apps",
      "outputs": [
        {
          "internalType": "uint256",
          "name": "id",
          "type": "uint256"
        },
        {
          "internalType": "string",
          "name": "appName",
          "type": "string"
        },
        {
          "internalType": "string",
          "name": "category",
          "type": "string"
        },
        {
          "internalType": "string",
          "name": "appDescription",
          "type": "string"
        },
        {
          "internalType": "string",
          "name": "appDeveloper",
          "type": "string"
        },
        {
          "internalType": "address",
          "name": "developerAddress",
          "type": "address"
        },
        {
          "internalType": "string",
          "name": "appLogoHash",
          "type": "string"
        },
        {
          "internalType": "uint256",
          "name": "price",
          "type": "uint256"
        },
        {
          "internalType": "string",
          "name": "priceCurrency",
          "type": "string"
        }
      ],
      "payable": false,
      "stateMutability": "view",
      "type": "function"
    },
    {
      "constant": true,
      "inputs": [],
      "name": "appsCount",
      "outputs": [
        {
          "internalType": "uint256",
          "name": "",
          "type": "uint256"
        }
      ],
      "payable": false,
      "stateMutability": "view",
      "type": "function"
    },
    {
      "constant": true,
      "inputs": [
        {
          "internalType": "uint256",
          "name": "",
          "type": "uint256"
        }
      ],
      "name": "appsFilesHashes",
      "outputs": [
        {
          "internalType": "string",
          "name": "",
          "type": "string"
        }
      ],
      "payable": false,
      "stateMutability": "view",
      "type": "function"
    },
    {
      "constant": true,
      "inputs": [
        {
          "internalType": "address",
          "name": "",
          "type": "address"
        }
      ],
      "name": "userDictionary",
      "outputs": [
        {
          "internalType": "bool",
          "name": "isInit",
          "type": "bool"
        },
        {
          "internalType": "string",
          "name": "userName",
          "type": "string"
        },
        {
          "internalType": "string",
          "name": "downloadCode",
          "type": "string"
        }
      ],
      "payable": false,
      "stateMutability": "view",
      "type": "function"
    },
    {
      "constant": false,
      "inputs": [
        {
          "internalType": "string",
          "name": "_appName",
          "type": "string"
        },
        {
          "internalType": "string",
          "name": "_category",
          "type": "string"
        },
        {
          "internalType": "string",
          "name": "_appDescription",
          "type": "string"
        },
        {
          "internalType": "uint256",
          "name": "_price",
          "type": "uint256"
        },
        {
          "internalType": "string",
          "name": "_priceCurrency",
          "type": "string"
        },
        {
          "internalType": "string",
          "name": "_appLogoHash",
          "type": "string"
        },
        {
          "internalType": "string",
          "name": "_appFileHash",
          "type": "string"
        }
      ],
      "name": "createApp",
      "outputs": [],
      "payable": true,
      "stateMutability": "payable",
      "type": "function"
    },
    {
      "constant": false,
      "inputs": [
        {
          "internalType": "string",
          "name": "_userName",
          "type": "string"
        },
        {
          "internalType": "string",
          "name": "initDownloadCode",
          "type": "string"
        }
      ],
      "name": "registerUser",
      "outputs": [],
      "payable": false,
      "stateMutability": "nonpayable",
      "type": "function"
    },
    {
      "constant": false,
      "inputs": [
        {
          "internalType": "uint256",
          "name": "_appid",
          "type": "uint256"
        },
        {
          "internalType": "uint256",
          "name": "_rating",
          "type": "uint256"
        },
        {
          "internalType": "string",
          "name": "_review",
          "type": "string"
        },
        {
          "internalType": "bool",
          "name": "isAnonymous",
          "type": "bool"
        }
      ],
      "name": "addReview",
      "outputs": [],
      "payable": false,
      "stateMutability": "nonpayable",
      "type": "function"
    },
    {
      "constant": false,
      "inputs": [
        {
          "internalType": "uint256",
          "name": "_appid",
          "type": "uint256"
        }
      ],
      "name": "purchaseApp",
      "outputs": [],
      "payable": true,
      "stateMutability": "payable",
      "type": "function"
    },
    {
      "constant": true,
      "inputs": [
        {
          "internalType": "uint256",
          "name": "_appid",
          "type": "uint256"
        }
      ],
      "name": "getAppHash",
      "outputs": [
        {
          "internalType": "string",
          "name": "",
          "type": "string"
        }
      ],
      "payable": false,
      "stateMutability": "view",
      "type": "function"
    },
    {
      "constant": true,
      "inputs": [
        {
          "internalType": "address",
          "name": "_user",
          "type": "address"
        }
      ],
      "name": "isNewUser",
      "outputs": [
        {
          "internalType": "bool",
          "name": "",
          "type": "bool"
        }
      ],
      "payable": false,
      "stateMutability": "view",
      "type": "function"
    },
    {
      "constant": true,
      "inputs": [
        {
          "internalType": "address",
          "name": "_user",
          "type": "address"
        }
      ],
      "name": "getUserName",
      "outputs": [
        {
          "internalType": "string",
          "name": "",
          "type": "string"
        }
      ],
      "payable": false,
      "stateMutability": "view",
      "type": "function"
    },
    {
      "constant": true,
      "inputs": [
        {
          "internalType": "address",
          "name": "_user",
          "type": "address"
        }
      ],
      "name": "getUploadedApps",
      "outputs": [
        {
          "internalType": "uint256[]",
          "name": "",
          "type": "uint256[]"
        }
      ],
      "payable": false,
      "stateMutability": "view",
      "type": "function"
    },
    {
      "constant": true,
      "inputs": [
        {
          "internalType": "address",
          "name": "_user",
          "type": "address"
        }
      ],
      "name": "getPurchasedApps",
      "outputs": [
        {
          "internalType": "uint256[]",
          "name": "",
          "type": "uint256[]"
        }
      ],
      "payable": false,
      "stateMutability": "view",
      "type": "function"
    },
    {
      "constant": true,
      "inputs": [
        {
          "internalType": "address",
          "name": "_user",
          "type": "address"
        }
      ],
      "name": "getDownloadCode",
      "outputs": [
        {
          "internalType": "string",
          "name": "",
          "type": "string"
        }
      ],
      "payable": false,
      "stateMutability": "view",
      "type": "function"
    },
    {
      "constant": true,
      "inputs": [
        {
          "internalType": "uint256",
          "name": "appid",
          "type": "uint256"
        }
      ],
      "name": "getReviews",
      "outputs": [
        {
          "components": [
            {
              "internalType": "string",
              "name": "name",
              "type": "string"
            },
            {
              "internalType": "address",
              "name": "evaluaterAddress",
              "type": "address"
            },
            {
              "internalType": "uint256",
              "name": "rating",
              "type": "uint256"
            },
            {
              "internalType": "string",
              "name": "review",
              "type": "string"
            }
          ],
          "internalType": "struct AppStore.ReviewAndRating[]",
          "name": "",
          "type": "tuple[]"
        }
      ],
      "payable": false,
      "stateMutability": "view",
      "type": "function"
    }
  ],
  "bytecode": "0x6080604052600060035534801561001557600080fd5b50612d2e806100256000396000f3fe6080604052600436106100e85760003560e01c80634facffd91161008a5780639d4a2255116100595780639d4a22551461031a578063b0d7959914610357578063d84f55ee14610394578063f1144c6d146103d1576100e8565b80634facffd91461023f5780635bb4a8021461027c57806361acc37e146102b957806389c107fb146102fe576100e8565b80631d2e4afd116100c65780631d2e4afd146101a65780632b5f3879146101cf5780632e5c306b146101fa57806333e067a614610223576100e8565b806307df1c61146100ed57806318356f901461012a5780631b5aca5414610169575b600080fd5b3480156100f957600080fd5b50610114600480360361010f919081019061224e565b61040e565b60405161012191906128f2565b60405180910390f35b34801561013657600080fd5b50610151600480360361014c919081019061208b565b6104be565b604051610160939291906128ad565b60405180910390f35b34801561017557600080fd5b50610190600480360361018b919081019061208b565b610625565b60405161019d9190612870565b60405180910390f35b3480156101b257600080fd5b506101cd60048036036101c891908101906120b4565b6106bf565b005b3480156101db57600080fd5b506101e46108aa565b6040516101f19190612a16565b60405180910390f35b34801561020657600080fd5b50610221600480360361021c9190810190612277565b6108b0565b005b61023d6004803603610238919081019061224e565b610d90565b005b34801561024b57600080fd5b506102666004803603610261919081019061208b565b6110c4565b6040516102739190612914565b60405180910390f35b34801561028857600080fd5b506102a3600480360361029e919081019061224e565b6111a8565b6040516102b09190612914565b60405180910390f35b3480156102c557600080fd5b506102e060048036036102db919081019061224e565b61125d565b6040516102f599989796959493929190612a31565b60405180910390f35b61031860048036036103139190810190612120565b61165b565b005b34801561032657600080fd5b50610341600480360361033c919081019061224e565b611a1e565b60405161034e919061284e565b60405180910390f35b34801561036357600080fd5b5061037e6004803603610379919081019061208b565b611c36565b60405161038b9190612870565b60405180910390f35b3480156103a057600080fd5b506103bb60048036036103b6919081019061208b565b611cd0565b6040516103c89190612914565b60405180910390f35b3480156103dd57600080fd5b506103f860048036036103f3919081019061208b565b611db4565b6040516104059190612892565b60405180910390f35b60016020528060005260406000206000915090508054600181600116156101000203166002900480601f0160208091040260200160405190810160405280929190818152602001828054600181600116156101000203166002900480156104b65780601f1061048b576101008083540402835291602001916104b6565b820191906000526020600020905b81548152906001019060200180831161049957829003601f168201915b505050505081565b60026020528060005260406000206000915090508060000160009054906101000a900460ff1690806001018054600181600116156101000203166002900480601f01602080910402602001604051908101604052809291908181526020018280546001816001161561010002031660029004801561057d5780601f106105525761010080835404028352916020019161057d565b820191906000526020600020905b81548152906001019060200180831161056057829003601f168201915b505050505090806002018054600181600116156101000203166002900480601f01602080910402602001604051908101604052809291908181526020018280546001816001161561010002031660029004801561061b5780601f106105f05761010080835404028352916020019161061b565b820191906000526020600020905b8154815290600101906020018083116105fe57829003601f168201915b5050505050905083565b6060600260008373ffffffffffffffffffffffffffffffffffffffff1673ffffffffffffffffffffffffffffffffffffffff1681526020019081526020016000206004018054806020026020016040519081016040528092919081815260200182805480156106b357602002820191906000526020600020905b81548152602001906001019080831161069f575b50505050509050919050565b600082511415610704576040517f08c379a00000000000000000000000000000000000000000000000000000000081526004016106fb90612976565b60405180910390fd5b6000600260003373ffffffffffffffffffffffffffffffffffffffff1673ffffffffffffffffffffffffffffffffffffffff1681526020019081526020016000206001018054600181600116156101000203166002900490501461079d576040517f08c379a000000000000000000000000000000000000000000000000000000000815260040161079490612956565b60405180910390fd5b81600260003373ffffffffffffffffffffffffffffffffffffffff1673ffffffffffffffffffffffffffffffffffffffff16815260200190815260200160002060010190805190602001906107f3929190611e0e565b506001600260003373ffffffffffffffffffffffffffffffffffffffff1673ffffffffffffffffffffffffffffffffffffffff16815260200190815260200160002060000160006101000a81548160ff02191690831515021790555080600260003373ffffffffffffffffffffffffffffffffffffffff1673ffffffffffffffffffffffffffffffffffffffff16815260200190815260200160002060020190805190602001906108a5929190611e0e565b505050565b60035481565b60008085815260200190815260200160002060050160009054906101000a900473ffffffffffffffffffffffffffffffffffffffff1673ffffffffffffffffffffffffffffffffffffffff163373ffffffffffffffffffffffffffffffffffffffff161415610954576040517f08c379a000000000000000000000000000000000000000000000000000000000815260040161094b906129f6565b60405180910390fd5b60008090505b60008086815260200190815260200160002060090180549050811015610a47573373ffffffffffffffffffffffffffffffffffffffff1660008087815260200190815260200160002060090182815481106109b157fe5b906000526020600020906004020160010160009054906101000a900473ffffffffffffffffffffffffffffffffffffffff1673ffffffffffffffffffffffffffffffffffffffff161415610a3a576040517f08c379a0000000000000000000000000000000000000000000000000000000008152600401610a3190612996565b60405180910390fd5b808060010191505061095a565b50600080905060008090505b600260003373ffffffffffffffffffffffffffffffffffffffff1673ffffffffffffffffffffffffffffffffffffffff16815260200190815260200160002060040180549050811015610b155785600260003373ffffffffffffffffffffffffffffffffffffffff1673ffffffffffffffffffffffffffffffffffffffff1681526020019081526020016000206004018281548110610aee57fe5b90600052602060002001541415610b085760019150610b15565b8080600101915050610a53565b506001151581151514610b5d576040517f08c379a0000000000000000000000000000000000000000000000000000000008152600401610b54906129d6565b60405180910390fd5b610b65611e8e565b604051806080016040528084610c5557600260003373ffffffffffffffffffffffffffffffffffffffff1673ffffffffffffffffffffffffffffffffffffffff1681526020019081526020016000206001018054600181600116156101000203166002900480601f016020809104026020016040519081016040528092919081815260200182805460018160011615610100020316600290048015610c4b5780601f10610c2057610100808354040283529160200191610c4b565b820191906000526020600020905b815481529060010190602001808311610c2e57829003601f168201915b5050505050610c8c565b6040518060400160405280600981526020017f416e6f6e796d6f757300000000000000000000000000000000000000000000008152505b81526020013373ffffffffffffffffffffffffffffffffffffffff16815260200186815260200185815250905060008087815260200190815260200160002060090181908060018154018082558091505090600182039060005260206000209060040201600090919290919091506000820151816000019080519060200190610d16929190611ecc565b5060208201518160010160006101000a81548173ffffffffffffffffffffffffffffffffffffffff021916908373ffffffffffffffffffffffffffffffffffffffff160217905550604082015181600201556060820151816003019080519060200190610d84929190611ecc565b50505050505050505050565b600060019050600080838152602001908152602001600020600801604051610db89190612837565b60405180910390206040518060400160405280600381526020017f4554480000000000000000000000000000000000000000000000000000000000815250805190602001201415610e605760008083815260200190815260200160002060070154341015610e5b576040517f08c379a0000000000000000000000000000000000000000000000000000000008152600401610e5290612936565b60405180910390fd5b610ec5565b600080838152602001908152602001600020600701546001823481610e8157fe5b04011015610ec4576040517f08c379a0000000000000000000000000000000000000000000000000000000008152600401610ebb90612936565b60405180910390fd5b5b60008090505b600260003373ffffffffffffffffffffffffffffffffffffffff1673ffffffffffffffffffffffffffffffffffffffff16815260200190815260200160002060040180549050811015610f8b5782600260003373ffffffffffffffffffffffffffffffffffffffff1673ffffffffffffffffffffffffffffffffffffffff1681526020019081526020016000206004018281548110610f6657fe5b90600052602060002001541415610f7e5750506110c1565b8080600101915050610ecb565b5060008090505b600260003373ffffffffffffffffffffffffffffffffffffffff1673ffffffffffffffffffffffffffffffffffffffff168152602001908152602001600020600301805490508110156110525782600260003373ffffffffffffffffffffffffffffffffffffffff1673ffffffffffffffffffffffffffffffffffffffff168152602001908152602001600020600301828154811061102d57fe5b906000526020600020015414156110455750506110c1565b8080600101915050610f92565b50600260003373ffffffffffffffffffffffffffffffffffffffff1673ffffffffffffffffffffffffffffffffffffffff168152602001908152602001600020600401829080600181540180825580915050906001820390600052602060002001600090919290919091505550505b50565b6060600260008373ffffffffffffffffffffffffffffffffffffffff1673ffffffffffffffffffffffffffffffffffffffff1681526020019081526020016000206002018054600181600116156101000203166002900480601f01602080910402602001604051908101604052809291908181526020018280546001816001161561010002031660029004801561119c5780601f106111715761010080835404028352916020019161119c565b820191906000526020600020905b81548152906001019060200180831161117f57829003601f168201915b50505050509050919050565b6060600160008381526020019081526020016000208054600181600116156101000203166002900480601f0160208091040260200160405190810160405280929190818152602001828054600181600116156101000203166002900480156112515780601f1061122657610100808354040283529160200191611251565b820191906000526020600020905b81548152906001019060200180831161123457829003601f168201915b50505050509050919050565b6000602052806000526040600020600091509050806000015490806001018054600181600116156101000203166002900480601f01602080910402602001604051908101604052809291908181526020018280546001816001161561010002031660029004801561130f5780601f106112e45761010080835404028352916020019161130f565b820191906000526020600020905b8154815290600101906020018083116112f257829003601f168201915b505050505090806002018054600181600116156101000203166002900480601f0160208091040260200160405190810160405280929190818152602001828054600181600116156101000203166002900480156113ad5780601f10611382576101008083540402835291602001916113ad565b820191906000526020600020905b81548152906001019060200180831161139057829003601f168201915b505050505090806003018054600181600116156101000203166002900480601f01602080910402602001604051908101604052809291908181526020018280546001816001161561010002031660029004801561144b5780601f106114205761010080835404028352916020019161144b565b820191906000526020600020905b81548152906001019060200180831161142e57829003601f168201915b505050505090806004018054600181600116156101000203166002900480601f0160208091040260200160405190810160405280929190818152602001828054600181600116156101000203166002900480156114e95780601f106114be576101008083540402835291602001916114e9565b820191906000526020600020905b8154815290600101906020018083116114cc57829003601f168201915b5050505050908060050160009054906101000a900473ffffffffffffffffffffffffffffffffffffffff1690806006018054600181600116156101000203166002900480601f0160208091040260200160405190810160405280929190818152602001828054600181600116156101000203166002900480156115ad5780601f10611582576101008083540402835291602001916115ad565b820191906000526020600020905b81548152906001019060200180831161159057829003601f168201915b505050505090806007015490806008018054600181600116156101000203166002900480601f0160208091040260200160405190810160405280929190818152602001828054600181600116156101000203166002900480156116515780601f1061162657610100808354040283529160200191611651565b820191906000526020600020905b81548152906001019060200180831161163457829003601f168201915b5050505050905089565b60008090505b600260003373ffffffffffffffffffffffffffffffffffffffff1673ffffffffffffffffffffffffffffffffffffffff16815260200190815260200160002060030180549050811015611785578780519060200120600080600260003373ffffffffffffffffffffffffffffffffffffffff1673ffffffffffffffffffffffffffffffffffffffff168152602001908152602001600020600301848154811061170657fe5b9060005260206000200154815260200190815260200160002060010160405161172f9190612837565b60405180910390201415611778576040517f08c379a000000000000000000000000000000000000000000000000000000000815260040161176f906129b6565b60405180910390fd5b8080600101915050611661565b5060036000815480929190600101919050555060035460008060035481526020019081526020016000206000018190555086600080600354815260200190815260200160002060010190805190602001906117e1929190611e0e565b50856000806003548152602001908152602001600020600201908051906020019061180d929190611e0e565b508460008060035481526020019081526020016000206003019080519060200190611839929190611e0e565b508160008060035481526020019081526020016000206006019080519060200190611865929190611e0e565b50600260003373ffffffffffffffffffffffffffffffffffffffff1673ffffffffffffffffffffffffffffffffffffffff168152602001908152602001600020600101600080600354815260200190815260200160002060040190805460018160011615610100020316600290046118de929190611f4c565b50836000806003548152602001908152602001600020600701819055508260008060035481526020019081526020016000206008019080519060200190611926929190611e0e565b5033600080600354815260200190815260200160002060050160006101000a81548173ffffffffffffffffffffffffffffffffffffffff021916908373ffffffffffffffffffffffffffffffffffffffff1602179055508060016000600354815260200190815260200160002090805190602001906119a6929190611e0e565b50600260003373ffffffffffffffffffffffffffffffffffffffff1673ffffffffffffffffffffffffffffffffffffffff168152602001908152602001600020600301600354908060018154018082558091505090600182039060005260206000200160009091929091909150555050505050505050565b6060600080838152602001908152602001600020600901805480602002602001604051908101604052809291908181526020016000905b82821015611c2b5783829060005260206000209060040201604051806080016040529081600082018054600181600116156101000203166002900480601f016020809104026020016040519081016040528092919081815260200182805460018160011615610100020316600290048015611b115780601f10611ae657610100808354040283529160200191611b11565b820191906000526020600020905b815481529060010190602001808311611af457829003601f168201915b505050505081526020016001820160009054906101000a900473ffffffffffffffffffffffffffffffffffffffff1673ffffffffffffffffffffffffffffffffffffffff1673ffffffffffffffffffffffffffffffffffffffff16815260200160028201548152602001600382018054600181600116156101000203166002900480601f016020809104026020016040519081016040528092919081815260200182805460018160011615610100020316600290048015611c135780601f10611be857610100808354040283529160200191611c13565b820191906000526020600020905b815481529060010190602001808311611bf657829003601f168201915b50505050508152505081526020019060010190611a55565b505050509050919050565b6060600260008373ffffffffffffffffffffffffffffffffffffffff1673ffffffffffffffffffffffffffffffffffffffff168152602001908152602001600020600301805480602002602001604051908101604052809291908181526020018280548015611cc457602002820191906000526020600020905b815481526020019060010190808311611cb0575b50505050509050919050565b6060600260008373ffffffffffffffffffffffffffffffffffffffff1673ffffffffffffffffffffffffffffffffffffffff1681526020019081526020016000206001018054600181600116156101000203166002900480601f016020809104026020016040519081016040528092919081815260200182805460018160011615610100020316600290048015611da85780601f10611d7d57610100808354040283529160200191611da8565b820191906000526020600020905b815481529060010190602001808311611d8b57829003601f168201915b50505050509050919050565b6000600260008373ffffffffffffffffffffffffffffffffffffffff1673ffffffffffffffffffffffffffffffffffffffff16815260200190815260200160002060000160009054906101000a900460ff16159050919050565b828054600181600116156101000203166002900490600052602060002090601f016020900481019282601f10611e4f57805160ff1916838001178555611e7d565b82800160010185558215611e7d579182015b82811115611e7c578251825591602001919060010190611e61565b5b509050611e8a9190611fd3565b5090565b604051806080016040528060608152602001600073ffffffffffffffffffffffffffffffffffffffff16815260200160008152602001606081525090565b828054600181600116156101000203166002900490600052602060002090601f016020900481019282601f10611f0d57805160ff1916838001178555611f3b565b82800160010185558215611f3b579182015b82811115611f3a578251825591602001919060010190611f1f565b5b509050611f489190611fd3565b5090565b828054600181600116156101000203166002900490600052602060002090601f016020900481019282601f10611f855780548555611fc2565b82800160010185558215611fc257600052602060002091601f016020900482015b82811115611fc1578254825591600101919060010190611fa6565b5b509050611fcf9190611fd3565b5090565b611ff591905b80821115611ff1576000816000905550600101611fd9565b5090565b90565b60008135905061200781612ca6565b92915050565b60008135905061201c81612cbd565b92915050565b600082601f83011261203357600080fd5b813561204661204182612b15565b612ae8565b9150808252602083016020830185838301111561206257600080fd5b61206d838284612c53565b50505092915050565b60008135905061208581612cd4565b92915050565b60006020828403121561209d57600080fd5b60006120ab84828501611ff8565b91505092915050565b600080604083850312156120c757600080fd5b600083013567ffffffffffffffff8111156120e157600080fd5b6120ed85828601612022565b925050602083013567ffffffffffffffff81111561210a57600080fd5b61211685828601612022565b9150509250929050565b600080600080600080600060e0888a03121561213b57600080fd5b600088013567ffffffffffffffff81111561215557600080fd5b6121618a828b01612022565b975050602088013567ffffffffffffffff81111561217e57600080fd5b61218a8a828b01612022565b965050604088013567ffffffffffffffff8111156121a757600080fd5b6121b38a828b01612022565b95505060606121c48a828b01612076565b945050608088013567ffffffffffffffff8111156121e157600080fd5b6121ed8a828b01612022565b93505060a088013567ffffffffffffffff81111561220a57600080fd5b6122168a828b01612022565b92505060c088013567ffffffffffffffff81111561223357600080fd5b61223f8a828b01612022565b91505092959891949750929550565b60006020828403121561226057600080fd5b600061226e84828501612076565b91505092915050565b6000806000806080858703121561228d57600080fd5b600061229b87828801612076565b94505060206122ac87828801612076565b935050604085013567ffffffffffffffff8111156122c957600080fd5b6122d587828801612022565b92505060606122e68782880161200d565b91505092959194509250565b60006122fe83836127af565b905092915050565b60006123128383612819565b60208301905092915050565b61232781612c0b565b82525050565b61233681612c0b565b82525050565b600061234782612b76565b6123518185612bbc565b93508360208202850161236385612b41565b8060005b8581101561239f578484038952815161238085826122f2565b945061238b83612ba2565b925060208a01995050600181019050612367565b50829750879550505050505092915050565b60006123bc82612b81565b6123c68185612bcd565b93506123d183612b51565b8060005b838110156124025781516123e98882612306565b97506123f483612baf565b9250506001810190506123d5565b5085935050505092915050565b61241881612c1d565b82525050565b60008154600181166000811461243b5760018114612460576124a4565b607f600283041661244c8187612bde565b955060ff19831686528086019350506124a4565b6002820461246e8187612bde565b955061247985612b61565b60005b8281101561249b5781548189015260018201915060208101905061247c565b82880195505050505b505092915050565b60006124b782612b97565b6124c18185612bfa565b93506124d1818560208601612c62565b6124da81612c95565b840191505092915050565b60006124f082612b8c565b6124fa8185612be9565b935061250a818560208601612c62565b61251381612c95565b840191505092915050565b600061252982612b8c565b6125338185612bfa565b9350612543818560208601612c62565b61254c81612c95565b840191505092915050565b6000612564601183612bfa565b91507f4e6f7420656e6f756768206d6f6e6579210000000000000000000000000000006000830152602082019050919050565b60006125a4602383612bfa565b91507f74686973206163636f756e7420697320616c726561647920726567697374657260008301527f65642100000000000000000000000000000000000000000000000000000000006020830152604082019050919050565b600061260a601883612bfa565b91507f757365726e616d652063616e6e6f7420626520656d70747900000000000000006000830152602082019050919050565b600061264a602283612bfa565b91507f796f752063616e20726576696577207468697320617070206f6e6c79206f6e6360008301527f65210000000000000000000000000000000000000000000000000000000000006020830152604082019050919050565b60006126b0602c83612bfa565b91507f796f7520616c7265616479207075626c697368656420616e206170702077697460008301527f682074686973206e616d652100000000000000000000000000000000000000006020830152604082019050919050565b6000612716602c83612bfa565b91507f796f752063616e6e6f742072657669657720616e2061707020796f752064696460008301527f6e742070757263686173652100000000000000000000000000000000000000006020830152604082019050919050565b600061277c601b83612bfa565b91507f796f752063616e6e6f742072657669657720796f7572206170702100000000006000830152602082019050919050565b600060808301600083015184820360008601526127cc82826124e5565b91505060208301516127e1602086018261231e565b5060408301516127f46040860182612819565b506060830151848203606086015261280c82826124e5565b9150508091505092915050565b61282281612c49565b82525050565b61283181612c49565b82525050565b6000612843828461241e565b915081905092915050565b60006020820190508181036000830152612868818461233c565b905092915050565b6000602082019050818103600083015261288a81846123b1565b905092915050565b60006020820190506128a7600083018461240f565b92915050565b60006060820190506128c2600083018661240f565b81810360208301526128d4818561251e565b905081810360408301526128e8818461251e565b9050949350505050565b6000602082019050818103600083015261290c818461251e565b905092915050565b6000602082019050818103600083015261292e81846124ac565b905092915050565b6000602082019050818103600083015261294f81612557565b9050919050565b6000602082019050818103600083015261296f81612597565b9050919050565b6000602082019050818103600083015261298f816125fd565b9050919050565b600060208201905081810360008301526129af8161263d565b9050919050565b600060208201905081810360008301526129cf816126a3565b9050919050565b600060208201905081810360008301526129ef81612709565b9050919050565b60006020820190508181036000830152612a0f8161276f565b9050919050565b6000602082019050612a2b6000830184612828565b92915050565b600061012082019050612a47600083018c612828565b8181036020830152612a59818b61251e565b90508181036040830152612a6d818a61251e565b90508181036060830152612a81818961251e565b90508181036080830152612a95818861251e565b9050612aa460a083018761232d565b81810360c0830152612ab6818661251e565b9050612ac560e0830185612828565b818103610100830152612ad8818461251e565b90509a9950505050505050505050565b6000604051905081810181811067ffffffffffffffff82111715612b0b57600080fd5b8060405250919050565b600067ffffffffffffffff821115612b2c57600080fd5b601f19601f8301169050602081019050919050565b6000819050602082019050919050565b6000819050602082019050919050565b60008190508160005260206000209050919050565b600081519050919050565b600081519050919050565b600081519050919050565b600081519050919050565b6000602082019050919050565b6000602082019050919050565b600082825260208201905092915050565b600082825260208201905092915050565b600081905092915050565b600082825260208201905092915050565b600082825260208201905092915050565b6000612c1682612c29565b9050919050565b60008115159050919050565b600073ffffffffffffffffffffffffffffffffffffffff82169050919050565b6000819050919050565b82818337600083830152505050565b60005b83811015612c80578082015181840152602081019050612c65565b83811115612c8f576000848401525b50505050565b6000601f19601f8301169050919050565b612caf81612c0b565b8114612cba57600080fd5b50565b612cc681612c1d565b8114612cd157600080fd5b50565b612cdd81612c49565b8114612ce857600080fd5b5056fea365627a7a72315820f8e7895f91e3c4b70a46f5a00e5c80116b7f77f8fd9a2976419c116d5754cd486c6578706572696d656e74616cf564736f6c63430005100040",
  "source": "// SPDX-License-Identifier: MIT\r\npragma solidity >=0.4.22 <0.9.0;\r\npragma experimental ABIEncoderV2;\r\n\r\ncontract AppStore {\r\n\r\n  mapping(uint => AppData) public apps;\r\n  mapping(uint  => string) public appsFilesHashes;\r\n  mapping(address  => UserData) public userDictionary;\r\n  uint public appsCount = 0; \r\n\r\n  struct UserData {\r\n    bool isInit;\r\n    string userName;\r\n    string downloadCode;\r\n    uint[] uploadedApps;\r\n    uint[] purchasedApps;\r\n  }\r\n\r\n  struct AppData {\r\n    uint id;\r\n    string appName;\r\n    string category;\r\n    string appDescription;\r\n    string appDeveloper;\r\n    address developerAddress;\r\n    string appLogoHash;\r\n    uint price;\r\n    string priceCurrency;\r\n    ReviewAndRating [] reviews;\r\n  }\r\n\r\n  struct ReviewAndRating{\r\n    string name;\r\n    address evaluaterAddress;\r\n    uint rating;\r\n    string review;\r\n  }\r\n\r\n  function createApp(string memory _appName,string memory _category,string memory _appDescription,uint _price,string memory _priceCurrency, string memory _appLogoHash,string memory _appFileHash) public payable {\r\n    for (uint i = 0; i < userDictionary[msg.sender].uploadedApps.length; i++) {\r\n      require(keccak256(bytes(apps[userDictionary[msg.sender].uploadedApps[i]].appName))!=keccak256(bytes(_appName)),'you already published an app with this name!');\r\n    }\r\n    appsCount++;\r\n    apps[appsCount].id=appsCount;\r\n    apps[appsCount].appName=_appName;\r\n    apps[appsCount].category=_category;\r\n    apps[appsCount].appDescription=_appDescription;\r\n    apps[appsCount].appLogoHash=_appLogoHash;\r\n    apps[appsCount].appDeveloper=userDictionary[msg.sender].userName;\r\n    apps[appsCount].price=_price;\r\n    apps[appsCount].priceCurrency=_priceCurrency;\r\n    apps[appsCount].developerAddress=msg.sender;\r\n    appsFilesHashes[appsCount]=_appFileHash;\r\n    userDictionary[msg.sender].uploadedApps.push(appsCount);\r\n  }\r\n\r\n\r\n  function registerUser(string memory _userName, string memory initDownloadCode)public{\r\n    require(bytes(_userName).length!=0,\"username cannot be empty\");\r\n    require(bytes(userDictionary[msg.sender].userName).length==0,'this account is already registered!');\r\n    userDictionary[msg.sender].userName=_userName;\r\n    userDictionary[msg.sender].isInit=true;\r\n    userDictionary[msg.sender].downloadCode=initDownloadCode;\r\n  }\r\n\r\n\r\n  function addReview(uint _appid,uint _rating,string memory _review,bool isAnonymous) public {\r\n    require(msg.sender!=apps[_appid].developerAddress,'you cannot review your app!');\r\n    for (uint i = 0; i < apps[_appid].reviews.length; i++) {\r\n        require(apps[_appid].reviews[i].evaluaterAddress!=msg.sender,'you can review this app only once!');\r\n    }\r\n    bool appPurchased=false;\r\n    for (uint i = 0; i < userDictionary[msg.sender].purchasedApps.length; i++) {\r\n      if(userDictionary[msg.sender].purchasedApps[i]==_appid){\r\n        appPurchased=true;\r\n        break;\r\n      }\r\n    }\r\n    require(appPurchased==true,'you cannot review an app you didnt purchase!');\r\n    ReviewAndRating memory NewReview=ReviewAndRating(isAnonymous?'Anonymous':userDictionary[msg.sender].userName, msg.sender, _rating, _review);\r\n    apps[_appid].reviews.push(NewReview);\r\n  }\r\n\r\n\r\n  function purchaseApp(uint _appid)public payable{\r\n      uint conversionRate=1;\r\n       if(keccak256(bytes(\"ETH\"))==keccak256(bytes(apps[_appid].priceCurrency))){\r\n         require(msg.value>=apps[_appid].price,\"Not enough money!\");\r\n       }else{\r\n         require((msg.value/conversionRate)+1>=apps[_appid].price,\"Not enough money!\");\r\n       }\r\n    for (uint i = 0; i < userDictionary[msg.sender].purchasedApps.length; i++) {\r\n        if(userDictionary[msg.sender].purchasedApps[i]==_appid){\r\n          return;\r\n        }\r\n    }\r\n    for (uint i = 0; i < userDictionary[msg.sender].uploadedApps.length; i++) {\r\n        if(userDictionary[msg.sender].uploadedApps[i]==_appid){\r\n          return;\r\n        }\r\n    }\r\n      userDictionary[msg.sender].purchasedApps.push(_appid);\r\n     // apps[_appid].developerAddress.send(msg.value);\r\n  }\r\n\r\n\r\n  function getAppHash(uint _appid)public view returns(string memory){\r\n    return appsFilesHashes[_appid];\r\n  } \r\n\r\n\r\n  function isNewUser(address _user)public view returns(bool){\r\n    return !userDictionary[_user].isInit;\r\n  } \r\n\r\n\r\n  function getUserName(address _user)public view returns(string memory){\r\n    return userDictionary[_user].userName;\r\n  }\r\n\r\n\r\n  function getUploadedApps(address _user) public view returns(uint[] memory){\r\n    return userDictionary[_user].uploadedApps;\r\n  }\r\n\r\n\r\n  function getPurchasedApps(address _user) public view returns(uint[] memory){\r\n    return userDictionary[_user].purchasedApps;\r\n  }\r\n\r\n\r\n  function getDownloadCode(address _user) public view returns(string memory){\r\n    return userDictionary[_user].downloadCode;\r\n  }\r\n\r\n\r\n  function getReviews(uint appid) public view returns(ReviewAndRating [] memory ){\r\n    return apps[appid].reviews;\r\n  }\r\n\r\n}\r\n",
  "sourcePath": "E:\\8semester2022\\parallelProject\\DecentralizedAppStore\\AppStore\\src\\contracts\\contracts\\AppStore.sol",
  "compiler": {
    "name": "solc",
    "version": "0.5.16+commit.9c3226ce.Emscripten.clang"
  },
  "schemaVersion": "3.4.7",
  "updatedAt": "2022-11-14T22:44:00.477Z",
  "networkType": "ethereum",
  "devdoc": {
    "methods": {}
  },
  "userdoc": {
    "methods": {}
  }
}