{
  "contractName": "AppStore",
  "abi": [
    {
      "inputs": [],
      "payable": false,
      "stateMutability": "nonpayable",
      "type": "constructor"
    },
    {
      "constant": true,
      "inputs": [
        {
          "internalType": "uint256",
          "name": "",
          "type": "uint256"
        }
      ],
      "name": "apps",
      "outputs": [
        {
          "internalType": "uint256",
          "name": "id",
          "type": "uint256"
        },
        {
          "internalType": "string",
          "name": "appName",
          "type": "string"
        },
        {
          "internalType": "string",
          "name": "category",
          "type": "string"
        },
        {
          "internalType": "string",
          "name": "appDescription",
          "type": "string"
        },
        {
          "internalType": "string",
          "name": "appDeveloper",
          "type": "string"
        },
        {
          "internalType": "uint256",
          "name": "price",
          "type": "uint256"
        }
      ],
      "payable": false,
      "stateMutability": "view",
      "type": "function"
    },
    {
      "constant": true,
      "inputs": [],
      "name": "appsCount",
      "outputs": [
        {
          "internalType": "uint256",
          "name": "",
          "type": "uint256"
        }
      ],
      "payable": false,
      "stateMutability": "view",
      "type": "function"
    },
    {
      "constant": true,
      "inputs": [
        {
          "internalType": "address",
          "name": "",
          "type": "address"
        }
      ],
      "name": "userDictionary",
      "outputs": [
        {
          "internalType": "bool",
          "name": "isInit",
          "type": "bool"
        },
        {
          "internalType": "string",
          "name": "userName",
          "type": "string"
        },
        {
          "internalType": "string",
          "name": "downloadCode",
          "type": "string"
        }
      ],
      "payable": false,
      "stateMutability": "view",
      "type": "function"
    },
    {
      "constant": true,
      "inputs": [],
      "name": "getUserName",
      "outputs": [
        {
          "internalType": "string",
          "name": "",
          "type": "string"
        }
      ],
      "payable": false,
      "stateMutability": "view",
      "type": "function"
    },
    {
      "constant": false,
      "inputs": [
        {
          "internalType": "string",
          "name": "_appName",
          "type": "string"
        },
        {
          "internalType": "string",
          "name": "_category",
          "type": "string"
        },
        {
          "internalType": "string",
          "name": "_appDescription",
          "type": "string"
        },
        {
          "internalType": "uint256",
          "name": "price",
          "type": "uint256"
        }
      ],
      "name": "createApp",
      "outputs": [],
      "payable": false,
      "stateMutability": "nonpayable",
      "type": "function"
    },
    {
      "constant": false,
      "inputs": [
        {
          "internalType": "string",
          "name": "userName",
          "type": "string"
        },
        {
          "internalType": "string",
          "name": "initDownloadCode",
          "type": "string"
        }
      ],
      "name": "registerUser",
      "outputs": [],
      "payable": false,
      "stateMutability": "nonpayable",
      "type": "function"
    },
    {
      "constant": true,
      "inputs": [],
      "name": "getUploadedApps",
      "outputs": [
        {
          "internalType": "uint256[]",
          "name": "",
          "type": "uint256[]"
        }
      ],
      "payable": false,
      "stateMutability": "view",
      "type": "function"
    },
    {
      "constant": true,
      "inputs": [],
      "name": "getDownloadCode",
      "outputs": [
        {
          "internalType": "string",
          "name": "",
          "type": "string"
        }
      ],
      "payable": false,
      "stateMutability": "view",
      "type": "function"
    },
    {
      "constant": false,
      "inputs": [
        {
          "internalType": "string",
          "name": "newCode",
          "type": "string"
        }
      ],
      "name": "updateDownloadCode",
      "outputs": [],
      "payable": false,
      "stateMutability": "nonpayable",
      "type": "function"
    }
  ],
  "bytecode": "0x60806040526000805534801561001457600080fd5b50611584806100246000396000f3fe608060405234801561001057600080fd5b50600436106100935760003560e01c80632e8236b9116100665780632e8236b9146103bf5780634b0ec5ae1461047a5780635a8505631461066d57806361acc37e146106cc57806385d4e88d146108c557610093565b806312958f1c1461009857806318356f901461011b5780631d2e4afd1461024f5780632b5f3879146103a1575b600080fd5b6100a0610948565b6040518080602001828103825283818151815260200191508051906020019080838360005b838110156100e05780820151818401526020810190506100c5565b50505050905090810190601f16801561010d5780820380516001836020036101000a031916815260200191505b509250505060405180910390f35b61015d6004803603602081101561013157600080fd5b81019080803573ffffffffffffffffffffffffffffffffffffffff169060200190929190505050610a2a565b60405180841515151581526020018060200180602001838103835285818151815260200191508051906020019080838360005b838110156101ab578082015181840152602081019050610190565b50505050905090810190601f1680156101d85780820380516001836020036101000a031916815260200191505b50838103825284818151815260200191508051906020019080838360005b838110156102115780820151818401526020810190506101f6565b50505050905090810190601f16801561023e5780820380516001836020036101000a031916815260200191505b509550505050505060405180910390f35b61039f6004803603604081101561026557600080fd5b810190808035906020019064010000000081111561028257600080fd5b82018360208201111561029457600080fd5b803590602001918460018302840111640100000000831117156102b657600080fd5b91908080601f016020809104026020016040519081016040528093929190818152602001838380828437600081840152601f19601f8201169050808301925050505050505091929192908035906020019064010000000081111561031957600080fd5b82018360208201111561032b57600080fd5b8035906020019184600183028401116401000000008311171561034d57600080fd5b91908080601f016020809104026020016040519081016040528093929190818152602001838380828437600081840152601f19601f820116905080830192505050505050509192919290505050610b91565b005b6103a9610d87565b6040518082815260200191505060405180910390f35b610478600480360360208110156103d557600080fd5b81019080803590602001906401000000008111156103f257600080fd5b82018360208201111561040457600080fd5b8035906020019184600183028401116401000000008311171561042657600080fd5b91908080601f016020809104026020016040519081016040528093929190818152602001838380828437600081840152601f19601f820116905080830192505050505050509192919290505050610d8d565b005b61066b6004803603608081101561049057600080fd5b81019080803590602001906401000000008111156104ad57600080fd5b8201836020820111156104bf57600080fd5b803590602001918460018302840111640100000000831117156104e157600080fd5b91908080601f016020809104026020016040519081016040528093929190818152602001838380828437600081840152601f19601f8201169050808301925050505050505091929192908035906020019064010000000081111561054457600080fd5b82018360208201111561055657600080fd5b8035906020019184600183028401116401000000008311171561057857600080fd5b91908080601f016020809104026020016040519081016040528093929190818152602001838380828437600081840152601f19601f820116905080830192505050505050509192919290803590602001906401000000008111156105db57600080fd5b8201836020820111156105ed57600080fd5b8035906020019184600183028401116401000000008311171561060f57600080fd5b91908080601f016020809104026020016040519081016040528093929190818152602001838380828437600081840152601f19601f82011690508083019250505050505050919291929080359060200190929190505050610de7565b005b610675611014565b6040518080602001828103825283818151815260200191508051906020019060200280838360005b838110156106b857808201518184015260208101905061069d565b505050509050019250505060405180910390f35b6106f8600480360360208110156106e257600080fd5b81019080803590602001909291905050506110ac565b604051808781526020018060200180602001806020018060200186815260200185810385528a818151815260200191508051906020019080838360005b83811015610750578082015181840152602081019050610735565b50505050905090810190601f16801561077d5780820380516001836020036101000a031916815260200191505b50858103845289818151815260200191508051906020019080838360005b838110156107b657808201518184015260208101905061079b565b50505050905090810190601f1680156107e35780820380516001836020036101000a031916815260200191505b50858103835288818151815260200191508051906020019080838360005b8381101561081c578082015181840152602081019050610801565b50505050905090810190601f1680156108495780820380516001836020036101000a031916815260200191505b50858103825287818151815260200191508051906020019080838360005b83811015610882578082015181840152602081019050610867565b50505050905090810190601f1680156108af5780820380516001836020036101000a031916815260200191505b509a505050505050505050505060405180910390f35b6108cd611348565b6040518080602001828103825283818151815260200191508051906020019080838360005b8381101561090d5780820151818401526020810190506108f2565b50505050905090810190601f16801561093a5780820380516001836020036101000a031916815260200191505b509250505060405180910390f35b6060600260003373ffffffffffffffffffffffffffffffffffffffff1673ffffffffffffffffffffffffffffffffffffffff1681526020019081526020016000206001018054600181600116156101000203166002900480601f016020809104026020016040519081016040528092919081815260200182805460018160011615610100020316600290048015610a205780601f106109f557610100808354040283529160200191610a20565b820191906000526020600020905b815481529060010190602001808311610a0357829003601f168201915b5050505050905090565b60026020528060005260406000206000915090508060000160009054906101000a900460ff1690806001018054600181600116156101000203166002900480601f016020809104026020016040519081016040528092919081815260200182805460018160011615610100020316600290048015610ae95780601f10610abe57610100808354040283529160200191610ae9565b820191906000526020600020905b815481529060010190602001808311610acc57829003601f168201915b505050505090806002018054600181600116156101000203166002900480601f016020809104026020016040519081016040528092919081815260200182805460018160011615610100020316600290048015610b875780601f10610b5c57610100808354040283529160200191610b87565b820191906000526020600020905b815481529060010190602001808311610b6a57829003601f168201915b5050505050905083565b600082511415610c09576040517f08c379a00000000000000000000000000000000000000000000000000000000081526004018080602001828103825260188152602001807f757365726e616d652063616e6e6f7420626520656d707479000000000000000081525060200191505060405180910390fd5b6000600260003373ffffffffffffffffffffffffffffffffffffffff1673ffffffffffffffffffffffffffffffffffffffff16815260200190815260200160002060010180546001816001161561010002031660029004905014610cd5576040517f08c379a00000000000000000000000000000000000000000000000000000000081526004018080602001828103825260178152602001807f757365726e616d6520697320616c72656164792073657400000000000000000081525060200191505060405180910390fd5b81600260003373ffffffffffffffffffffffffffffffffffffffff1673ffffffffffffffffffffffffffffffffffffffff1681526020019081526020016000206001019080519060200190610d2b92919061142a565b5080600260003373ffffffffffffffffffffffffffffffffffffffff1673ffffffffffffffffffffffffffffffffffffffff1681526020019081526020016000206002019080519060200190610d8292919061142a565b505050565b60005481565b80600260003373ffffffffffffffffffffffffffffffffffffffff1673ffffffffffffffffffffffffffffffffffffffff1681526020019081526020016000206002019080519060200190610de392919061142a565b5050565b60008081548092919060010191905055506040518060c001604052806000548152602001858152602001848152602001838152602001600260003373ffffffffffffffffffffffffffffffffffffffff1673ffffffffffffffffffffffffffffffffffffffff1681526020019081526020016000206001018054600181600116156101000203166002900480601f016020809104026020016040519081016040528092919081815260200182805460018160011615610100020316600290048015610ef35780601f10610ec857610100808354040283529160200191610ef3565b820191906000526020600020905b815481529060010190602001808311610ed657829003601f168201915b50505050508152602001828152506001600080548152602001908152602001600020600082015181600001556020820151816001019080519060200190610f3b9291906114aa565b506040820151816002019080519060200190610f589291906114aa565b506060820151816003019080519060200190610f759291906114aa565b506080820151816004019080519060200190610f929291906114aa565b5060a08201518160050155905050600260003373ffffffffffffffffffffffffffffffffffffffff1673ffffffffffffffffffffffffffffffffffffffff168152602001908152602001600020600301600054908060018154018082558091505090600182039060005260206000200160009091929091909150555050505050565b6060600260003373ffffffffffffffffffffffffffffffffffffffff1673ffffffffffffffffffffffffffffffffffffffff1681526020019081526020016000206003018054806020026020016040519081016040528092919081815260200182805480156110a257602002820191906000526020600020905b81548152602001906001019080831161108e575b5050505050905090565b6001602052806000526040600020600091509050806000015490806001018054600181600116156101000203166002900480601f01602080910402602001604051908101604052809291908181526020018280546001816001161561010002031660029004801561115e5780601f106111335761010080835404028352916020019161115e565b820191906000526020600020905b81548152906001019060200180831161114157829003601f168201915b505050505090806002018054600181600116156101000203166002900480601f0160208091040260200160405190810160405280929190818152602001828054600181600116156101000203166002900480156111fc5780601f106111d1576101008083540402835291602001916111fc565b820191906000526020600020905b8154815290600101906020018083116111df57829003601f168201915b505050505090806003018054600181600116156101000203166002900480601f01602080910402602001604051908101604052809291908181526020018280546001816001161561010002031660029004801561129a5780601f1061126f5761010080835404028352916020019161129a565b820191906000526020600020905b81548152906001019060200180831161127d57829003601f168201915b505050505090806004018054600181600116156101000203166002900480601f0160208091040260200160405190810160405280929190818152602001828054600181600116156101000203166002900480156113385780601f1061130d57610100808354040283529160200191611338565b820191906000526020600020905b81548152906001019060200180831161131b57829003601f168201915b5050505050908060050154905086565b6060600260003373ffffffffffffffffffffffffffffffffffffffff1673ffffffffffffffffffffffffffffffffffffffff1681526020019081526020016000206002018054600181600116156101000203166002900480601f0160208091040260200160405190810160405280929190818152602001828054600181600116156101000203166002900480156114205780601f106113f557610100808354040283529160200191611420565b820191906000526020600020905b81548152906001019060200180831161140357829003601f168201915b5050505050905090565b828054600181600116156101000203166002900490600052602060002090601f016020900481019282601f1061146b57805160ff1916838001178555611499565b82800160010185558215611499579182015b8281111561149857825182559160200191906001019061147d565b5b5090506114a6919061152a565b5090565b828054600181600116156101000203166002900490600052602060002090601f016020900481019282601f106114eb57805160ff1916838001178555611519565b82800160010185558215611519579182015b828111156115185782518255916020019190600101906114fd565b5b509050611526919061152a565b5090565b61154c91905b80821115611548576000816000905550600101611530565b5090565b9056fea265627a7a7231582033aabeebb7eae8fae4d7e18e9eabe7069c0943ba5409b72d129649d17ea3960b64736f6c63430005100032",
  "source": "// SPDX-License-Identifier: MIT\r\npragma solidity >=0.4.22 <0.9.0;\r\n\r\ncontract AppStore {\r\n  uint public appsCount = 0; // state variable\r\n  //enum appCategory{ Education, Entertainment, News, Sports, Music, Shopping, Business}\r\n  struct ReviewAndRating{\r\n    string name;\r\n    uint rating;\r\n    string review;\r\n  }\r\n  struct AppData {\r\n    uint id;\r\n    string appName;\r\n    string category;\r\n    string appDescription;\r\n    string appDeveloper;\r\n    uint price;\r\n  //  ReviewAndRating [] reviews;\r\n  }\r\n\r\n  struct UserData {\r\n    bool isInit;\r\n    string userName;\r\n  \r\n    string downloadCode;\r\n    uint[] uploadedApps;\r\n  }\r\n  \r\n  constructor() public {\r\n  }\r\n  \r\n  mapping(uint => AppData) public apps;\r\n  mapping(address  => UserData) public userDictionary;\r\n\r\n  function getUserName()public view returns(string memory){\r\n    return userDictionary[msg.sender].userName;\r\n  }\r\n\r\n  function createApp(string memory _appName,string memory _category,string memory _appDescription,uint price) public {\r\n    appsCount++;\r\n    apps[appsCount] = AppData(appsCount, _appName, _category, _appDescription,userDictionary[msg.sender].userName ,price);\r\n    userDictionary[msg.sender].uploadedApps.push(appsCount);\r\n  }\r\n\r\n  function registerUser(string memory userName, string memory initDownloadCode)public{\r\n    require(bytes(userName).length!=0,\"username cannot be empty\");\r\n    require(bytes(userDictionary[msg.sender].userName).length==0,\"username is already set\");\r\n    userDictionary[msg.sender].userName=userName;\r\n    userDictionary[msg.sender].downloadCode=initDownloadCode;\r\n  }\r\n\r\n  function getUploadedApps() public view returns(uint[] memory){\r\n    return userDictionary[msg.sender].uploadedApps;\r\n  }\r\n\r\n  function getDownloadCode() public view returns(string memory){\r\n    return userDictionary[msg.sender].downloadCode;\r\n  }\r\n\r\n  function updateDownloadCode(string memory newCode) public {\r\n    userDictionary[msg.sender].downloadCode = newCode;\r\n  }\r\n\r\n}",
  "sourcePath": "E:\\8semester2022\\parallelProject\\DecentralizedAppStore\\AppStore\\src\\contracts\\contracts\\AppStore.sol",
  "compiler": {
    "name": "solc",
    "version": "0.5.16+commit.9c3226ce.Emscripten.clang"
  },
  "schemaVersion": "3.4.7",
  "updatedAt": "2022-09-24T17:04:15.118Z",
  "networkType": "ethereum",
  "devdoc": {
    "methods": {}
  },
  "userdoc": {
    "methods": {}
  }
}