{
  "contractName": "AppStore",
  "abi": [
    {
      "constant": true,
      "inputs": [
        {
          "internalType": "uint256",
          "name": "",
          "type": "uint256"
        }
      ],
      "name": "apps",
      "outputs": [
        {
          "internalType": "uint256",
          "name": "id",
          "type": "uint256"
        },
        {
          "internalType": "string",
          "name": "appName",
          "type": "string"
        },
        {
          "internalType": "string",
          "name": "category",
          "type": "string"
        },
        {
          "internalType": "string",
          "name": "appDescription",
          "type": "string"
        },
        {
          "internalType": "string",
          "name": "appDeveloper",
          "type": "string"
        },
        {
          "internalType": "address",
          "name": "developerAddress",
          "type": "address"
        },
        {
          "internalType": "string",
          "name": "appLogoHash",
          "type": "string"
        },
        {
          "internalType": "uint256",
          "name": "price",
          "type": "uint256"
        },
        {
          "internalType": "string",
          "name": "priceCurrency",
          "type": "string"
        }
      ],
      "payable": false,
      "stateMutability": "view",
      "type": "function"
    },
    {
      "constant": true,
      "inputs": [],
      "name": "appsCount",
      "outputs": [
        {
          "internalType": "uint256",
          "name": "",
          "type": "uint256"
        }
      ],
      "payable": false,
      "stateMutability": "view",
      "type": "function"
    },
    {
      "constant": true,
      "inputs": [
        {
          "internalType": "uint256",
          "name": "",
          "type": "uint256"
        }
      ],
      "name": "appsFilesHashes",
      "outputs": [
        {
          "internalType": "string",
          "name": "",
          "type": "string"
        }
      ],
      "payable": false,
      "stateMutability": "view",
      "type": "function"
    },
    {
      "constant": true,
      "inputs": [
        {
          "internalType": "address",
          "name": "",
          "type": "address"
        }
      ],
      "name": "userDictionary",
      "outputs": [
        {
          "internalType": "bool",
          "name": "isInit",
          "type": "bool"
        },
        {
          "internalType": "string",
          "name": "userName",
          "type": "string"
        },
        {
          "internalType": "string",
          "name": "downloadCode",
          "type": "string"
        }
      ],
      "payable": false,
      "stateMutability": "view",
      "type": "function"
    },
    {
      "constant": false,
      "inputs": [
        {
          "internalType": "string",
          "name": "_appName",
          "type": "string"
        },
        {
          "internalType": "string",
          "name": "_category",
          "type": "string"
        },
        {
          "internalType": "string",
          "name": "_appDescription",
          "type": "string"
        },
        {
          "internalType": "uint256",
          "name": "_price",
          "type": "uint256"
        },
        {
          "internalType": "string",
          "name": "_priceCurrency",
          "type": "string"
        },
        {
          "internalType": "string",
          "name": "_appLogoHash",
          "type": "string"
        },
        {
          "internalType": "string",
          "name": "_appFileHash",
          "type": "string"
        }
      ],
      "name": "createApp",
      "outputs": [],
      "payable": true,
      "stateMutability": "payable",
      "type": "function"
    },
    {
      "constant": false,
      "inputs": [
        {
          "internalType": "string",
          "name": "_userName",
          "type": "string"
        },
        {
          "internalType": "string",
          "name": "initDownloadCode",
          "type": "string"
        }
      ],
      "name": "registerUser",
      "outputs": [],
      "payable": false,
      "stateMutability": "nonpayable",
      "type": "function"
    },
    {
      "constant": false,
      "inputs": [
        {
          "internalType": "uint256",
          "name": "_appid",
          "type": "uint256"
        },
        {
          "internalType": "uint256",
          "name": "_rating",
          "type": "uint256"
        },
        {
          "internalType": "string",
          "name": "_review",
          "type": "string"
        },
        {
          "internalType": "bool",
          "name": "isAnonymous",
          "type": "bool"
        }
      ],
      "name": "addReview",
      "outputs": [],
      "payable": false,
      "stateMutability": "nonpayable",
      "type": "function"
    },
    {
      "constant": false,
      "inputs": [
        {
          "internalType": "uint256",
          "name": "_appid",
          "type": "uint256"
        },
        {
          "internalType": "uint256",
          "name": "conversionRate",
          "type": "uint256"
        }
      ],
      "name": "purchaseApp",
      "outputs": [],
      "payable": true,
      "stateMutability": "payable",
      "type": "function"
    },
    {
      "constant": true,
      "inputs": [
        {
          "internalType": "uint256",
          "name": "_appid",
          "type": "uint256"
        }
      ],
      "name": "getAppHash",
      "outputs": [
        {
          "internalType": "string",
          "name": "",
          "type": "string"
        }
      ],
      "payable": false,
      "stateMutability": "view",
      "type": "function"
    },
    {
      "constant": true,
      "inputs": [
        {
          "internalType": "address",
          "name": "_user",
          "type": "address"
        }
      ],
      "name": "isNewUser",
      "outputs": [
        {
          "internalType": "bool",
          "name": "",
          "type": "bool"
        }
      ],
      "payable": false,
      "stateMutability": "view",
      "type": "function"
    },
    {
      "constant": true,
      "inputs": [
        {
          "internalType": "address",
          "name": "_user",
          "type": "address"
        }
      ],
      "name": "getUserName",
      "outputs": [
        {
          "internalType": "string",
          "name": "",
          "type": "string"
        }
      ],
      "payable": false,
      "stateMutability": "view",
      "type": "function"
    },
    {
      "constant": true,
      "inputs": [
        {
          "internalType": "address",
          "name": "_user",
          "type": "address"
        }
      ],
      "name": "getUploadedApps",
      "outputs": [
        {
          "internalType": "uint256[]",
          "name": "",
          "type": "uint256[]"
        }
      ],
      "payable": false,
      "stateMutability": "view",
      "type": "function"
    },
    {
      "constant": true,
      "inputs": [
        {
          "internalType": "address",
          "name": "_user",
          "type": "address"
        }
      ],
      "name": "getPurchasedApps",
      "outputs": [
        {
          "internalType": "uint256[]",
          "name": "",
          "type": "uint256[]"
        }
      ],
      "payable": false,
      "stateMutability": "view",
      "type": "function"
    },
    {
      "constant": true,
      "inputs": [
        {
          "internalType": "address",
          "name": "_user",
          "type": "address"
        }
      ],
      "name": "getDownloadCode",
      "outputs": [
        {
          "internalType": "string",
          "name": "",
          "type": "string"
        }
      ],
      "payable": false,
      "stateMutability": "view",
      "type": "function"
    },
    {
      "constant": true,
      "inputs": [
        {
          "internalType": "uint256",
          "name": "appid",
          "type": "uint256"
        }
      ],
      "name": "getReviews",
      "outputs": [
        {
          "components": [
            {
              "internalType": "string",
              "name": "name",
              "type": "string"
            },
            {
              "internalType": "address",
              "name": "evaluaterAddress",
              "type": "address"
            },
            {
              "internalType": "uint256",
              "name": "rating",
              "type": "uint256"
            },
            {
              "internalType": "string",
              "name": "review",
              "type": "string"
            }
          ],
          "internalType": "struct AppStore.ReviewAndRating[]",
          "name": "",
          "type": "tuple[]"
        }
      ],
      "payable": false,
      "stateMutability": "view",
      "type": "function"
    }
  ],
  "bytecode": "0x6080604052600060035534801561001557600080fd5b50612d62806100256000396000f3fe6080604052600436106100e85760003560e01c80635bb4a8021161008a5780639d4a2255116100595780639d4a22551461031a578063b0d7959914610357578063d84f55ee14610394578063f1144c6d146103d1576100e8565b80635bb4a8021461026057806361acc37e1461029d5780637cafa744146102e257806389c107fb146102fe576100e8565b80631d2e4afd116100c65780631d2e4afd146101a65780632b5f3879146101cf5780632e5c306b146101fa5780634facffd914610223576100e8565b806307df1c61146100ed57806318356f901461012a5780631b5aca5414610169575b600080fd5b3480156100f957600080fd5b50610114600480360361010f9190810190612246565b61040e565b6040516101219190612926565b60405180910390f35b34801561013657600080fd5b50610151600480360361014c9190810190612083565b6104be565b604051610160939291906128e1565b60405180910390f35b34801561017557600080fd5b50610190600480360361018b9190810190612083565b610625565b60405161019d91906128a4565b60405180910390f35b3480156101b257600080fd5b506101cd60048036036101c891908101906120ac565b6106bf565b005b3480156101db57600080fd5b506101e46108aa565b6040516101f19190612a4a565b60405180910390f35b34801561020657600080fd5b50610221600480360361021c91908101906122ab565b6108b0565b005b34801561022f57600080fd5b5061024a60048036036102459190810190612083565b610d90565b6040516102579190612948565b60405180910390f35b34801561026c57600080fd5b5061028760048036036102829190810190612246565b610e74565b6040516102949190612948565b60405180910390f35b3480156102a957600080fd5b506102c460048036036102bf9190810190612246565b610f29565b6040516102d999989796959493929190612a65565b60405180910390f35b6102fc60048036036102f7919081019061226f565b611327565b005b61031860048036036103139190810190612118565b611653565b005b34801561032657600080fd5b50610341600480360361033c9190810190612246565b611a16565b60405161034e9190612882565b60405180910390f35b34801561036357600080fd5b5061037e60048036036103799190810190612083565b611c2e565b60405161038b91906128a4565b60405180910390f35b3480156103a057600080fd5b506103bb60048036036103b69190810190612083565b611cc8565b6040516103c89190612948565b60405180910390f35b3480156103dd57600080fd5b506103f860048036036103f39190810190612083565b611dac565b60405161040591906128c6565b60405180910390f35b60016020528060005260406000206000915090508054600181600116156101000203166002900480601f0160208091040260200160405190810160405280929190818152602001828054600181600116156101000203166002900480156104b65780601f1061048b576101008083540402835291602001916104b6565b820191906000526020600020905b81548152906001019060200180831161049957829003601f168201915b505050505081565b60026020528060005260406000206000915090508060000160009054906101000a900460ff1690806001018054600181600116156101000203166002900480601f01602080910402602001604051908101604052809291908181526020018280546001816001161561010002031660029004801561057d5780601f106105525761010080835404028352916020019161057d565b820191906000526020600020905b81548152906001019060200180831161056057829003601f168201915b505050505090806002018054600181600116156101000203166002900480601f01602080910402602001604051908101604052809291908181526020018280546001816001161561010002031660029004801561061b5780601f106105f05761010080835404028352916020019161061b565b820191906000526020600020905b8154815290600101906020018083116105fe57829003601f168201915b5050505050905083565b6060600260008373ffffffffffffffffffffffffffffffffffffffff1673ffffffffffffffffffffffffffffffffffffffff1681526020019081526020016000206004018054806020026020016040519081016040528092919081815260200182805480156106b357602002820191906000526020600020905b81548152602001906001019080831161069f575b50505050509050919050565b600082511415610704576040517f08c379a00000000000000000000000000000000000000000000000000000000081526004016106fb906129aa565b60405180910390fd5b6000600260003373ffffffffffffffffffffffffffffffffffffffff1673ffffffffffffffffffffffffffffffffffffffff1681526020019081526020016000206001018054600181600116156101000203166002900490501461079d576040517f08c379a00000000000000000000000000000000000000000000000000000000081526004016107949061298a565b60405180910390fd5b81600260003373ffffffffffffffffffffffffffffffffffffffff1673ffffffffffffffffffffffffffffffffffffffff16815260200190815260200160002060010190805190602001906107f3929190611e06565b506001600260003373ffffffffffffffffffffffffffffffffffffffff1673ffffffffffffffffffffffffffffffffffffffff16815260200190815260200160002060000160006101000a81548160ff02191690831515021790555080600260003373ffffffffffffffffffffffffffffffffffffffff1673ffffffffffffffffffffffffffffffffffffffff16815260200190815260200160002060020190805190602001906108a5929190611e06565b505050565b60035481565b60008085815260200190815260200160002060050160009054906101000a900473ffffffffffffffffffffffffffffffffffffffff1673ffffffffffffffffffffffffffffffffffffffff163373ffffffffffffffffffffffffffffffffffffffff161415610954576040517f08c379a000000000000000000000000000000000000000000000000000000000815260040161094b90612a2a565b60405180910390fd5b60008090505b60008086815260200190815260200160002060090180549050811015610a47573373ffffffffffffffffffffffffffffffffffffffff1660008087815260200190815260200160002060090182815481106109b157fe5b906000526020600020906004020160010160009054906101000a900473ffffffffffffffffffffffffffffffffffffffff1673ffffffffffffffffffffffffffffffffffffffff161415610a3a576040517f08c379a0000000000000000000000000000000000000000000000000000000008152600401610a31906129ca565b60405180910390fd5b808060010191505061095a565b50600080905060008090505b600260003373ffffffffffffffffffffffffffffffffffffffff1673ffffffffffffffffffffffffffffffffffffffff16815260200190815260200160002060040180549050811015610b155785600260003373ffffffffffffffffffffffffffffffffffffffff1673ffffffffffffffffffffffffffffffffffffffff1681526020019081526020016000206004018281548110610aee57fe5b90600052602060002001541415610b085760019150610b15565b8080600101915050610a53565b506001151581151514610b5d576040517f08c379a0000000000000000000000000000000000000000000000000000000008152600401610b5490612a0a565b60405180910390fd5b610b65611e86565b604051806080016040528084610c5557600260003373ffffffffffffffffffffffffffffffffffffffff1673ffffffffffffffffffffffffffffffffffffffff1681526020019081526020016000206001018054600181600116156101000203166002900480601f016020809104026020016040519081016040528092919081815260200182805460018160011615610100020316600290048015610c4b5780601f10610c2057610100808354040283529160200191610c4b565b820191906000526020600020905b815481529060010190602001808311610c2e57829003601f168201915b5050505050610c8c565b6040518060400160405280600981526020017f416e6f6e796d6f757300000000000000000000000000000000000000000000008152505b81526020013373ffffffffffffffffffffffffffffffffffffffff16815260200186815260200185815250905060008087815260200190815260200160002060090181908060018154018082558091505090600182039060005260206000209060040201600090919290919091506000820151816000019080519060200190610d16929190611ec4565b5060208201518160010160006101000a81548173ffffffffffffffffffffffffffffffffffffffff021916908373ffffffffffffffffffffffffffffffffffffffff160217905550604082015181600201556060820151816003019080519060200190610d84929190611ec4565b50505050505050505050565b6060600260008373ffffffffffffffffffffffffffffffffffffffff1673ffffffffffffffffffffffffffffffffffffffff1681526020019081526020016000206002018054600181600116156101000203166002900480601f016020809104026020016040519081016040528092919081815260200182805460018160011615610100020316600290048015610e685780601f10610e3d57610100808354040283529160200191610e68565b820191906000526020600020905b815481529060010190602001808311610e4b57829003601f168201915b50505050509050919050565b6060600160008381526020019081526020016000208054600181600116156101000203166002900480601f016020809104026020016040519081016040528092919081815260200182805460018160011615610100020316600290048015610f1d5780601f10610ef257610100808354040283529160200191610f1d565b820191906000526020600020905b815481529060010190602001808311610f0057829003601f168201915b50505050509050919050565b6000602052806000526040600020600091509050806000015490806001018054600181600116156101000203166002900480601f016020809104026020016040519081016040528092919081815260200182805460018160011615610100020316600290048015610fdb5780601f10610fb057610100808354040283529160200191610fdb565b820191906000526020600020905b815481529060010190602001808311610fbe57829003601f168201915b505050505090806002018054600181600116156101000203166002900480601f0160208091040260200160405190810160405280929190818152602001828054600181600116156101000203166002900480156110795780601f1061104e57610100808354040283529160200191611079565b820191906000526020600020905b81548152906001019060200180831161105c57829003601f168201915b505050505090806003018054600181600116156101000203166002900480601f0160208091040260200160405190810160405280929190818152602001828054600181600116156101000203166002900480156111175780601f106110ec57610100808354040283529160200191611117565b820191906000526020600020905b8154815290600101906020018083116110fa57829003601f168201915b505050505090806004018054600181600116156101000203166002900480601f0160208091040260200160405190810160405280929190818152602001828054600181600116156101000203166002900480156111b55780601f1061118a576101008083540402835291602001916111b5565b820191906000526020600020905b81548152906001019060200180831161119857829003601f168201915b5050505050908060050160009054906101000a900473ffffffffffffffffffffffffffffffffffffffff1690806006018054600181600116156101000203166002900480601f0160208091040260200160405190810160405280929190818152602001828054600181600116156101000203166002900480156112795780601f1061124e57610100808354040283529160200191611279565b820191906000526020600020905b81548152906001019060200180831161125c57829003601f168201915b505050505090806007015490806008018054600181600116156101000203166002900480601f01602080910402602001604051908101604052809291908181526020018280546001816001161561010002031660029004801561131d5780601f106112f25761010080835404028352916020019161131d565b820191906000526020600020905b81548152906001019060200180831161130057829003601f168201915b5050505050905089565b600080838152602001908152602001600020600801604051611349919061286b565b60405180910390206040518060400160405280600381526020017f45544800000000000000000000000000000000000000000000000000000000008152508051906020012014156113f157600080838152602001908152602001600020600701543410156113ec576040517f08c379a00000000000000000000000000000000000000000000000000000000081526004016113e39061296a565b60405180910390fd5b611456565b60008083815260200190815260200160002060070154600182348161141257fe5b04011015611455576040517f08c379a000000000000000000000000000000000000000000000000000000000815260040161144c9061296a565b60405180910390fd5b5b60008090505b600260003373ffffffffffffffffffffffffffffffffffffffff1673ffffffffffffffffffffffffffffffffffffffff1681526020019081526020016000206004018054905081101561151b5782600260003373ffffffffffffffffffffffffffffffffffffffff1673ffffffffffffffffffffffffffffffffffffffff16815260200190815260200160002060040182815481106114f757fe5b9060005260206000200154141561150e575061164f565b808060010191505061145c565b5060008090505b600260003373ffffffffffffffffffffffffffffffffffffffff1673ffffffffffffffffffffffffffffffffffffffff168152602001908152602001600020600301805490508110156115e15782600260003373ffffffffffffffffffffffffffffffffffffffff1673ffffffffffffffffffffffffffffffffffffffff16815260200190815260200160002060030182815481106115bd57fe5b906000526020600020015414156115d4575061164f565b8080600101915050611522565b50600260003373ffffffffffffffffffffffffffffffffffffffff1673ffffffffffffffffffffffffffffffffffffffff1681526020019081526020016000206004018290806001815401808255809150509060018203906000526020600020016000909192909190915055505b5050565b60008090505b600260003373ffffffffffffffffffffffffffffffffffffffff1673ffffffffffffffffffffffffffffffffffffffff1681526020019081526020016000206003018054905081101561177d578780519060200120600080600260003373ffffffffffffffffffffffffffffffffffffffff1673ffffffffffffffffffffffffffffffffffffffff16815260200190815260200160002060030184815481106116fe57fe5b90600052602060002001548152602001908152602001600020600101604051611727919061286b565b60405180910390201415611770576040517f08c379a0000000000000000000000000000000000000000000000000000000008152600401611767906129ea565b60405180910390fd5b8080600101915050611659565b5060036000815480929190600101919050555060035460008060035481526020019081526020016000206000018190555086600080600354815260200190815260200160002060010190805190602001906117d9929190611e06565b508560008060035481526020019081526020016000206002019080519060200190611805929190611e06565b508460008060035481526020019081526020016000206003019080519060200190611831929190611e06565b50816000806003548152602001908152602001600020600601908051906020019061185d929190611e06565b50600260003373ffffffffffffffffffffffffffffffffffffffff1673ffffffffffffffffffffffffffffffffffffffff168152602001908152602001600020600101600080600354815260200190815260200160002060040190805460018160011615610100020316600290046118d6929190611f44565b5083600080600354815260200190815260200160002060070181905550826000806003548152602001908152602001600020600801908051906020019061191e929190611e06565b5033600080600354815260200190815260200160002060050160006101000a81548173ffffffffffffffffffffffffffffffffffffffff021916908373ffffffffffffffffffffffffffffffffffffffff16021790555080600160006003548152602001908152602001600020908051906020019061199e929190611e06565b50600260003373ffffffffffffffffffffffffffffffffffffffff1673ffffffffffffffffffffffffffffffffffffffff168152602001908152602001600020600301600354908060018154018082558091505090600182039060005260206000200160009091929091909150555050505050505050565b6060600080838152602001908152602001600020600901805480602002602001604051908101604052809291908181526020016000905b82821015611c235783829060005260206000209060040201604051806080016040529081600082018054600181600116156101000203166002900480601f016020809104026020016040519081016040528092919081815260200182805460018160011615610100020316600290048015611b095780601f10611ade57610100808354040283529160200191611b09565b820191906000526020600020905b815481529060010190602001808311611aec57829003601f168201915b505050505081526020016001820160009054906101000a900473ffffffffffffffffffffffffffffffffffffffff1673ffffffffffffffffffffffffffffffffffffffff1673ffffffffffffffffffffffffffffffffffffffff16815260200160028201548152602001600382018054600181600116156101000203166002900480601f016020809104026020016040519081016040528092919081815260200182805460018160011615610100020316600290048015611c0b5780601f10611be057610100808354040283529160200191611c0b565b820191906000526020600020905b815481529060010190602001808311611bee57829003601f168201915b50505050508152505081526020019060010190611a4d565b505050509050919050565b6060600260008373ffffffffffffffffffffffffffffffffffffffff1673ffffffffffffffffffffffffffffffffffffffff168152602001908152602001600020600301805480602002602001604051908101604052809291908181526020018280548015611cbc57602002820191906000526020600020905b815481526020019060010190808311611ca8575b50505050509050919050565b6060600260008373ffffffffffffffffffffffffffffffffffffffff1673ffffffffffffffffffffffffffffffffffffffff1681526020019081526020016000206001018054600181600116156101000203166002900480601f016020809104026020016040519081016040528092919081815260200182805460018160011615610100020316600290048015611da05780601f10611d7557610100808354040283529160200191611da0565b820191906000526020600020905b815481529060010190602001808311611d8357829003601f168201915b50505050509050919050565b6000600260008373ffffffffffffffffffffffffffffffffffffffff1673ffffffffffffffffffffffffffffffffffffffff16815260200190815260200160002060000160009054906101000a900460ff16159050919050565b828054600181600116156101000203166002900490600052602060002090601f016020900481019282601f10611e4757805160ff1916838001178555611e75565b82800160010185558215611e75579182015b82811115611e74578251825591602001919060010190611e59565b5b509050611e829190611fcb565b5090565b604051806080016040528060608152602001600073ffffffffffffffffffffffffffffffffffffffff16815260200160008152602001606081525090565b828054600181600116156101000203166002900490600052602060002090601f016020900481019282601f10611f0557805160ff1916838001178555611f33565b82800160010185558215611f33579182015b82811115611f32578251825591602001919060010190611f17565b5b509050611f409190611fcb565b5090565b828054600181600116156101000203166002900490600052602060002090601f016020900481019282601f10611f7d5780548555611fba565b82800160010185558215611fba57600052602060002091601f016020900482015b82811115611fb9578254825591600101919060010190611f9e565b5b509050611fc79190611fcb565b5090565b611fed91905b80821115611fe9576000816000905550600101611fd1565b5090565b90565b600081359050611fff81612cda565b92915050565b60008135905061201481612cf1565b92915050565b600082601f83011261202b57600080fd5b813561203e61203982612b49565b612b1c565b9150808252602083016020830185838301111561205a57600080fd5b612065838284612c87565b50505092915050565b60008135905061207d81612d08565b92915050565b60006020828403121561209557600080fd5b60006120a384828501611ff0565b91505092915050565b600080604083850312156120bf57600080fd5b600083013567ffffffffffffffff8111156120d957600080fd5b6120e58582860161201a565b925050602083013567ffffffffffffffff81111561210257600080fd5b61210e8582860161201a565b9150509250929050565b600080600080600080600060e0888a03121561213357600080fd5b600088013567ffffffffffffffff81111561214d57600080fd5b6121598a828b0161201a565b975050602088013567ffffffffffffffff81111561217657600080fd5b6121828a828b0161201a565b965050604088013567ffffffffffffffff81111561219f57600080fd5b6121ab8a828b0161201a565b95505060606121bc8a828b0161206e565b945050608088013567ffffffffffffffff8111156121d957600080fd5b6121e58a828b0161201a565b93505060a088013567ffffffffffffffff81111561220257600080fd5b61220e8a828b0161201a565b92505060c088013567ffffffffffffffff81111561222b57600080fd5b6122378a828b0161201a565b91505092959891949750929550565b60006020828403121561225857600080fd5b60006122668482850161206e565b91505092915050565b6000806040838503121561228257600080fd5b60006122908582860161206e565b92505060206122a18582860161206e565b9150509250929050565b600080600080608085870312156122c157600080fd5b60006122cf8782880161206e565b94505060206122e08782880161206e565b935050604085013567ffffffffffffffff8111156122fd57600080fd5b6123098782880161201a565b925050606061231a87828801612005565b91505092959194509250565b600061233283836127e3565b905092915050565b6000612346838361284d565b60208301905092915050565b61235b81612c3f565b82525050565b61236a81612c3f565b82525050565b600061237b82612baa565b6123858185612bf0565b93508360208202850161239785612b75565b8060005b858110156123d357848403895281516123b48582612326565b94506123bf83612bd6565b925060208a0199505060018101905061239b565b50829750879550505050505092915050565b60006123f082612bb5565b6123fa8185612c01565b935061240583612b85565b8060005b8381101561243657815161241d888261233a565b975061242883612be3565b925050600181019050612409565b5085935050505092915050565b61244c81612c51565b82525050565b60008154600181166000811461246f5760018114612494576124d8565b607f60028304166124808187612c12565b955060ff19831686528086019350506124d8565b600282046124a28187612c12565b95506124ad85612b95565b60005b828110156124cf578154818901526001820191506020810190506124b0565b82880195505050505b505092915050565b60006124eb82612bcb565b6124f58185612c2e565b9350612505818560208601612c96565b61250e81612cc9565b840191505092915050565b600061252482612bc0565b61252e8185612c1d565b935061253e818560208601612c96565b61254781612cc9565b840191505092915050565b600061255d82612bc0565b6125678185612c2e565b9350612577818560208601612c96565b61258081612cc9565b840191505092915050565b6000612598601183612c2e565b91507f4e6f7420656e6f756768206d6f6e6579210000000000000000000000000000006000830152602082019050919050565b60006125d8602383612c2e565b91507f74686973206163636f756e7420697320616c726561647920726567697374657260008301527f65642100000000000000000000000000000000000000000000000000000000006020830152604082019050919050565b600061263e601883612c2e565b91507f757365726e616d652063616e6e6f7420626520656d70747900000000000000006000830152602082019050919050565b600061267e602283612c2e565b91507f796f752063616e20726576696577207468697320617070206f6e6c79206f6e6360008301527f65210000000000000000000000000000000000000000000000000000000000006020830152604082019050919050565b60006126e4602c83612c2e565b91507f796f7520616c7265616479207075626c697368656420616e206170702077697460008301527f682074686973206e616d652100000000000000000000000000000000000000006020830152604082019050919050565b600061274a602c83612c2e565b91507f796f752063616e6e6f742072657669657720616e2061707020796f752064696460008301527f6e742070757263686173652100000000000000000000000000000000000000006020830152604082019050919050565b60006127b0601b83612c2e565b91507f796f752063616e6e6f742072657669657720796f7572206170702100000000006000830152602082019050919050565b600060808301600083015184820360008601526128008282612519565b91505060208301516128156020860182612352565b506040830151612828604086018261284d565b50606083015184820360608601526128408282612519565b9150508091505092915050565b61285681612c7d565b82525050565b61286581612c7d565b82525050565b60006128778284612452565b915081905092915050565b6000602082019050818103600083015261289c8184612370565b905092915050565b600060208201905081810360008301526128be81846123e5565b905092915050565b60006020820190506128db6000830184612443565b92915050565b60006060820190506128f66000830186612443565b81810360208301526129088185612552565b9050818103604083015261291c8184612552565b9050949350505050565b600060208201905081810360008301526129408184612552565b905092915050565b6000602082019050818103600083015261296281846124e0565b905092915050565b600060208201905081810360008301526129838161258b565b9050919050565b600060208201905081810360008301526129a3816125cb565b9050919050565b600060208201905081810360008301526129c381612631565b9050919050565b600060208201905081810360008301526129e381612671565b9050919050565b60006020820190508181036000830152612a03816126d7565b9050919050565b60006020820190508181036000830152612a238161273d565b9050919050565b60006020820190508181036000830152612a43816127a3565b9050919050565b6000602082019050612a5f600083018461285c565b92915050565b600061012082019050612a7b600083018c61285c565b8181036020830152612a8d818b612552565b90508181036040830152612aa1818a612552565b90508181036060830152612ab58189612552565b90508181036080830152612ac98188612552565b9050612ad860a0830187612361565b81810360c0830152612aea8186612552565b9050612af960e083018561285c565b818103610100830152612b0c8184612552565b90509a9950505050505050505050565b6000604051905081810181811067ffffffffffffffff82111715612b3f57600080fd5b8060405250919050565b600067ffffffffffffffff821115612b6057600080fd5b601f19601f8301169050602081019050919050565b6000819050602082019050919050565b6000819050602082019050919050565b60008190508160005260206000209050919050565b600081519050919050565b600081519050919050565b600081519050919050565b600081519050919050565b6000602082019050919050565b6000602082019050919050565b600082825260208201905092915050565b600082825260208201905092915050565b600081905092915050565b600082825260208201905092915050565b600082825260208201905092915050565b6000612c4a82612c5d565b9050919050565b60008115159050919050565b600073ffffffffffffffffffffffffffffffffffffffff82169050919050565b6000819050919050565b82818337600083830152505050565b60005b83811015612cb4578082015181840152602081019050612c99565b83811115612cc3576000848401525b50505050565b6000601f19601f8301169050919050565b612ce381612c3f565b8114612cee57600080fd5b50565b612cfa81612c51565b8114612d0557600080fd5b50565b612d1181612c7d565b8114612d1c57600080fd5b5056fea365627a7a72315820797a484cfd5c4ec377f575b7e71abec1836eb3b93ba10a1bae08e416d49b343b6c6578706572696d656e74616cf564736f6c63430005100040",
  "source": "// SPDX-License-Identifier: MIT\r\npragma solidity >=0.4.22 <0.9.0;\r\npragma experimental ABIEncoderV2;\r\n\r\ncontract AppStore {\r\n\r\n  mapping(uint => AppData) public apps;\r\n  mapping(uint  => string) public appsFilesHashes;\r\n  mapping(address  => UserData) public userDictionary;\r\n  uint public appsCount = 0; \r\n\r\n  struct UserData {\r\n    bool isInit;\r\n    string userName;\r\n    string downloadCode;\r\n    uint[] uploadedApps;\r\n    uint[] purchasedApps;\r\n  }\r\n\r\n  struct AppData {\r\n    uint id;\r\n    string appName;\r\n    string category;\r\n    string appDescription;\r\n    string appDeveloper;\r\n    address developerAddress;\r\n    string appLogoHash;\r\n    uint price;\r\n    string priceCurrency;\r\n    ReviewAndRating [] reviews;\r\n  }\r\n\r\n  struct ReviewAndRating{\r\n    string name;\r\n    address evaluaterAddress;\r\n    uint rating;\r\n    string review;\r\n  }\r\n\r\n  function createApp(string memory _appName,string memory _category,string memory _appDescription,uint _price,string memory _priceCurrency, string memory _appLogoHash,string memory _appFileHash) public payable {\r\n    for (uint i = 0; i < userDictionary[msg.sender].uploadedApps.length; i++) {\r\n      require(keccak256(bytes(apps[userDictionary[msg.sender].uploadedApps[i]].appName))!=keccak256(bytes(_appName)),'you already published an app with this name!');\r\n    }\r\n    appsCount++;\r\n    apps[appsCount].id=appsCount;\r\n    apps[appsCount].appName=_appName;\r\n    apps[appsCount].category=_category;\r\n    apps[appsCount].appDescription=_appDescription;\r\n    apps[appsCount].appLogoHash=_appLogoHash;\r\n    apps[appsCount].appDeveloper=userDictionary[msg.sender].userName;\r\n    apps[appsCount].price=_price;\r\n    apps[appsCount].priceCurrency=_priceCurrency;\r\n    apps[appsCount].developerAddress=msg.sender;\r\n    appsFilesHashes[appsCount]=_appFileHash;\r\n    userDictionary[msg.sender].uploadedApps.push(appsCount);\r\n  }\r\n\r\n\r\n  function registerUser(string memory _userName, string memory initDownloadCode)public{\r\n    require(bytes(_userName).length!=0,\"username cannot be empty\");\r\n    require(bytes(userDictionary[msg.sender].userName).length==0,'this account is already registered!');\r\n    userDictionary[msg.sender].userName=_userName;\r\n    userDictionary[msg.sender].isInit=true;\r\n    userDictionary[msg.sender].downloadCode=initDownloadCode;\r\n  }\r\n\r\n\r\n  function addReview(uint _appid,uint _rating,string memory _review,bool isAnonymous) public {\r\n    require(msg.sender!=apps[_appid].developerAddress,'you cannot review your app!');\r\n    for (uint i = 0; i < apps[_appid].reviews.length; i++) {\r\n        require(apps[_appid].reviews[i].evaluaterAddress!=msg.sender,'you can review this app only once!');\r\n    }\r\n    bool appPurchased=false;\r\n    for (uint i = 0; i < userDictionary[msg.sender].purchasedApps.length; i++) {\r\n      if(userDictionary[msg.sender].purchasedApps[i]==_appid){\r\n        appPurchased=true;\r\n        break;\r\n      }\r\n    }\r\n    require(appPurchased==true,'you cannot review an app you didnt purchase!');\r\n    ReviewAndRating memory NewReview=ReviewAndRating(isAnonymous?'Anonymous':userDictionary[msg.sender].userName, msg.sender, _rating, _review);\r\n    apps[_appid].reviews.push(NewReview);\r\n  }\r\n\r\n\r\n  function purchaseApp(uint _appid,uint conversionRate)public payable{\r\n       if(keccak256(bytes(\"ETH\"))==keccak256(bytes(apps[_appid].priceCurrency))){\r\n         require(msg.value>=apps[_appid].price,\"Not enough money!\");\r\n       }else{\r\n         require((msg.value/conversionRate)+1>=apps[_appid].price,\"Not enough money!\");\r\n       }\r\n    for (uint i = 0; i < userDictionary[msg.sender].purchasedApps.length; i++) {\r\n        if(userDictionary[msg.sender].purchasedApps[i]==_appid){\r\n          return;\r\n        }\r\n    }\r\n    for (uint i = 0; i < userDictionary[msg.sender].uploadedApps.length; i++) {\r\n        if(userDictionary[msg.sender].uploadedApps[i]==_appid){\r\n          return;\r\n        }\r\n    }\r\n      userDictionary[msg.sender].purchasedApps.push(_appid);\r\n     // apps[_appid].developerAddress.send(msg.value);\r\n  }\r\n\r\n\r\n  function getAppHash(uint _appid)public view returns(string memory){\r\n    return appsFilesHashes[_appid];\r\n  } \r\n\r\n\r\n  function isNewUser(address _user)public view returns(bool){\r\n    return !userDictionary[_user].isInit;\r\n  } \r\n\r\n\r\n  function getUserName(address _user)public view returns(string memory){\r\n    return userDictionary[_user].userName;\r\n  }\r\n\r\n\r\n  function getUploadedApps(address _user) public view returns(uint[] memory){\r\n    return userDictionary[_user].uploadedApps;\r\n  }\r\n\r\n\r\n  function getPurchasedApps(address _user) public view returns(uint[] memory){\r\n    return userDictionary[_user].purchasedApps;\r\n  }\r\n\r\n\r\n  function getDownloadCode(address _user) public view returns(string memory){\r\n    return userDictionary[_user].downloadCode;\r\n  }\r\n\r\n\r\n  function getReviews(uint appid) public view returns(ReviewAndRating [] memory ){\r\n    return apps[appid].reviews;\r\n  }\r\n\r\n}\r\n",
  "sourcePath": "E:\\8semester2022\\parallelProject\\DecentralizedAppStore\\AppStore\\src\\contracts\\contracts\\AppStore.sol",
  "compiler": {
    "name": "solc",
    "version": "0.5.16+commit.9c3226ce.Emscripten.clang"
  },
  "schemaVersion": "3.4.7",
  "updatedAt": "2022-11-14T22:39:23.659Z",
  "networkType": "ethereum",
  "devdoc": {
    "methods": {}
  },
  "userdoc": {
    "methods": {}
  }
}