{
  "contractName": "AppStore",
  "abi": [
    {
      "constant": true,
      "inputs": [
        {
          "internalType": "uint256",
          "name": "",
          "type": "uint256"
        }
      ],
      "name": "apps",
      "outputs": [
        {
          "internalType": "uint256",
          "name": "id",
          "type": "uint256"
        },
        {
          "internalType": "string",
          "name": "appName",
          "type": "string"
        },
        {
          "internalType": "string",
          "name": "category",
          "type": "string"
        },
        {
          "internalType": "string",
          "name": "appDescription",
          "type": "string"
        },
        {
          "internalType": "string",
          "name": "appDeveloper",
          "type": "string"
        },
        {
          "internalType": "address",
          "name": "developerAddress",
          "type": "address"
        },
        {
          "internalType": "string",
          "name": "appLogoHash",
          "type": "string"
        },
        {
          "internalType": "uint256",
          "name": "price",
          "type": "uint256"
        }
      ],
      "payable": false,
      "stateMutability": "view",
      "type": "function"
    },
    {
      "constant": true,
      "inputs": [],
      "name": "appsCount",
      "outputs": [
        {
          "internalType": "uint256",
          "name": "",
          "type": "uint256"
        }
      ],
      "payable": false,
      "stateMutability": "view",
      "type": "function"
    },
    {
      "constant": true,
      "inputs": [
        {
          "internalType": "address",
          "name": "",
          "type": "address"
        }
      ],
      "name": "userDictionary",
      "outputs": [
        {
          "internalType": "bool",
          "name": "isInit",
          "type": "bool"
        },
        {
          "internalType": "string",
          "name": "userName",
          "type": "string"
        },
        {
          "internalType": "string",
          "name": "downloadCode",
          "type": "string"
        }
      ],
      "payable": false,
      "stateMutability": "view",
      "type": "function"
    },
    {
      "constant": false,
      "inputs": [
        {
          "internalType": "string",
          "name": "_appName",
          "type": "string"
        },
        {
          "internalType": "string",
          "name": "_category",
          "type": "string"
        },
        {
          "internalType": "string",
          "name": "_appDescription",
          "type": "string"
        },
        {
          "internalType": "uint256",
          "name": "price",
          "type": "uint256"
        },
        {
          "internalType": "string",
          "name": "_appLogoHash",
          "type": "string"
        }
      ],
      "name": "createApp",
      "outputs": [],
      "payable": false,
      "stateMutability": "nonpayable",
      "type": "function"
    },
    {
      "constant": false,
      "inputs": [
        {
          "internalType": "string",
          "name": "_userName",
          "type": "string"
        },
        {
          "internalType": "string",
          "name": "initDownloadCode",
          "type": "string"
        }
      ],
      "name": "registerUser",
      "outputs": [],
      "payable": false,
      "stateMutability": "nonpayable",
      "type": "function"
    },
    {
      "constant": false,
      "inputs": [
        {
          "internalType": "uint256",
          "name": "_appid",
          "type": "uint256"
        },
        {
          "internalType": "uint256",
          "name": "_rating",
          "type": "uint256"
        },
        {
          "internalType": "string",
          "name": "_review",
          "type": "string"
        },
        {
          "internalType": "bool",
          "name": "isAnonymous",
          "type": "bool"
        }
      ],
      "name": "addReview",
      "outputs": [],
      "payable": false,
      "stateMutability": "nonpayable",
      "type": "function"
    },
    {
      "constant": true,
      "inputs": [
        {
          "internalType": "address",
          "name": "_user",
          "type": "address"
        }
      ],
      "name": "isNewUser",
      "outputs": [
        {
          "internalType": "bool",
          "name": "",
          "type": "bool"
        }
      ],
      "payable": false,
      "stateMutability": "view",
      "type": "function"
    },
    {
      "constant": true,
      "inputs": [
        {
          "internalType": "address",
          "name": "_user",
          "type": "address"
        }
      ],
      "name": "getUserName",
      "outputs": [
        {
          "internalType": "string",
          "name": "",
          "type": "string"
        }
      ],
      "payable": false,
      "stateMutability": "view",
      "type": "function"
    },
    {
      "constant": true,
      "inputs": [
        {
          "internalType": "address",
          "name": "_user",
          "type": "address"
        }
      ],
      "name": "getUploadedApps",
      "outputs": [
        {
          "internalType": "uint256[]",
          "name": "",
          "type": "uint256[]"
        }
      ],
      "payable": false,
      "stateMutability": "view",
      "type": "function"
    },
    {
      "constant": true,
      "inputs": [
        {
          "internalType": "address",
          "name": "_user",
          "type": "address"
        }
      ],
      "name": "getDownloadCode",
      "outputs": [
        {
          "internalType": "string",
          "name": "",
          "type": "string"
        }
      ],
      "payable": false,
      "stateMutability": "view",
      "type": "function"
    },
    {
      "constant": true,
      "inputs": [
        {
          "internalType": "uint256",
          "name": "appid",
          "type": "uint256"
        }
      ],
      "name": "getReviews",
      "outputs": [
        {
          "components": [
            {
              "internalType": "string",
              "name": "name",
              "type": "string"
            },
            {
              "internalType": "address",
              "name": "evaluaterAddress",
              "type": "address"
            },
            {
              "internalType": "uint256",
              "name": "rating",
              "type": "uint256"
            },
            {
              "internalType": "string",
              "name": "review",
              "type": "string"
            }
          ],
          "internalType": "struct AppStore.ReviewAndRating[]",
          "name": "",
          "type": "tuple[]"
        }
      ],
      "payable": false,
      "stateMutability": "view",
      "type": "function"
    },
    {
      "constant": false,
      "inputs": [
        {
          "internalType": "string",
          "name": "newCode",
          "type": "string"
        }
      ],
      "name": "updateDownloadCode",
      "outputs": [],
      "payable": false,
      "stateMutability": "nonpayable",
      "type": "function"
    }
  ],
  "bytecode": "0x6080604052600060025534801561001557600080fd5b506123a6806100256000396000f3fe608060405234801561001057600080fd5b50600436106100b45760003560e01c806361acc37e1161007157806361acc37e1461018d578063766289ed146101c45780639d4a2255146101e0578063b0d7959914610210578063d84f55ee14610240578063f1144c6d14610270576100b4565b806318356f90146100b95780631d2e4afd146100eb5780632b5f3879146101075780632e5c306b146101255780632e8236b9146101415780634facffd91461015d575b600080fd5b6100d360048036036100ce9190810190611837565b6102a0565b6040516100e293929190611f9d565b60405180910390f35b610105600480360361010091908101906118a1565b610407565b005b61010f6105f1565b60405161011c91906120a4565b60405180910390f35b61013f600480360361013a9190810190611a0d565b6105f7565b005b61015b60048036036101569190810190611860565b6109c1565b005b61017760048036036101729190810190611837565b610a1b565b6040516101849190611fe2565b60405180910390f35b6101a760048036036101a291908101906119e4565b610aff565b6040516101bb9897969594939291906120bf565b60405180910390f35b6101de60048036036101d9919081019061190d565b610e5f565b005b6101fa60048036036101f591908101906119e4565b6111ca565b6040516102079190611f3e565b60405180910390f35b61022a60048036036102259190810190611837565b6113e2565b6040516102379190611f60565b60405180910390f35b61025a60048036036102559190810190611837565b61147c565b6040516102679190611fe2565b60405180910390f35b61028a60048036036102859190810190611837565b611560565b6040516102979190611f82565b60405180910390f35b60016020528060005260406000206000915090508060000160009054906101000a900460ff1690806001018054600181600116156101000203166002900480601f01602080910402602001604051908101604052809291908181526020018280546001816001161561010002031660029004801561035f5780601f106103345761010080835404028352916020019161035f565b820191906000526020600020905b81548152906001019060200180831161034257829003601f168201915b505050505090806002018054600181600116156101000203166002900480601f0160208091040260200160405190810160405280929190818152602001828054600181600116156101000203166002900480156103fd5780601f106103d2576101008083540402835291602001916103fd565b820191906000526020600020905b8154815290600101906020018083116103e057829003601f168201915b5050505050905083565b60008251141561044c576040517f08c379a000000000000000000000000000000000000000000000000000000000815260040161044390612024565b60405180910390fd5b6000600160003373ffffffffffffffffffffffffffffffffffffffff1673ffffffffffffffffffffffffffffffffffffffff168152602001908152602001600020600101805460018160011615610100020316600290049050146104e5576040517f08c379a00000000000000000000000000000000000000000000000000000000081526004016104dc90612004565b60405180910390fd5b81600160003373ffffffffffffffffffffffffffffffffffffffff1673ffffffffffffffffffffffffffffffffffffffff168152602001908152602001600020600101908051906020019061053b9291906115ba565b5060018060003373ffffffffffffffffffffffffffffffffffffffff1673ffffffffffffffffffffffffffffffffffffffff16815260200190815260200160002060000160006101000a81548160ff02191690831515021790555080600160003373ffffffffffffffffffffffffffffffffffffffff1673ffffffffffffffffffffffffffffffffffffffff16815260200190815260200160002060020190805190602001906105ec9291906115ba565b505050565b60025481565b60008085815260200190815260200160002060050160009054906101000a900473ffffffffffffffffffffffffffffffffffffffff1673ffffffffffffffffffffffffffffffffffffffff163373ffffffffffffffffffffffffffffffffffffffff16141561069b576040517f08c379a000000000000000000000000000000000000000000000000000000000815260040161069290612084565b60405180910390fd5b60008090505b6000808681526020019081526020016000206008018054905081101561078e573373ffffffffffffffffffffffffffffffffffffffff1660008087815260200190815260200160002060080182815481106106f857fe5b906000526020600020906004020160010160009054906101000a900473ffffffffffffffffffffffffffffffffffffffff1673ffffffffffffffffffffffffffffffffffffffff161415610781576040517f08c379a000000000000000000000000000000000000000000000000000000000815260040161077890612044565b60405180910390fd5b80806001019150506106a1565b5061079761163a565b60405180608001604052808361088757600160003373ffffffffffffffffffffffffffffffffffffffff1673ffffffffffffffffffffffffffffffffffffffff1681526020019081526020016000206001018054600181600116156101000203166002900480601f01602080910402602001604051908101604052809291908181526020018280546001816001161561010002031660029004801561087d5780601f106108525761010080835404028352916020019161087d565b820191906000526020600020905b81548152906001019060200180831161086057829003601f168201915b50505050506108be565b6040518060400160405280600981526020017f416e6f6e796d6f757300000000000000000000000000000000000000000000008152505b81526020013373ffffffffffffffffffffffffffffffffffffffff16815260200185815260200184815250905060008086815260200190815260200160002060080181908060018154018082558091505090600182039060005260206000209060040201600090919290919091506000820151816000019080519060200190610948929190611678565b5060208201518160010160006101000a81548173ffffffffffffffffffffffffffffffffffffffff021916908373ffffffffffffffffffffffffffffffffffffffff1602179055506040820151816002015560608201518160030190805190602001906109b6929190611678565b505050505050505050565b80600160003373ffffffffffffffffffffffffffffffffffffffff1673ffffffffffffffffffffffffffffffffffffffff1681526020019081526020016000206002019080519060200190610a179291906115ba565b5050565b6060600160008373ffffffffffffffffffffffffffffffffffffffff1673ffffffffffffffffffffffffffffffffffffffff1681526020019081526020016000206002018054600181600116156101000203166002900480601f016020809104026020016040519081016040528092919081815260200182805460018160011615610100020316600290048015610af35780601f10610ac857610100808354040283529160200191610af3565b820191906000526020600020905b815481529060010190602001808311610ad657829003601f168201915b50505050509050919050565b6000602052806000526040600020600091509050806000015490806001018054600181600116156101000203166002900480601f016020809104026020016040519081016040528092919081815260200182805460018160011615610100020316600290048015610bb15780601f10610b8657610100808354040283529160200191610bb1565b820191906000526020600020905b815481529060010190602001808311610b9457829003601f168201915b505050505090806002018054600181600116156101000203166002900480601f016020809104026020016040519081016040528092919081815260200182805460018160011615610100020316600290048015610c4f5780601f10610c2457610100808354040283529160200191610c4f565b820191906000526020600020905b815481529060010190602001808311610c3257829003601f168201915b505050505090806003018054600181600116156101000203166002900480601f016020809104026020016040519081016040528092919081815260200182805460018160011615610100020316600290048015610ced5780601f10610cc257610100808354040283529160200191610ced565b820191906000526020600020905b815481529060010190602001808311610cd057829003601f168201915b505050505090806004018054600181600116156101000203166002900480601f016020809104026020016040519081016040528092919081815260200182805460018160011615610100020316600290048015610d8b5780601f10610d6057610100808354040283529160200191610d8b565b820191906000526020600020905b815481529060010190602001808311610d6e57829003601f168201915b5050505050908060050160009054906101000a900473ffffffffffffffffffffffffffffffffffffffff1690806006018054600181600116156101000203166002900480601f016020809104026020016040519081016040528092919081815260200182805460018160011615610100020316600290048015610e4f5780601f10610e2457610100808354040283529160200191610e4f565b820191906000526020600020905b815481529060010190602001808311610e3257829003601f168201915b5050505050908060070154905088565b60008090505b600160003373ffffffffffffffffffffffffffffffffffffffff1673ffffffffffffffffffffffffffffffffffffffff16815260200190815260200160002060030180549050811015610f89578580519060200120600080600160003373ffffffffffffffffffffffffffffffffffffffff1673ffffffffffffffffffffffffffffffffffffffff1681526020019081526020016000206003018481548110610f0a57fe5b90600052602060002001548152602001908152602001600020600101604051610f339190611f27565b60405180910390201415610f7c576040517f08c379a0000000000000000000000000000000000000000000000000000000008152600401610f7390612064565b60405180910390fd5b8080600101915050610e65565b506002600081548092919060010191905055506002546000806002548152602001908152602001600020600001819055508460008060025481526020019081526020016000206001019080519060200190610fe59291906115ba565b5083600080600254815260200190815260200160002060020190805190602001906110119291906115ba565b50826000806002548152602001908152602001600020600301908051906020019061103d9291906115ba565b5080600080600254815260200190815260200160002060060190805190602001906110699291906115ba565b50600160003373ffffffffffffffffffffffffffffffffffffffff1673ffffffffffffffffffffffffffffffffffffffff168152602001908152602001600020600101600080600254815260200190815260200160002060040190805460018160011615610100020316600290046110e29291906116f8565b508160008060025481526020019081526020016000206007018190555033600080600254815260200190815260200160002060050160006101000a81548173ffffffffffffffffffffffffffffffffffffffff021916908373ffffffffffffffffffffffffffffffffffffffff160217905550600160003373ffffffffffffffffffffffffffffffffffffffff1673ffffffffffffffffffffffffffffffffffffffff16815260200190815260200160002060030160025490806001815401808255809150509060018203906000526020600020016000909192909190915055505050505050565b6060600080838152602001908152602001600020600801805480602002602001604051908101604052809291908181526020016000905b828210156113d75783829060005260206000209060040201604051806080016040529081600082018054600181600116156101000203166002900480601f0160208091040260200160405190810160405280929190818152602001828054600181600116156101000203166002900480156112bd5780601f10611292576101008083540402835291602001916112bd565b820191906000526020600020905b8154815290600101906020018083116112a057829003601f168201915b505050505081526020016001820160009054906101000a900473ffffffffffffffffffffffffffffffffffffffff1673ffffffffffffffffffffffffffffffffffffffff1673ffffffffffffffffffffffffffffffffffffffff16815260200160028201548152602001600382018054600181600116156101000203166002900480601f0160208091040260200160405190810160405280929190818152602001828054600181600116156101000203166002900480156113bf5780601f10611394576101008083540402835291602001916113bf565b820191906000526020600020905b8154815290600101906020018083116113a257829003601f168201915b50505050508152505081526020019060010190611201565b505050509050919050565b6060600160008373ffffffffffffffffffffffffffffffffffffffff1673ffffffffffffffffffffffffffffffffffffffff16815260200190815260200160002060030180548060200260200160405190810160405280929190818152602001828054801561147057602002820191906000526020600020905b81548152602001906001019080831161145c575b50505050509050919050565b6060600160008373ffffffffffffffffffffffffffffffffffffffff1673ffffffffffffffffffffffffffffffffffffffff1681526020019081526020016000206001018054600181600116156101000203166002900480601f0160208091040260200160405190810160405280929190818152602001828054600181600116156101000203166002900480156115545780601f1061152957610100808354040283529160200191611554565b820191906000526020600020905b81548152906001019060200180831161153757829003601f168201915b50505050509050919050565b6000600160008373ffffffffffffffffffffffffffffffffffffffff1673ffffffffffffffffffffffffffffffffffffffff16815260200190815260200160002060000160009054906101000a900460ff16159050919050565b828054600181600116156101000203166002900490600052602060002090601f016020900481019282601f106115fb57805160ff1916838001178555611629565b82800160010185558215611629579182015b8281111561162857825182559160200191906001019061160d565b5b509050611636919061177f565b5090565b604051806080016040528060608152602001600073ffffffffffffffffffffffffffffffffffffffff16815260200160008152602001606081525090565b828054600181600116156101000203166002900490600052602060002090601f016020900481019282601f106116b957805160ff19168380011785556116e7565b828001600101855582156116e7579182015b828111156116e65782518255916020019190600101906116cb565b5b5090506116f4919061177f565b5090565b828054600181600116156101000203166002900490600052602060002090601f016020900481019282601f10611731578054855561176e565b8280016001018555821561176e57600052602060002091601f016020900482015b8281111561176d578254825591600101919060010190611752565b5b50905061177b919061177f565b5090565b6117a191905b8082111561179d576000816000905550600101611785565b5090565b90565b6000813590506117b38161231e565b92915050565b6000813590506117c881612335565b92915050565b600082601f8301126117df57600080fd5b81356117f26117ed8261218d565b612160565b9150808252602083016020830185838301111561180e57600080fd5b6118198382846122cb565b50505092915050565b6000813590506118318161234c565b92915050565b60006020828403121561184957600080fd5b6000611857848285016117a4565b91505092915050565b60006020828403121561187257600080fd5b600082013567ffffffffffffffff81111561188c57600080fd5b611898848285016117ce565b91505092915050565b600080604083850312156118b457600080fd5b600083013567ffffffffffffffff8111156118ce57600080fd5b6118da858286016117ce565b925050602083013567ffffffffffffffff8111156118f757600080fd5b611903858286016117ce565b9150509250929050565b600080600080600060a0868803121561192557600080fd5b600086013567ffffffffffffffff81111561193f57600080fd5b61194b888289016117ce565b955050602086013567ffffffffffffffff81111561196857600080fd5b611974888289016117ce565b945050604086013567ffffffffffffffff81111561199157600080fd5b61199d888289016117ce565b93505060606119ae88828901611822565b925050608086013567ffffffffffffffff8111156119cb57600080fd5b6119d7888289016117ce565b9150509295509295909350565b6000602082840312156119f657600080fd5b6000611a0484828501611822565b91505092915050565b60008060008060808587031215611a2357600080fd5b6000611a3187828801611822565b9450506020611a4287828801611822565b935050604085013567ffffffffffffffff811115611a5f57600080fd5b611a6b878288016117ce565b9250506060611a7c878288016117b9565b91505092959194509250565b6000611a948383611e9f565b905092915050565b6000611aa88383611f09565b60208301905092915050565b611abd81612283565b82525050565b611acc81612283565b82525050565b6000611add826121ee565b611ae78185612234565b935083602082028501611af9856121b9565b8060005b85811015611b355784840389528151611b168582611a88565b9450611b218361221a565b925060208a01995050600181019050611afd565b50829750879550505050505092915050565b6000611b52826121f9565b611b5c8185612245565b9350611b67836121c9565b8060005b83811015611b98578151611b7f8882611a9c565b9750611b8a83612227565b925050600181019050611b6b565b5085935050505092915050565b611bae81612295565b82525050565b600081546001811660008114611bd15760018114611bf657611c3a565b607f6002830416611be28187612256565b955060ff1983168652808601935050611c3a565b60028204611c048187612256565b9550611c0f856121d9565b60005b82811015611c3157815481890152600182019150602081019050611c12565b82880195505050505b505092915050565b6000611c4d8261220f565b611c578185612272565b9350611c678185602086016122da565b611c708161230d565b840191505092915050565b6000611c8682612204565b611c908185612261565b9350611ca08185602086016122da565b611ca98161230d565b840191505092915050565b6000611cbf82612204565b611cc98185612272565b9350611cd98185602086016122da565b611ce28161230d565b840191505092915050565b6000611cfa602383612272565b91507f74686973206163636f756e7420697320616c726561647920726567697374657260008301527f65642100000000000000000000000000000000000000000000000000000000006020830152604082019050919050565b6000611d60601883612272565b91507f757365726e616d652063616e6e6f7420626520656d70747900000000000000006000830152602082019050919050565b6000611da0602283612272565b91507f796f752063616e20726576696577207468697320617070206f6e6c79206f6e6360008301527f65210000000000000000000000000000000000000000000000000000000000006020830152604082019050919050565b6000611e06602c83612272565b91507f796f7520616c7265616479207075626c697368656420616e206170702077697460008301527f682074686973206e616d652100000000000000000000000000000000000000006020830152604082019050919050565b6000611e6c601b83612272565b91507f796f752063616e6e6f742072657669657720796f7572206170702100000000006000830152602082019050919050565b60006080830160008301518482036000860152611ebc8282611c7b565b9150506020830151611ed16020860182611ab4565b506040830151611ee46040860182611f09565b5060608301518482036060860152611efc8282611c7b565b9150508091505092915050565b611f12816122c1565b82525050565b611f21816122c1565b82525050565b6000611f338284611bb4565b915081905092915050565b60006020820190508181036000830152611f588184611ad2565b905092915050565b60006020820190508181036000830152611f7a8184611b47565b905092915050565b6000602082019050611f976000830184611ba5565b92915050565b6000606082019050611fb26000830186611ba5565b8181036020830152611fc48185611cb4565b90508181036040830152611fd88184611cb4565b9050949350505050565b60006020820190508181036000830152611ffc8184611c42565b905092915050565b6000602082019050818103600083015261201d81611ced565b9050919050565b6000602082019050818103600083015261203d81611d53565b9050919050565b6000602082019050818103600083015261205d81611d93565b9050919050565b6000602082019050818103600083015261207d81611df9565b9050919050565b6000602082019050818103600083015261209d81611e5f565b9050919050565b60006020820190506120b96000830184611f18565b92915050565b6000610100820190506120d5600083018b611f18565b81810360208301526120e7818a611cb4565b905081810360408301526120fb8189611cb4565b9050818103606083015261210f8188611cb4565b905081810360808301526121238187611cb4565b905061213260a0830186611ac3565b81810360c08301526121448185611cb4565b905061215360e0830184611f18565b9998505050505050505050565b6000604051905081810181811067ffffffffffffffff8211171561218357600080fd5b8060405250919050565b600067ffffffffffffffff8211156121a457600080fd5b601f19601f8301169050602081019050919050565b6000819050602082019050919050565b6000819050602082019050919050565b60008190508160005260206000209050919050565b600081519050919050565b600081519050919050565b600081519050919050565b600081519050919050565b6000602082019050919050565b6000602082019050919050565b600082825260208201905092915050565b600082825260208201905092915050565b600081905092915050565b600082825260208201905092915050565b600082825260208201905092915050565b600061228e826122a1565b9050919050565b60008115159050919050565b600073ffffffffffffffffffffffffffffffffffffffff82169050919050565b6000819050919050565b82818337600083830152505050565b60005b838110156122f85780820151818401526020810190506122dd565b83811115612307576000848401525b50505050565b6000601f19601f8301169050919050565b61232781612283565b811461233257600080fd5b50565b61233e81612295565b811461234957600080fd5b50565b612355816122c1565b811461236057600080fd5b5056fea365627a7a72315820999dafffea7c8a61d644e6c7a0105f367b1b2c791273119819625dfdf70184256c6578706572696d656e74616cf564736f6c63430005100040",
  "source": "// SPDX-License-Identifier: MIT\r\npragma solidity >=0.4.22 <0.9.0;\r\npragma experimental ABIEncoderV2;\r\n\r\ncontract AppStore {\r\n\r\n  mapping(uint => AppData) public apps;\r\n  mapping(address  => UserData) public userDictionary;\r\n  uint public appsCount = 0; \r\n\r\n  struct UserData {\r\n    bool isInit;\r\n    string userName;\r\n    string downloadCode;\r\n    uint[] uploadedApps;\r\n  }\r\n  struct AppData {\r\n    uint id;\r\n    string appName;\r\n    string category;\r\n    string appDescription;\r\n    string appDeveloper;\r\n    address developerAddress;\r\n    string appLogoHash;\r\n    uint price;\r\n    ReviewAndRating [] reviews;\r\n  }\r\n\r\n  struct ReviewAndRating{\r\n    string name;\r\n    address evaluaterAddress;\r\n    uint rating;\r\n    string review;\r\n  }\r\n\r\n  function createApp(string memory _appName,string memory _category,string memory _appDescription,uint price,string memory _appLogoHash) public {\r\n      for (uint i = 0; i < userDictionary[msg.sender].uploadedApps.length; i++) {\r\n        require(keccak256(bytes(apps[userDictionary[msg.sender].uploadedApps[i]].appName))!=keccak256(bytes(_appName)),'you already published an app with this name!');\r\n    }\r\n    appsCount++;\r\n    apps[appsCount].id=appsCount;\r\n    apps[appsCount].appName=_appName;\r\n    apps[appsCount].category=_category;\r\n    apps[appsCount].appDescription=_appDescription;\r\n    apps[appsCount].appLogoHash=_appLogoHash;\r\n    apps[appsCount].appDeveloper=userDictionary[msg.sender].userName;\r\n    apps[appsCount].price=price;\r\n    apps[appsCount].developerAddress=msg.sender;\r\n    userDictionary[msg.sender].uploadedApps.push(appsCount);\r\n  }\r\n\r\n\r\n  function registerUser(string memory _userName, string memory initDownloadCode)public{\r\n    require(bytes(_userName).length!=0,\"username cannot be empty\");\r\n    require(bytes(userDictionary[msg.sender].userName).length==0,'this account is already registered!');\r\n    userDictionary[msg.sender].userName=_userName;\r\n    userDictionary[msg.sender].isInit=true;\r\n    userDictionary[msg.sender].downloadCode=initDownloadCode;\r\n  }\r\n\r\n\r\n  function addReview(uint _appid,uint _rating,string memory _review,bool isAnonymous) public {\r\n    require(msg.sender!=apps[_appid].developerAddress,'you cannot review your app!');\r\n    for (uint i = 0; i < apps[_appid].reviews.length; i++) {\r\n        require(apps[_appid].reviews[i].evaluaterAddress!=msg.sender,'you can review this app only once!');\r\n    }\r\n    ReviewAndRating memory NewReview=ReviewAndRating(isAnonymous?'Anonymous':userDictionary[msg.sender].userName, msg.sender, _rating, _review);\r\n    apps[_appid].reviews.push(NewReview);\r\n  }\r\n\r\n  function isNewUser(address _user)public view returns(bool){\r\n    //return !userDictionary[msg.sender].isInit;\r\n    return !userDictionary[_user].isInit;\r\n  } \r\n  function getUserName(address _user)public view returns(string memory){\r\n  //  return userDictionary[msg.sender].userName;\r\n    return userDictionary[_user].userName;\r\n  }\r\n\r\n  function getUploadedApps(address _user) public view returns(uint[] memory){\r\n  //  return userDictionary[msg.sender].uploadedApps;\r\n    return userDictionary[_user].uploadedApps;\r\n\r\n  }\r\n\r\n  function getDownloadCode(address _user) public view returns(string memory){\r\n    //return userDictionary[msg.sender].downloadCode;\r\n    return userDictionary[_user].downloadCode;\r\n  }\r\n    function getReviews(uint appid) public view returns(ReviewAndRating [] memory ){\r\n    return apps[appid].reviews;\r\n  }\r\n\r\n  function updateDownloadCode(string memory newCode) public {\r\n    userDictionary[msg.sender].downloadCode = newCode;\r\n  }\r\n}",
  "sourcePath": "E:\\8semester2022\\parallelProject\\DecentralizedAppStore\\AppStore\\src\\contracts\\contracts\\AppStore.sol",
  "compiler": {
    "name": "solc",
    "version": "0.5.16+commit.9c3226ce.Emscripten.clang"
  },
  "schemaVersion": "3.4.7",
  "updatedAt": "2022-11-04T20:17:36.393Z",
  "networkType": "ethereum",
  "devdoc": {
    "methods": {}
  },
  "userdoc": {
    "methods": {}
  }
}