{
  "contractName": "AppStore",
  "abi": [
    {
      "constant": true,
      "inputs": [
        {
          "internalType": "uint256",
          "name": "",
          "type": "uint256"
        }
      ],
      "name": "apps",
      "outputs": [
        {
          "internalType": "uint256",
          "name": "id",
          "type": "uint256"
        },
        {
          "internalType": "string",
          "name": "appName",
          "type": "string"
        },
        {
          "internalType": "string",
          "name": "category",
          "type": "string"
        },
        {
          "internalType": "string",
          "name": "appDescription",
          "type": "string"
        },
        {
          "internalType": "string",
          "name": "appDeveloper",
          "type": "string"
        },
        {
          "internalType": "address",
          "name": "developerAddress",
          "type": "address"
        },
        {
          "internalType": "string",
          "name": "appLogoHash",
          "type": "string"
        },
        {
          "internalType": "string",
          "name": "price",
          "type": "string"
        },
        {
          "internalType": "string",
          "name": "priceCurrency",
          "type": "string"
        }
      ],
      "payable": false,
      "stateMutability": "view",
      "type": "function"
    },
    {
      "constant": true,
      "inputs": [],
      "name": "appsCount",
      "outputs": [
        {
          "internalType": "uint256",
          "name": "",
          "type": "uint256"
        }
      ],
      "payable": false,
      "stateMutability": "view",
      "type": "function"
    },
    {
      "constant": true,
      "inputs": [
        {
          "internalType": "uint256",
          "name": "",
          "type": "uint256"
        }
      ],
      "name": "appsFilesHashes",
      "outputs": [
        {
          "internalType": "string",
          "name": "",
          "type": "string"
        }
      ],
      "payable": false,
      "stateMutability": "view",
      "type": "function"
    },
    {
      "constant": true,
      "inputs": [
        {
          "internalType": "address",
          "name": "",
          "type": "address"
        }
      ],
      "name": "userDictionary",
      "outputs": [
        {
          "internalType": "bool",
          "name": "isInit",
          "type": "bool"
        },
        {
          "internalType": "string",
          "name": "userName",
          "type": "string"
        },
        {
          "internalType": "string",
          "name": "downloadCode",
          "type": "string"
        }
      ],
      "payable": false,
      "stateMutability": "view",
      "type": "function"
    },
    {
      "constant": false,
      "inputs": [
        {
          "internalType": "string",
          "name": "_appName",
          "type": "string"
        },
        {
          "internalType": "string",
          "name": "_category",
          "type": "string"
        },
        {
          "internalType": "string",
          "name": "_appDescription",
          "type": "string"
        },
        {
          "internalType": "string",
          "name": "_price",
          "type": "string"
        },
        {
          "internalType": "string",
          "name": "_priceCurrency",
          "type": "string"
        },
        {
          "internalType": "string",
          "name": "_appLogoHash",
          "type": "string"
        },
        {
          "internalType": "string",
          "name": "_appFileHash",
          "type": "string"
        }
      ],
      "name": "createApp",
      "outputs": [],
      "payable": false,
      "stateMutability": "nonpayable",
      "type": "function"
    },
    {
      "constant": false,
      "inputs": [
        {
          "internalType": "string",
          "name": "_userName",
          "type": "string"
        },
        {
          "internalType": "string",
          "name": "initDownloadCode",
          "type": "string"
        }
      ],
      "name": "registerUser",
      "outputs": [],
      "payable": false,
      "stateMutability": "nonpayable",
      "type": "function"
    },
    {
      "constant": false,
      "inputs": [
        {
          "internalType": "uint256",
          "name": "_appid",
          "type": "uint256"
        },
        {
          "internalType": "uint256",
          "name": "_rating",
          "type": "uint256"
        },
        {
          "internalType": "string",
          "name": "_review",
          "type": "string"
        },
        {
          "internalType": "bool",
          "name": "isAnonymous",
          "type": "bool"
        }
      ],
      "name": "addReview",
      "outputs": [],
      "payable": false,
      "stateMutability": "nonpayable",
      "type": "function"
    },
    {
      "constant": false,
      "inputs": [
        {
          "internalType": "uint256",
          "name": "_appid",
          "type": "uint256"
        }
      ],
      "name": "purchaseApp",
      "outputs": [],
      "payable": false,
      "stateMutability": "nonpayable",
      "type": "function"
    },
    {
      "constant": true,
      "inputs": [
        {
          "internalType": "uint256",
          "name": "_appid",
          "type": "uint256"
        }
      ],
      "name": "getAppHash",
      "outputs": [
        {
          "internalType": "string",
          "name": "",
          "type": "string"
        }
      ],
      "payable": false,
      "stateMutability": "view",
      "type": "function"
    },
    {
      "constant": true,
      "inputs": [
        {
          "internalType": "address",
          "name": "_user",
          "type": "address"
        }
      ],
      "name": "isNewUser",
      "outputs": [
        {
          "internalType": "bool",
          "name": "",
          "type": "bool"
        }
      ],
      "payable": false,
      "stateMutability": "view",
      "type": "function"
    },
    {
      "constant": true,
      "inputs": [
        {
          "internalType": "address",
          "name": "_user",
          "type": "address"
        }
      ],
      "name": "getUserName",
      "outputs": [
        {
          "internalType": "string",
          "name": "",
          "type": "string"
        }
      ],
      "payable": false,
      "stateMutability": "view",
      "type": "function"
    },
    {
      "constant": true,
      "inputs": [
        {
          "internalType": "address",
          "name": "_user",
          "type": "address"
        }
      ],
      "name": "getUploadedApps",
      "outputs": [
        {
          "internalType": "uint256[]",
          "name": "",
          "type": "uint256[]"
        }
      ],
      "payable": false,
      "stateMutability": "view",
      "type": "function"
    },
    {
      "constant": true,
      "inputs": [
        {
          "internalType": "address",
          "name": "_user",
          "type": "address"
        }
      ],
      "name": "getPurchasedApps",
      "outputs": [
        {
          "internalType": "uint256[]",
          "name": "",
          "type": "uint256[]"
        }
      ],
      "payable": false,
      "stateMutability": "view",
      "type": "function"
    },
    {
      "constant": true,
      "inputs": [
        {
          "internalType": "address",
          "name": "_user",
          "type": "address"
        }
      ],
      "name": "getDownloadCode",
      "outputs": [
        {
          "internalType": "string",
          "name": "",
          "type": "string"
        }
      ],
      "payable": false,
      "stateMutability": "view",
      "type": "function"
    },
    {
      "constant": true,
      "inputs": [
        {
          "internalType": "uint256",
          "name": "appid",
          "type": "uint256"
        }
      ],
      "name": "getReviews",
      "outputs": [
        {
          "components": [
            {
              "internalType": "string",
              "name": "name",
              "type": "string"
            },
            {
              "internalType": "address",
              "name": "evaluaterAddress",
              "type": "address"
            },
            {
              "internalType": "uint256",
              "name": "rating",
              "type": "uint256"
            },
            {
              "internalType": "string",
              "name": "review",
              "type": "string"
            }
          ],
          "internalType": "struct AppStore.ReviewAndRating[]",
          "name": "",
          "type": "tuple[]"
        }
      ],
      "payable": false,
      "stateMutability": "view",
      "type": "function"
    }
  ],
  "bytecode": "0x6080604052600060035534801561001557600080fd5b50612a34806100256000396000f3fe608060405234801561001057600080fd5b50600436106100f55760003560e01c80634facffd9116100975780639d4a2255116100665780639d4a2255146102b2578063b0d79599146102e2578063d84f55ee14610312578063f1144c6d14610342576100f5565b80634facffd9146101fe5780635bb4a8021461022e57806361acc37e1461025e5780638bf7f93614610296576100f5565b80631d2e4afd116100d35780631d2e4afd1461018c5780632b5f3879146101a85780632e5c306b146101c657806333e067a6146101e2576100f5565b806307df1c61146100fa57806318356f901461012a5780631b5aca541461015c575b600080fd5b610114600480360361010f9190810190611fad565b610372565b6040516101219190612611565b60405180910390f35b610144600480360361013f9190810190611dd2565b610422565b604051610153939291906125cc565b60405180910390f35b61017660048036036101719190810190611dd2565b610589565b604051610183919061258f565b60405180910390f35b6101a660048036036101a19190810190611dfb565b610623565b005b6101b061080e565b6040516101bd9190612715565b60405180910390f35b6101e060048036036101db9190810190611fd6565b610814565b005b6101fc60048036036101f79190810190611fad565b610cf4565b005b61021860048036036102139190810190611dd2565b610d63565b6040516102259190612633565b60405180910390f35b61024860048036036102439190810190611fad565b610e47565b6040516102559190612633565b60405180910390f35b61027860048036036102739190810190611fad565b610efc565b60405161028d99989796959493929190612730565b60405180910390f35b6102b060048036036102ab9190810190611e67565b611392565b005b6102cc60048036036102c79190810190611fad565b611765565b6040516102d9919061256d565b60405180910390f35b6102fc60048036036102f79190810190611dd2565b61197d565b604051610309919061258f565b60405180910390f35b61032c60048036036103279190810190611dd2565b611a17565b6040516103399190612633565b60405180910390f35b61035c60048036036103579190810190611dd2565b611afb565b60405161036991906125b1565b60405180910390f35b60016020528060005260406000206000915090508054600181600116156101000203166002900480601f01602080910402602001604051908101604052809291908181526020018280546001816001161561010002031660029004801561041a5780601f106103ef5761010080835404028352916020019161041a565b820191906000526020600020905b8154815290600101906020018083116103fd57829003601f168201915b505050505081565b60026020528060005260406000206000915090508060000160009054906101000a900460ff1690806001018054600181600116156101000203166002900480601f0160208091040260200160405190810160405280929190818152602001828054600181600116156101000203166002900480156104e15780601f106104b6576101008083540402835291602001916104e1565b820191906000526020600020905b8154815290600101906020018083116104c457829003601f168201915b505050505090806002018054600181600116156101000203166002900480601f01602080910402602001604051908101604052809291908181526020018280546001816001161561010002031660029004801561057f5780601f106105545761010080835404028352916020019161057f565b820191906000526020600020905b81548152906001019060200180831161056257829003601f168201915b5050505050905083565b6060600260008373ffffffffffffffffffffffffffffffffffffffff1673ffffffffffffffffffffffffffffffffffffffff16815260200190815260200160002060040180548060200260200160405190810160405280929190818152602001828054801561061757602002820191906000526020600020905b815481526020019060010190808311610603575b50505050509050919050565b600082511415610668576040517f08c379a000000000000000000000000000000000000000000000000000000000815260040161065f90612675565b60405180910390fd5b6000600260003373ffffffffffffffffffffffffffffffffffffffff1673ffffffffffffffffffffffffffffffffffffffff16815260200190815260200160002060010180546001816001161561010002031660029004905014610701576040517f08c379a00000000000000000000000000000000000000000000000000000000081526004016106f890612655565b60405180910390fd5b81600260003373ffffffffffffffffffffffffffffffffffffffff1673ffffffffffffffffffffffffffffffffffffffff1681526020019081526020016000206001019080519060200190610757929190611b55565b506001600260003373ffffffffffffffffffffffffffffffffffffffff1673ffffffffffffffffffffffffffffffffffffffff16815260200190815260200160002060000160006101000a81548160ff02191690831515021790555080600260003373ffffffffffffffffffffffffffffffffffffffff1673ffffffffffffffffffffffffffffffffffffffff1681526020019081526020016000206002019080519060200190610809929190611b55565b505050565b60035481565b60008085815260200190815260200160002060050160009054906101000a900473ffffffffffffffffffffffffffffffffffffffff1673ffffffffffffffffffffffffffffffffffffffff163373ffffffffffffffffffffffffffffffffffffffff1614156108b8576040517f08c379a00000000000000000000000000000000000000000000000000000000081526004016108af906126f5565b60405180910390fd5b60008090505b600080868152602001908152602001600020600901805490508110156109ab573373ffffffffffffffffffffffffffffffffffffffff16600080878152602001908152602001600020600901828154811061091557fe5b906000526020600020906004020160010160009054906101000a900473ffffffffffffffffffffffffffffffffffffffff1673ffffffffffffffffffffffffffffffffffffffff16141561099e576040517f08c379a000000000000000000000000000000000000000000000000000000000815260040161099590612695565b60405180910390fd5b80806001019150506108be565b50600080905060008090505b600260003373ffffffffffffffffffffffffffffffffffffffff1673ffffffffffffffffffffffffffffffffffffffff16815260200190815260200160002060040180549050811015610a795785600260003373ffffffffffffffffffffffffffffffffffffffff1673ffffffffffffffffffffffffffffffffffffffff1681526020019081526020016000206004018281548110610a5257fe5b90600052602060002001541415610a6c5760019150610a79565b80806001019150506109b7565b506001151581151514610ac1576040517f08c379a0000000000000000000000000000000000000000000000000000000008152600401610ab8906126d5565b60405180910390fd5b610ac9611bd5565b604051806080016040528084610bb957600260003373ffffffffffffffffffffffffffffffffffffffff1673ffffffffffffffffffffffffffffffffffffffff1681526020019081526020016000206001018054600181600116156101000203166002900480601f016020809104026020016040519081016040528092919081815260200182805460018160011615610100020316600290048015610baf5780601f10610b8457610100808354040283529160200191610baf565b820191906000526020600020905b815481529060010190602001808311610b9257829003601f168201915b5050505050610bf0565b6040518060400160405280600981526020017f416e6f6e796d6f757300000000000000000000000000000000000000000000008152505b81526020013373ffffffffffffffffffffffffffffffffffffffff16815260200186815260200185815250905060008087815260200190815260200160002060090181908060018154018082558091505090600182039060005260206000209060040201600090919290919091506000820151816000019080519060200190610c7a929190611c13565b5060208201518160010160006101000a81548173ffffffffffffffffffffffffffffffffffffffff021916908373ffffffffffffffffffffffffffffffffffffffff160217905550604082015181600201556060820151816003019080519060200190610ce8929190611c13565b50505050505050505050565b600260003373ffffffffffffffffffffffffffffffffffffffff1673ffffffffffffffffffffffffffffffffffffffff16815260200190815260200160002060040181908060018154018082558091505090600182039060005260206000200160009091929091909150555050565b6060600260008373ffffffffffffffffffffffffffffffffffffffff1673ffffffffffffffffffffffffffffffffffffffff1681526020019081526020016000206002018054600181600116156101000203166002900480601f016020809104026020016040519081016040528092919081815260200182805460018160011615610100020316600290048015610e3b5780601f10610e1057610100808354040283529160200191610e3b565b820191906000526020600020905b815481529060010190602001808311610e1e57829003601f168201915b50505050509050919050565b6060600160008381526020019081526020016000208054600181600116156101000203166002900480601f016020809104026020016040519081016040528092919081815260200182805460018160011615610100020316600290048015610ef05780601f10610ec557610100808354040283529160200191610ef0565b820191906000526020600020905b815481529060010190602001808311610ed357829003601f168201915b50505050509050919050565b6000602052806000526040600020600091509050806000015490806001018054600181600116156101000203166002900480601f016020809104026020016040519081016040528092919081815260200182805460018160011615610100020316600290048015610fae5780601f10610f8357610100808354040283529160200191610fae565b820191906000526020600020905b815481529060010190602001808311610f9157829003601f168201915b505050505090806002018054600181600116156101000203166002900480601f01602080910402602001604051908101604052809291908181526020018280546001816001161561010002031660029004801561104c5780601f106110215761010080835404028352916020019161104c565b820191906000526020600020905b81548152906001019060200180831161102f57829003601f168201915b505050505090806003018054600181600116156101000203166002900480601f0160208091040260200160405190810160405280929190818152602001828054600181600116156101000203166002900480156110ea5780601f106110bf576101008083540402835291602001916110ea565b820191906000526020600020905b8154815290600101906020018083116110cd57829003601f168201915b505050505090806004018054600181600116156101000203166002900480601f0160208091040260200160405190810160405280929190818152602001828054600181600116156101000203166002900480156111885780601f1061115d57610100808354040283529160200191611188565b820191906000526020600020905b81548152906001019060200180831161116b57829003601f168201915b5050505050908060050160009054906101000a900473ffffffffffffffffffffffffffffffffffffffff1690806006018054600181600116156101000203166002900480601f01602080910402602001604051908101604052809291908181526020018280546001816001161561010002031660029004801561124c5780601f106112215761010080835404028352916020019161124c565b820191906000526020600020905b81548152906001019060200180831161122f57829003601f168201915b505050505090806007018054600181600116156101000203166002900480601f0160208091040260200160405190810160405280929190818152602001828054600181600116156101000203166002900480156112ea5780601f106112bf576101008083540402835291602001916112ea565b820191906000526020600020905b8154815290600101906020018083116112cd57829003601f168201915b505050505090806008018054600181600116156101000203166002900480601f0160208091040260200160405190810160405280929190818152602001828054600181600116156101000203166002900480156113885780601f1061135d57610100808354040283529160200191611388565b820191906000526020600020905b81548152906001019060200180831161136b57829003601f168201915b5050505050905089565b60008090505b600260003373ffffffffffffffffffffffffffffffffffffffff1673ffffffffffffffffffffffffffffffffffffffff168152602001908152602001600020600301805490508110156114bc578780519060200120600080600260003373ffffffffffffffffffffffffffffffffffffffff1673ffffffffffffffffffffffffffffffffffffffff168152602001908152602001600020600301848154811061143d57fe5b906000526020600020015481526020019081526020016000206001016040516114669190612556565b604051809103902014156114af576040517f08c379a00000000000000000000000000000000000000000000000000000000081526004016114a6906126b5565b60405180910390fd5b8080600101915050611398565b506003600081548092919060010191905055506003546000806003548152602001908152602001600020600001819055508660008060035481526020019081526020016000206001019080519060200190611518929190611b55565b508560008060035481526020019081526020016000206002019080519060200190611544929190611b55565b508460008060035481526020019081526020016000206003019080519060200190611570929190611b55565b50816000806003548152602001908152602001600020600601908051906020019061159c929190611b55565b50600260003373ffffffffffffffffffffffffffffffffffffffff1673ffffffffffffffffffffffffffffffffffffffff16815260200190815260200160002060010160008060035481526020019081526020016000206004019080546001816001161561010002031660029004611615929190611c93565b508360008060035481526020019081526020016000206007019080519060200190611641929190611b55565b50826000806003548152602001908152602001600020600801908051906020019061166d929190611b55565b5033600080600354815260200190815260200160002060050160006101000a81548173ffffffffffffffffffffffffffffffffffffffff021916908373ffffffffffffffffffffffffffffffffffffffff1602179055508060016000600354815260200190815260200160002090805190602001906116ed929190611b55565b50600260003373ffffffffffffffffffffffffffffffffffffffff1673ffffffffffffffffffffffffffffffffffffffff168152602001908152602001600020600301600354908060018154018082558091505090600182039060005260206000200160009091929091909150555050505050505050565b6060600080838152602001908152602001600020600901805480602002602001604051908101604052809291908181526020016000905b828210156119725783829060005260206000209060040201604051806080016040529081600082018054600181600116156101000203166002900480601f0160208091040260200160405190810160405280929190818152602001828054600181600116156101000203166002900480156118585780601f1061182d57610100808354040283529160200191611858565b820191906000526020600020905b81548152906001019060200180831161183b57829003601f168201915b505050505081526020016001820160009054906101000a900473ffffffffffffffffffffffffffffffffffffffff1673ffffffffffffffffffffffffffffffffffffffff1673ffffffffffffffffffffffffffffffffffffffff16815260200160028201548152602001600382018054600181600116156101000203166002900480601f01602080910402602001604051908101604052809291908181526020018280546001816001161561010002031660029004801561195a5780601f1061192f5761010080835404028352916020019161195a565b820191906000526020600020905b81548152906001019060200180831161193d57829003601f168201915b5050505050815250508152602001906001019061179c565b505050509050919050565b6060600260008373ffffffffffffffffffffffffffffffffffffffff1673ffffffffffffffffffffffffffffffffffffffff168152602001908152602001600020600301805480602002602001604051908101604052809291908181526020018280548015611a0b57602002820191906000526020600020905b8154815260200190600101908083116119f7575b50505050509050919050565b6060600260008373ffffffffffffffffffffffffffffffffffffffff1673ffffffffffffffffffffffffffffffffffffffff1681526020019081526020016000206001018054600181600116156101000203166002900480601f016020809104026020016040519081016040528092919081815260200182805460018160011615610100020316600290048015611aef5780601f10611ac457610100808354040283529160200191611aef565b820191906000526020600020905b815481529060010190602001808311611ad257829003601f168201915b50505050509050919050565b6000600260008373ffffffffffffffffffffffffffffffffffffffff1673ffffffffffffffffffffffffffffffffffffffff16815260200190815260200160002060000160009054906101000a900460ff16159050919050565b828054600181600116156101000203166002900490600052602060002090601f016020900481019282601f10611b9657805160ff1916838001178555611bc4565b82800160010185558215611bc4579182015b82811115611bc3578251825591602001919060010190611ba8565b5b509050611bd19190611d1a565b5090565b604051806080016040528060608152602001600073ffffffffffffffffffffffffffffffffffffffff16815260200160008152602001606081525090565b828054600181600116156101000203166002900490600052602060002090601f016020900481019282601f10611c5457805160ff1916838001178555611c82565b82800160010185558215611c82579182015b82811115611c81578251825591602001919060010190611c66565b5b509050611c8f9190611d1a565b5090565b828054600181600116156101000203166002900490600052602060002090601f016020900481019282601f10611ccc5780548555611d09565b82800160010185558215611d0957600052602060002091601f016020900482015b82811115611d08578254825591600101919060010190611ced565b5b509050611d169190611d1a565b5090565b611d3c91905b80821115611d38576000816000905550600101611d20565b5090565b90565b600081359050611d4e816129ac565b92915050565b600081359050611d63816129c3565b92915050565b600082601f830112611d7a57600080fd5b8135611d8d611d888261281b565b6127ee565b91508082526020830160208301858383011115611da957600080fd5b611db4838284612959565b50505092915050565b600081359050611dcc816129da565b92915050565b600060208284031215611de457600080fd5b6000611df284828501611d3f565b91505092915050565b60008060408385031215611e0e57600080fd5b600083013567ffffffffffffffff811115611e2857600080fd5b611e3485828601611d69565b925050602083013567ffffffffffffffff811115611e5157600080fd5b611e5d85828601611d69565b9150509250929050565b600080600080600080600060e0888a031215611e8257600080fd5b600088013567ffffffffffffffff811115611e9c57600080fd5b611ea88a828b01611d69565b975050602088013567ffffffffffffffff811115611ec557600080fd5b611ed18a828b01611d69565b965050604088013567ffffffffffffffff811115611eee57600080fd5b611efa8a828b01611d69565b955050606088013567ffffffffffffffff811115611f1757600080fd5b611f238a828b01611d69565b945050608088013567ffffffffffffffff811115611f4057600080fd5b611f4c8a828b01611d69565b93505060a088013567ffffffffffffffff811115611f6957600080fd5b611f758a828b01611d69565b92505060c088013567ffffffffffffffff811115611f9257600080fd5b611f9e8a828b01611d69565b91505092959891949750929550565b600060208284031215611fbf57600080fd5b6000611fcd84828501611dbd565b91505092915050565b60008060008060808587031215611fec57600080fd5b6000611ffa87828801611dbd565b945050602061200b87828801611dbd565b935050604085013567ffffffffffffffff81111561202857600080fd5b61203487828801611d69565b925050606061204587828801611d54565b91505092959194509250565b600061205d83836124ce565b905092915050565b60006120718383612538565b60208301905092915050565b61208681612911565b82525050565b61209581612911565b82525050565b60006120a68261287c565b6120b081856128c2565b9350836020820285016120c285612847565b8060005b858110156120fe57848403895281516120df8582612051565b94506120ea836128a8565b925060208a019950506001810190506120c6565b50829750879550505050505092915050565b600061211b82612887565b61212581856128d3565b935061213083612857565b8060005b838110156121615781516121488882612065565b9750612153836128b5565b925050600181019050612134565b5085935050505092915050565b61217781612923565b82525050565b60008154600181166000811461219a57600181146121bf57612203565b607f60028304166121ab81876128e4565b955060ff1983168652808601935050612203565b600282046121cd81876128e4565b95506121d885612867565b60005b828110156121fa578154818901526001820191506020810190506121db565b82880195505050505b505092915050565b60006122168261289d565b6122208185612900565b9350612230818560208601612968565b6122398161299b565b840191505092915050565b600061224f82612892565b61225981856128ef565b9350612269818560208601612968565b6122728161299b565b840191505092915050565b600061228882612892565b6122928185612900565b93506122a2818560208601612968565b6122ab8161299b565b840191505092915050565b60006122c3602383612900565b91507f74686973206163636f756e7420697320616c726561647920726567697374657260008301527f65642100000000000000000000000000000000000000000000000000000000006020830152604082019050919050565b6000612329601883612900565b91507f757365726e616d652063616e6e6f7420626520656d70747900000000000000006000830152602082019050919050565b6000612369602283612900565b91507f796f752063616e20726576696577207468697320617070206f6e6c79206f6e6360008301527f65210000000000000000000000000000000000000000000000000000000000006020830152604082019050919050565b60006123cf602c83612900565b91507f796f7520616c7265616479207075626c697368656420616e206170702077697460008301527f682074686973206e616d652100000000000000000000000000000000000000006020830152604082019050919050565b6000612435602c83612900565b91507f796f752063616e6e6f742072657669657720616e2061707020796f752064696460008301527f6e742070757263686173652100000000000000000000000000000000000000006020830152604082019050919050565b600061249b601b83612900565b91507f796f752063616e6e6f742072657669657720796f7572206170702100000000006000830152602082019050919050565b600060808301600083015184820360008601526124eb8282612244565b9150506020830151612500602086018261207d565b5060408301516125136040860182612538565b506060830151848203606086015261252b8282612244565b9150508091505092915050565b6125418161294f565b82525050565b6125508161294f565b82525050565b6000612562828461217d565b915081905092915050565b60006020820190508181036000830152612587818461209b565b905092915050565b600060208201905081810360008301526125a98184612110565b905092915050565b60006020820190506125c6600083018461216e565b92915050565b60006060820190506125e1600083018661216e565b81810360208301526125f3818561227d565b90508181036040830152612607818461227d565b9050949350505050565b6000602082019050818103600083015261262b818461227d565b905092915050565b6000602082019050818103600083015261264d818461220b565b905092915050565b6000602082019050818103600083015261266e816122b6565b9050919050565b6000602082019050818103600083015261268e8161231c565b9050919050565b600060208201905081810360008301526126ae8161235c565b9050919050565b600060208201905081810360008301526126ce816123c2565b9050919050565b600060208201905081810360008301526126ee81612428565b9050919050565b6000602082019050818103600083015261270e8161248e565b9050919050565b600060208201905061272a6000830184612547565b92915050565b600061012082019050612746600083018c612547565b8181036020830152612758818b61227d565b9050818103604083015261276c818a61227d565b90508181036060830152612780818961227d565b90508181036080830152612794818861227d565b90506127a360a083018761208c565b81810360c08301526127b5818661227d565b905081810360e08301526127c9818561227d565b90508181036101008301526127de818461227d565b90509a9950505050505050505050565b6000604051905081810181811067ffffffffffffffff8211171561281157600080fd5b8060405250919050565b600067ffffffffffffffff82111561283257600080fd5b601f19601f8301169050602081019050919050565b6000819050602082019050919050565b6000819050602082019050919050565b60008190508160005260206000209050919050565b600081519050919050565b600081519050919050565b600081519050919050565b600081519050919050565b6000602082019050919050565b6000602082019050919050565b600082825260208201905092915050565b600082825260208201905092915050565b600081905092915050565b600082825260208201905092915050565b600082825260208201905092915050565b600061291c8261292f565b9050919050565b60008115159050919050565b600073ffffffffffffffffffffffffffffffffffffffff82169050919050565b6000819050919050565b82818337600083830152505050565b60005b8381101561298657808201518184015260208101905061296b565b83811115612995576000848401525b50505050565b6000601f19601f8301169050919050565b6129b581612911565b81146129c057600080fd5b50565b6129cc81612923565b81146129d757600080fd5b50565b6129e38161294f565b81146129ee57600080fd5b5056fea365627a7a723158209b2dba93e110e9a0aff11c704f1a8000829eeb430dddefee0949d303d7f8132b6c6578706572696d656e74616cf564736f6c63430005100040",
  "source": "// SPDX-License-Identifier: MIT\r\npragma solidity >=0.4.22 <0.9.0;\r\npragma experimental ABIEncoderV2;\r\n\r\ncontract AppStore {\r\n\r\n  mapping(uint => AppData) public apps;\r\n  mapping(uint  => string) public appsFilesHashes;\r\n  mapping(address  => UserData) public userDictionary;\r\n  uint public appsCount = 0; \r\n\r\n  struct UserData {\r\n    bool isInit;\r\n    string userName;\r\n    string downloadCode;\r\n    uint[] uploadedApps;\r\n    uint[] purchasedApps;\r\n  }\r\n\r\n  struct AppData {\r\n    uint id;\r\n    string appName;\r\n    string category;\r\n    string appDescription;\r\n    string appDeveloper;\r\n    address developerAddress;\r\n    string appLogoHash;\r\n    string price;\r\n    string priceCurrency;\r\n    ReviewAndRating [] reviews;\r\n  }\r\n\r\n  struct ReviewAndRating{\r\n    string name;\r\n    address evaluaterAddress;\r\n    uint rating;\r\n    string review;\r\n  }\r\n\r\n  function createApp(string memory _appName,string memory _category,string memory _appDescription,string memory _price,string memory _priceCurrency, string memory _appLogoHash,string memory _appFileHash) public {\r\n    for (uint i = 0; i < userDictionary[msg.sender].uploadedApps.length; i++) {\r\n      require(keccak256(bytes(apps[userDictionary[msg.sender].uploadedApps[i]].appName))!=keccak256(bytes(_appName)),'you already published an app with this name!');\r\n    }\r\n    appsCount++;\r\n    apps[appsCount].id=appsCount;\r\n    apps[appsCount].appName=_appName;\r\n    apps[appsCount].category=_category;\r\n    apps[appsCount].appDescription=_appDescription;\r\n    apps[appsCount].appLogoHash=_appLogoHash;\r\n    apps[appsCount].appDeveloper=userDictionary[msg.sender].userName;\r\n    apps[appsCount].price=_price;\r\n    apps[appsCount].priceCurrency=_priceCurrency;\r\n    apps[appsCount].developerAddress=msg.sender;\r\n    appsFilesHashes[appsCount]=_appFileHash;\r\n    userDictionary[msg.sender].uploadedApps.push(appsCount);\r\n  }\r\n\r\n\r\n  function registerUser(string memory _userName, string memory initDownloadCode)public{\r\n    require(bytes(_userName).length!=0,\"username cannot be empty\");\r\n    require(bytes(userDictionary[msg.sender].userName).length==0,'this account is already registered!');\r\n    userDictionary[msg.sender].userName=_userName;\r\n    userDictionary[msg.sender].isInit=true;\r\n    userDictionary[msg.sender].downloadCode=initDownloadCode;\r\n  }\r\n\r\n\r\n  function addReview(uint _appid,uint _rating,string memory _review,bool isAnonymous) public {\r\n    require(msg.sender!=apps[_appid].developerAddress,'you cannot review your app!');\r\n    for (uint i = 0; i < apps[_appid].reviews.length; i++) {\r\n        require(apps[_appid].reviews[i].evaluaterAddress!=msg.sender,'you can review this app only once!');\r\n    }\r\n    bool appPurchased=false;\r\n    for (uint i = 0; i < userDictionary[msg.sender].purchasedApps.length; i++) {\r\n      if(userDictionary[msg.sender].purchasedApps[i]==_appid){\r\n        appPurchased=true;\r\n        break;\r\n      }\r\n    }\r\n    require(appPurchased==true,'you cannot review an app you didnt purchase!');\r\n    ReviewAndRating memory NewReview=ReviewAndRating(isAnonymous?'Anonymous':userDictionary[msg.sender].userName, msg.sender, _rating, _review);\r\n    apps[_appid].reviews.push(NewReview);\r\n  }\r\n\r\n\r\n  function purchaseApp(uint _appid)public{\r\n\r\n      userDictionary[msg.sender].purchasedApps.push(_appid);\r\n  }\r\n\r\n\r\n  function getAppHash(uint _appid)public view returns(string memory){\r\n    return appsFilesHashes[_appid];\r\n  } \r\n\r\n\r\n  function isNewUser(address _user)public view returns(bool){\r\n    return !userDictionary[_user].isInit;\r\n  } \r\n\r\n\r\n  function getUserName(address _user)public view returns(string memory){\r\n    return userDictionary[_user].userName;\r\n  }\r\n\r\n\r\n  function getUploadedApps(address _user) public view returns(uint[] memory){\r\n    return userDictionary[_user].uploadedApps;\r\n  }\r\n\r\n\r\n  function getPurchasedApps(address _user) public view returns(uint[] memory){\r\n    return userDictionary[_user].purchasedApps;\r\n  }\r\n\r\n\r\n  function getDownloadCode(address _user) public view returns(string memory){\r\n    return userDictionary[_user].downloadCode;\r\n  }\r\n\r\n\r\n  function getReviews(uint appid) public view returns(ReviewAndRating [] memory ){\r\n    return apps[appid].reviews;\r\n  }\r\n\r\n}\r\n",
  "sourcePath": "E:\\8semester2022\\parallelProject\\DecentralizedAppStore\\AppStore\\src\\contracts\\contracts\\AppStore.sol",
  "compiler": {
    "name": "solc",
    "version": "0.5.16+commit.9c3226ce.Emscripten.clang"
  },
  "schemaVersion": "3.4.7",
  "updatedAt": "2022-11-14T20:08:38.882Z",
  "networkType": "ethereum",
  "devdoc": {
    "methods": {}
  },
  "userdoc": {
    "methods": {}
  }
}