{
  "contractName": "AppStore",
  "abi": [
    {
      "constant": true,
      "inputs": [
        {
          "internalType": "uint256",
          "name": "",
          "type": "uint256"
        }
      ],
      "name": "apps",
      "outputs": [
        {
          "internalType": "uint256",
          "name": "id",
          "type": "uint256"
        },
        {
          "internalType": "string",
          "name": "appName",
          "type": "string"
        },
        {
          "internalType": "string",
          "name": "category",
          "type": "string"
        },
        {
          "internalType": "string",
          "name": "appDescription",
          "type": "string"
        },
        {
          "internalType": "string",
          "name": "appDeveloper",
          "type": "string"
        },
        {
          "internalType": "address",
          "name": "developerAddress",
          "type": "address"
        },
        {
          "internalType": "string",
          "name": "appLogoHash",
          "type": "string"
        },
        {
          "internalType": "string",
          "name": "price",
          "type": "string"
        },
        {
          "internalType": "string",
          "name": "priceCurrency",
          "type": "string"
        }
      ],
      "payable": false,
      "stateMutability": "view",
      "type": "function"
    },
    {
      "constant": true,
      "inputs": [],
      "name": "appsCount",
      "outputs": [
        {
          "internalType": "uint256",
          "name": "",
          "type": "uint256"
        }
      ],
      "payable": false,
      "stateMutability": "view",
      "type": "function"
    },
    {
      "constant": true,
      "inputs": [
        {
          "internalType": "uint256",
          "name": "",
          "type": "uint256"
        }
      ],
      "name": "appsFilesHashes",
      "outputs": [
        {
          "internalType": "string",
          "name": "",
          "type": "string"
        }
      ],
      "payable": false,
      "stateMutability": "view",
      "type": "function"
    },
    {
      "constant": true,
      "inputs": [
        {
          "internalType": "address",
          "name": "",
          "type": "address"
        }
      ],
      "name": "userDictionary",
      "outputs": [
        {
          "internalType": "bool",
          "name": "isInit",
          "type": "bool"
        },
        {
          "internalType": "string",
          "name": "userName",
          "type": "string"
        },
        {
          "internalType": "string",
          "name": "downloadCode",
          "type": "string"
        }
      ],
      "payable": false,
      "stateMutability": "view",
      "type": "function"
    },
    {
      "constant": false,
      "inputs": [
        {
          "internalType": "string",
          "name": "_appName",
          "type": "string"
        },
        {
          "internalType": "string",
          "name": "_category",
          "type": "string"
        },
        {
          "internalType": "string",
          "name": "_appDescription",
          "type": "string"
        },
        {
          "internalType": "string",
          "name": "_price",
          "type": "string"
        },
        {
          "internalType": "string",
          "name": "_priceCurrency",
          "type": "string"
        },
        {
          "internalType": "string",
          "name": "_appLogoHash",
          "type": "string"
        },
        {
          "internalType": "string",
          "name": "_appFileHash",
          "type": "string"
        }
      ],
      "name": "createApp",
      "outputs": [],
      "payable": false,
      "stateMutability": "nonpayable",
      "type": "function"
    },
    {
      "constant": false,
      "inputs": [
        {
          "internalType": "string",
          "name": "_userName",
          "type": "string"
        },
        {
          "internalType": "string",
          "name": "initDownloadCode",
          "type": "string"
        }
      ],
      "name": "registerUser",
      "outputs": [],
      "payable": false,
      "stateMutability": "nonpayable",
      "type": "function"
    },
    {
      "constant": false,
      "inputs": [
        {
          "internalType": "uint256",
          "name": "_appid",
          "type": "uint256"
        },
        {
          "internalType": "uint256",
          "name": "_rating",
          "type": "uint256"
        },
        {
          "internalType": "string",
          "name": "_review",
          "type": "string"
        },
        {
          "internalType": "bool",
          "name": "isAnonymous",
          "type": "bool"
        }
      ],
      "name": "addReview",
      "outputs": [],
      "payable": false,
      "stateMutability": "nonpayable",
      "type": "function"
    },
    {
      "constant": false,
      "inputs": [
        {
          "internalType": "uint256",
          "name": "_appid",
          "type": "uint256"
        }
      ],
      "name": "purchaseApp",
      "outputs": [],
      "payable": true,
      "stateMutability": "payable",
      "type": "function"
    },
    {
      "constant": true,
      "inputs": [
        {
          "internalType": "uint256",
          "name": "_appid",
          "type": "uint256"
        }
      ],
      "name": "getAppHash",
      "outputs": [
        {
          "internalType": "string",
          "name": "",
          "type": "string"
        }
      ],
      "payable": false,
      "stateMutability": "view",
      "type": "function"
    },
    {
      "constant": true,
      "inputs": [
        {
          "internalType": "address",
          "name": "_user",
          "type": "address"
        }
      ],
      "name": "isNewUser",
      "outputs": [
        {
          "internalType": "bool",
          "name": "",
          "type": "bool"
        }
      ],
      "payable": false,
      "stateMutability": "view",
      "type": "function"
    },
    {
      "constant": true,
      "inputs": [
        {
          "internalType": "address",
          "name": "_user",
          "type": "address"
        }
      ],
      "name": "getUserName",
      "outputs": [
        {
          "internalType": "string",
          "name": "",
          "type": "string"
        }
      ],
      "payable": false,
      "stateMutability": "view",
      "type": "function"
    },
    {
      "constant": true,
      "inputs": [
        {
          "internalType": "address",
          "name": "_user",
          "type": "address"
        }
      ],
      "name": "getUploadedApps",
      "outputs": [
        {
          "internalType": "uint256[]",
          "name": "",
          "type": "uint256[]"
        }
      ],
      "payable": false,
      "stateMutability": "view",
      "type": "function"
    },
    {
      "constant": true,
      "inputs": [
        {
          "internalType": "address",
          "name": "_user",
          "type": "address"
        }
      ],
      "name": "getPurchasedApps",
      "outputs": [
        {
          "internalType": "uint256[]",
          "name": "",
          "type": "uint256[]"
        }
      ],
      "payable": false,
      "stateMutability": "view",
      "type": "function"
    },
    {
      "constant": true,
      "inputs": [
        {
          "internalType": "address",
          "name": "_user",
          "type": "address"
        }
      ],
      "name": "getDownloadCode",
      "outputs": [
        {
          "internalType": "string",
          "name": "",
          "type": "string"
        }
      ],
      "payable": false,
      "stateMutability": "view",
      "type": "function"
    },
    {
      "constant": true,
      "inputs": [
        {
          "internalType": "uint256",
          "name": "appid",
          "type": "uint256"
        }
      ],
      "name": "getReviews",
      "outputs": [
        {
          "components": [
            {
              "internalType": "string",
              "name": "name",
              "type": "string"
            },
            {
              "internalType": "address",
              "name": "evaluaterAddress",
              "type": "address"
            },
            {
              "internalType": "uint256",
              "name": "rating",
              "type": "uint256"
            },
            {
              "internalType": "string",
              "name": "review",
              "type": "string"
            }
          ],
          "internalType": "struct AppStore.ReviewAndRating[]",
          "name": "",
          "type": "tuple[]"
        }
      ],
      "payable": false,
      "stateMutability": "view",
      "type": "function"
    }
  ],
  "bytecode": "0x6080604052600060035534801561001557600080fd5b50612c6a806100256000396000f3fe6080604052600436106100e85760003560e01c80634facffd91161008a5780639d4a2255116100595780639d4a225514610327578063b0d7959914610364578063d84f55ee146103a1578063f1144c6d146103de576100e8565b80634facffd91461023f5780635bb4a8021461027c57806361acc37e146102b95780638bf7f936146102fe576100e8565b80631d2e4afd116100c65780631d2e4afd146101a65780632b5f3879146101cf5780632e5c306b146101fa57806333e067a614610223576100e8565b806307df1c61146100ed57806318356f901461012a5780631b5aca5414610169575b600080fd5b3480156100f957600080fd5b50610114600480360361010f91908101906121e3565b61041b565b6040516101219190612847565b60405180910390f35b34801561013657600080fd5b50610151600480360361014c9190810190612008565b6104cb565b60405161016093929190612802565b60405180910390f35b34801561017557600080fd5b50610190600480360361018b9190810190612008565b610632565b60405161019d91906127c5565b60405180910390f35b3480156101b257600080fd5b506101cd60048036036101c89190810190612031565b6106cc565b005b3480156101db57600080fd5b506101e46108b7565b6040516101f1919061294b565b60405180910390f35b34801561020657600080fd5b50610221600480360361021c919081019061220c565b6108bd565b005b61023d600480360361023891908101906121e3565b610d9d565b005b34801561024b57600080fd5b5061026660048036036102619190810190612008565b610f99565b6040516102739190612869565b60405180910390f35b34801561028857600080fd5b506102a3600480360361029e91908101906121e3565b61107d565b6040516102b09190612869565b60405180910390f35b3480156102c557600080fd5b506102e060048036036102db91908101906121e3565b611132565b6040516102f599989796959493929190612966565b60405180910390f35b34801561030a57600080fd5b506103256004803603610320919081019061209d565b6115c8565b005b34801561033357600080fd5b5061034e600480360361034991908101906121e3565b61199b565b60405161035b91906127a3565b60405180910390f35b34801561037057600080fd5b5061038b60048036036103869190810190612008565b611bb3565b60405161039891906127c5565b60405180910390f35b3480156103ad57600080fd5b506103c860048036036103c39190810190612008565b611c4d565b6040516103d59190612869565b60405180910390f35b3480156103ea57600080fd5b5061040560048036036104009190810190612008565b611d31565b60405161041291906127e7565b60405180910390f35b60016020528060005260406000206000915090508054600181600116156101000203166002900480601f0160208091040260200160405190810160405280929190818152602001828054600181600116156101000203166002900480156104c35780601f10610498576101008083540402835291602001916104c3565b820191906000526020600020905b8154815290600101906020018083116104a657829003601f168201915b505050505081565b60026020528060005260406000206000915090508060000160009054906101000a900460ff1690806001018054600181600116156101000203166002900480601f01602080910402602001604051908101604052809291908181526020018280546001816001161561010002031660029004801561058a5780601f1061055f5761010080835404028352916020019161058a565b820191906000526020600020905b81548152906001019060200180831161056d57829003601f168201915b505050505090806002018054600181600116156101000203166002900480601f0160208091040260200160405190810160405280929190818152602001828054600181600116156101000203166002900480156106285780601f106105fd57610100808354040283529160200191610628565b820191906000526020600020905b81548152906001019060200180831161060b57829003601f168201915b5050505050905083565b6060600260008373ffffffffffffffffffffffffffffffffffffffff1673ffffffffffffffffffffffffffffffffffffffff1681526020019081526020016000206004018054806020026020016040519081016040528092919081815260200182805480156106c057602002820191906000526020600020905b8154815260200190600101908083116106ac575b50505050509050919050565b600082511415610711576040517f08c379a0000000000000000000000000000000000000000000000000000000008152600401610708906128ab565b60405180910390fd5b6000600260003373ffffffffffffffffffffffffffffffffffffffff1673ffffffffffffffffffffffffffffffffffffffff168152602001908152602001600020600101805460018160011615610100020316600290049050146107aa576040517f08c379a00000000000000000000000000000000000000000000000000000000081526004016107a19061288b565b60405180910390fd5b81600260003373ffffffffffffffffffffffffffffffffffffffff1673ffffffffffffffffffffffffffffffffffffffff1681526020019081526020016000206001019080519060200190610800929190611d8b565b506001600260003373ffffffffffffffffffffffffffffffffffffffff1673ffffffffffffffffffffffffffffffffffffffff16815260200190815260200160002060000160006101000a81548160ff02191690831515021790555080600260003373ffffffffffffffffffffffffffffffffffffffff1673ffffffffffffffffffffffffffffffffffffffff16815260200190815260200160002060020190805190602001906108b2929190611d8b565b505050565b60035481565b60008085815260200190815260200160002060050160009054906101000a900473ffffffffffffffffffffffffffffffffffffffff1673ffffffffffffffffffffffffffffffffffffffff163373ffffffffffffffffffffffffffffffffffffffff161415610961576040517f08c379a00000000000000000000000000000000000000000000000000000000081526004016109589061292b565b60405180910390fd5b60008090505b60008086815260200190815260200160002060090180549050811015610a54573373ffffffffffffffffffffffffffffffffffffffff1660008087815260200190815260200160002060090182815481106109be57fe5b906000526020600020906004020160010160009054906101000a900473ffffffffffffffffffffffffffffffffffffffff1673ffffffffffffffffffffffffffffffffffffffff161415610a47576040517f08c379a0000000000000000000000000000000000000000000000000000000008152600401610a3e906128cb565b60405180910390fd5b8080600101915050610967565b50600080905060008090505b600260003373ffffffffffffffffffffffffffffffffffffffff1673ffffffffffffffffffffffffffffffffffffffff16815260200190815260200160002060040180549050811015610b225785600260003373ffffffffffffffffffffffffffffffffffffffff1673ffffffffffffffffffffffffffffffffffffffff1681526020019081526020016000206004018281548110610afb57fe5b90600052602060002001541415610b155760019150610b22565b8080600101915050610a60565b506001151581151514610b6a576040517f08c379a0000000000000000000000000000000000000000000000000000000008152600401610b619061290b565b60405180910390fd5b610b72611e0b565b604051806080016040528084610c6257600260003373ffffffffffffffffffffffffffffffffffffffff1673ffffffffffffffffffffffffffffffffffffffff1681526020019081526020016000206001018054600181600116156101000203166002900480601f016020809104026020016040519081016040528092919081815260200182805460018160011615610100020316600290048015610c585780601f10610c2d57610100808354040283529160200191610c58565b820191906000526020600020905b815481529060010190602001808311610c3b57829003601f168201915b5050505050610c99565b6040518060400160405280600981526020017f416e6f6e796d6f757300000000000000000000000000000000000000000000008152505b81526020013373ffffffffffffffffffffffffffffffffffffffff16815260200186815260200185815250905060008087815260200190815260200160002060090181908060018154018082558091505090600182039060005260206000209060040201600090919290919091506000820151816000019080519060200190610d23929190611e49565b5060208201518160010160006101000a81548173ffffffffffffffffffffffffffffffffffffffff021916908373ffffffffffffffffffffffffffffffffffffffff160217905550604082015181600201556060820151816003019080519060200190610d91929190611e49565b50505050505050505050565b60008090505b600260003373ffffffffffffffffffffffffffffffffffffffff1673ffffffffffffffffffffffffffffffffffffffff16815260200190815260200160002060040180549050811015610e625781600260003373ffffffffffffffffffffffffffffffffffffffff1673ffffffffffffffffffffffffffffffffffffffff1681526020019081526020016000206004018281548110610e3e57fe5b90600052602060002001541415610e555750610f96565b8080600101915050610da3565b5060008090505b600260003373ffffffffffffffffffffffffffffffffffffffff1673ffffffffffffffffffffffffffffffffffffffff16815260200190815260200160002060030180549050811015610f285781600260003373ffffffffffffffffffffffffffffffffffffffff1673ffffffffffffffffffffffffffffffffffffffff1681526020019081526020016000206003018281548110610f0457fe5b90600052602060002001541415610f1b5750610f96565b8080600101915050610e69565b50600260003373ffffffffffffffffffffffffffffffffffffffff1673ffffffffffffffffffffffffffffffffffffffff1681526020019081526020016000206004018190806001815401808255809150509060018203906000526020600020016000909192909190915055505b50565b6060600260008373ffffffffffffffffffffffffffffffffffffffff1673ffffffffffffffffffffffffffffffffffffffff1681526020019081526020016000206002018054600181600116156101000203166002900480601f0160208091040260200160405190810160405280929190818152602001828054600181600116156101000203166002900480156110715780601f1061104657610100808354040283529160200191611071565b820191906000526020600020905b81548152906001019060200180831161105457829003601f168201915b50505050509050919050565b6060600160008381526020019081526020016000208054600181600116156101000203166002900480601f0160208091040260200160405190810160405280929190818152602001828054600181600116156101000203166002900480156111265780601f106110fb57610100808354040283529160200191611126565b820191906000526020600020905b81548152906001019060200180831161110957829003601f168201915b50505050509050919050565b6000602052806000526040600020600091509050806000015490806001018054600181600116156101000203166002900480601f0160208091040260200160405190810160405280929190818152602001828054600181600116156101000203166002900480156111e45780601f106111b9576101008083540402835291602001916111e4565b820191906000526020600020905b8154815290600101906020018083116111c757829003601f168201915b505050505090806002018054600181600116156101000203166002900480601f0160208091040260200160405190810160405280929190818152602001828054600181600116156101000203166002900480156112825780601f1061125757610100808354040283529160200191611282565b820191906000526020600020905b81548152906001019060200180831161126557829003601f168201915b505050505090806003018054600181600116156101000203166002900480601f0160208091040260200160405190810160405280929190818152602001828054600181600116156101000203166002900480156113205780601f106112f557610100808354040283529160200191611320565b820191906000526020600020905b81548152906001019060200180831161130357829003601f168201915b505050505090806004018054600181600116156101000203166002900480601f0160208091040260200160405190810160405280929190818152602001828054600181600116156101000203166002900480156113be5780601f10611393576101008083540402835291602001916113be565b820191906000526020600020905b8154815290600101906020018083116113a157829003601f168201915b5050505050908060050160009054906101000a900473ffffffffffffffffffffffffffffffffffffffff1690806006018054600181600116156101000203166002900480601f0160208091040260200160405190810160405280929190818152602001828054600181600116156101000203166002900480156114825780601f1061145757610100808354040283529160200191611482565b820191906000526020600020905b81548152906001019060200180831161146557829003601f168201915b505050505090806007018054600181600116156101000203166002900480601f0160208091040260200160405190810160405280929190818152602001828054600181600116156101000203166002900480156115205780601f106114f557610100808354040283529160200191611520565b820191906000526020600020905b81548152906001019060200180831161150357829003601f168201915b505050505090806008018054600181600116156101000203166002900480601f0160208091040260200160405190810160405280929190818152602001828054600181600116156101000203166002900480156115be5780601f10611593576101008083540402835291602001916115be565b820191906000526020600020905b8154815290600101906020018083116115a157829003601f168201915b5050505050905089565b60008090505b600260003373ffffffffffffffffffffffffffffffffffffffff1673ffffffffffffffffffffffffffffffffffffffff168152602001908152602001600020600301805490508110156116f2578780519060200120600080600260003373ffffffffffffffffffffffffffffffffffffffff1673ffffffffffffffffffffffffffffffffffffffff168152602001908152602001600020600301848154811061167357fe5b9060005260206000200154815260200190815260200160002060010160405161169c919061278c565b604051809103902014156116e5576040517f08c379a00000000000000000000000000000000000000000000000000000000081526004016116dc906128eb565b60405180910390fd5b80806001019150506115ce565b50600360008154809291906001019190505550600354600080600354815260200190815260200160002060000181905550866000806003548152602001908152602001600020600101908051906020019061174e929190611d8b565b50856000806003548152602001908152602001600020600201908051906020019061177a929190611d8b565b5084600080600354815260200190815260200160002060030190805190602001906117a6929190611d8b565b5081600080600354815260200190815260200160002060060190805190602001906117d2929190611d8b565b50600260003373ffffffffffffffffffffffffffffffffffffffff1673ffffffffffffffffffffffffffffffffffffffff1681526020019081526020016000206001016000806003548152602001908152602001600020600401908054600181600116156101000203166002900461184b929190611ec9565b508360008060035481526020019081526020016000206007019080519060200190611877929190611d8b565b5082600080600354815260200190815260200160002060080190805190602001906118a3929190611d8b565b5033600080600354815260200190815260200160002060050160006101000a81548173ffffffffffffffffffffffffffffffffffffffff021916908373ffffffffffffffffffffffffffffffffffffffff160217905550806001600060035481526020019081526020016000209080519060200190611923929190611d8b565b50600260003373ffffffffffffffffffffffffffffffffffffffff1673ffffffffffffffffffffffffffffffffffffffff168152602001908152602001600020600301600354908060018154018082558091505090600182039060005260206000200160009091929091909150555050505050505050565b6060600080838152602001908152602001600020600901805480602002602001604051908101604052809291908181526020016000905b82821015611ba85783829060005260206000209060040201604051806080016040529081600082018054600181600116156101000203166002900480601f016020809104026020016040519081016040528092919081815260200182805460018160011615610100020316600290048015611a8e5780601f10611a6357610100808354040283529160200191611a8e565b820191906000526020600020905b815481529060010190602001808311611a7157829003601f168201915b505050505081526020016001820160009054906101000a900473ffffffffffffffffffffffffffffffffffffffff1673ffffffffffffffffffffffffffffffffffffffff1673ffffffffffffffffffffffffffffffffffffffff16815260200160028201548152602001600382018054600181600116156101000203166002900480601f016020809104026020016040519081016040528092919081815260200182805460018160011615610100020316600290048015611b905780601f10611b6557610100808354040283529160200191611b90565b820191906000526020600020905b815481529060010190602001808311611b7357829003601f168201915b505050505081525050815260200190600101906119d2565b505050509050919050565b6060600260008373ffffffffffffffffffffffffffffffffffffffff1673ffffffffffffffffffffffffffffffffffffffff168152602001908152602001600020600301805480602002602001604051908101604052809291908181526020018280548015611c4157602002820191906000526020600020905b815481526020019060010190808311611c2d575b50505050509050919050565b6060600260008373ffffffffffffffffffffffffffffffffffffffff1673ffffffffffffffffffffffffffffffffffffffff1681526020019081526020016000206001018054600181600116156101000203166002900480601f016020809104026020016040519081016040528092919081815260200182805460018160011615610100020316600290048015611d255780601f10611cfa57610100808354040283529160200191611d25565b820191906000526020600020905b815481529060010190602001808311611d0857829003601f168201915b50505050509050919050565b6000600260008373ffffffffffffffffffffffffffffffffffffffff1673ffffffffffffffffffffffffffffffffffffffff16815260200190815260200160002060000160009054906101000a900460ff16159050919050565b828054600181600116156101000203166002900490600052602060002090601f016020900481019282601f10611dcc57805160ff1916838001178555611dfa565b82800160010185558215611dfa579182015b82811115611df9578251825591602001919060010190611dde565b5b509050611e079190611f50565b5090565b604051806080016040528060608152602001600073ffffffffffffffffffffffffffffffffffffffff16815260200160008152602001606081525090565b828054600181600116156101000203166002900490600052602060002090601f016020900481019282601f10611e8a57805160ff1916838001178555611eb8565b82800160010185558215611eb8579182015b82811115611eb7578251825591602001919060010190611e9c565b5b509050611ec59190611f50565b5090565b828054600181600116156101000203166002900490600052602060002090601f016020900481019282601f10611f025780548555611f3f565b82800160010185558215611f3f57600052602060002091601f016020900482015b82811115611f3e578254825591600101919060010190611f23565b5b509050611f4c9190611f50565b5090565b611f7291905b80821115611f6e576000816000905550600101611f56565b5090565b90565b600081359050611f8481612be2565b92915050565b600081359050611f9981612bf9565b92915050565b600082601f830112611fb057600080fd5b8135611fc3611fbe82612a51565b612a24565b91508082526020830160208301858383011115611fdf57600080fd5b611fea838284612b8f565b50505092915050565b60008135905061200281612c10565b92915050565b60006020828403121561201a57600080fd5b600061202884828501611f75565b91505092915050565b6000806040838503121561204457600080fd5b600083013567ffffffffffffffff81111561205e57600080fd5b61206a85828601611f9f565b925050602083013567ffffffffffffffff81111561208757600080fd5b61209385828601611f9f565b9150509250929050565b600080600080600080600060e0888a0312156120b857600080fd5b600088013567ffffffffffffffff8111156120d257600080fd5b6120de8a828b01611f9f565b975050602088013567ffffffffffffffff8111156120fb57600080fd5b6121078a828b01611f9f565b965050604088013567ffffffffffffffff81111561212457600080fd5b6121308a828b01611f9f565b955050606088013567ffffffffffffffff81111561214d57600080fd5b6121598a828b01611f9f565b945050608088013567ffffffffffffffff81111561217657600080fd5b6121828a828b01611f9f565b93505060a088013567ffffffffffffffff81111561219f57600080fd5b6121ab8a828b01611f9f565b92505060c088013567ffffffffffffffff8111156121c857600080fd5b6121d48a828b01611f9f565b91505092959891949750929550565b6000602082840312156121f557600080fd5b600061220384828501611ff3565b91505092915050565b6000806000806080858703121561222257600080fd5b600061223087828801611ff3565b945050602061224187828801611ff3565b935050604085013567ffffffffffffffff81111561225e57600080fd5b61226a87828801611f9f565b925050606061227b87828801611f8a565b91505092959194509250565b60006122938383612704565b905092915050565b60006122a7838361276e565b60208301905092915050565b6122bc81612b47565b82525050565b6122cb81612b47565b82525050565b60006122dc82612ab2565b6122e68185612af8565b9350836020820285016122f885612a7d565b8060005b8581101561233457848403895281516123158582612287565b945061232083612ade565b925060208a019950506001810190506122fc565b50829750879550505050505092915050565b600061235182612abd565b61235b8185612b09565b935061236683612a8d565b8060005b8381101561239757815161237e888261229b565b975061238983612aeb565b92505060018101905061236a565b5085935050505092915050565b6123ad81612b59565b82525050565b6000815460018116600081146123d057600181146123f557612439565b607f60028304166123e18187612b1a565b955060ff1983168652808601935050612439565b600282046124038187612b1a565b955061240e85612a9d565b60005b8281101561243057815481890152600182019150602081019050612411565b82880195505050505b505092915050565b600061244c82612ad3565b6124568185612b36565b9350612466818560208601612b9e565b61246f81612bd1565b840191505092915050565b600061248582612ac8565b61248f8185612b25565b935061249f818560208601612b9e565b6124a881612bd1565b840191505092915050565b60006124be82612ac8565b6124c88185612b36565b93506124d8818560208601612b9e565b6124e181612bd1565b840191505092915050565b60006124f9602383612b36565b91507f74686973206163636f756e7420697320616c726561647920726567697374657260008301527f65642100000000000000000000000000000000000000000000000000000000006020830152604082019050919050565b600061255f601883612b36565b91507f757365726e616d652063616e6e6f7420626520656d70747900000000000000006000830152602082019050919050565b600061259f602283612b36565b91507f796f752063616e20726576696577207468697320617070206f6e6c79206f6e6360008301527f65210000000000000000000000000000000000000000000000000000000000006020830152604082019050919050565b6000612605602c83612b36565b91507f796f7520616c7265616479207075626c697368656420616e206170702077697460008301527f682074686973206e616d652100000000000000000000000000000000000000006020830152604082019050919050565b600061266b602c83612b36565b91507f796f752063616e6e6f742072657669657720616e2061707020796f752064696460008301527f6e742070757263686173652100000000000000000000000000000000000000006020830152604082019050919050565b60006126d1601b83612b36565b91507f796f752063616e6e6f742072657669657720796f7572206170702100000000006000830152602082019050919050565b60006080830160008301518482036000860152612721828261247a565b915050602083015161273660208601826122b3565b506040830151612749604086018261276e565b5060608301518482036060860152612761828261247a565b9150508091505092915050565b61277781612b85565b82525050565b61278681612b85565b82525050565b600061279882846123b3565b915081905092915050565b600060208201905081810360008301526127bd81846122d1565b905092915050565b600060208201905081810360008301526127df8184612346565b905092915050565b60006020820190506127fc60008301846123a4565b92915050565b600060608201905061281760008301866123a4565b818103602083015261282981856124b3565b9050818103604083015261283d81846124b3565b9050949350505050565b6000602082019050818103600083015261286181846124b3565b905092915050565b600060208201905081810360008301526128838184612441565b905092915050565b600060208201905081810360008301526128a4816124ec565b9050919050565b600060208201905081810360008301526128c481612552565b9050919050565b600060208201905081810360008301526128e481612592565b9050919050565b60006020820190508181036000830152612904816125f8565b9050919050565b600060208201905081810360008301526129248161265e565b9050919050565b60006020820190508181036000830152612944816126c4565b9050919050565b6000602082019050612960600083018461277d565b92915050565b60006101208201905061297c600083018c61277d565b818103602083015261298e818b6124b3565b905081810360408301526129a2818a6124b3565b905081810360608301526129b681896124b3565b905081810360808301526129ca81886124b3565b90506129d960a08301876122c2565b81810360c08301526129eb81866124b3565b905081810360e08301526129ff81856124b3565b9050818103610100830152612a1481846124b3565b90509a9950505050505050505050565b6000604051905081810181811067ffffffffffffffff82111715612a4757600080fd5b8060405250919050565b600067ffffffffffffffff821115612a6857600080fd5b601f19601f8301169050602081019050919050565b6000819050602082019050919050565b6000819050602082019050919050565b60008190508160005260206000209050919050565b600081519050919050565b600081519050919050565b600081519050919050565b600081519050919050565b6000602082019050919050565b6000602082019050919050565b600082825260208201905092915050565b600082825260208201905092915050565b600081905092915050565b600082825260208201905092915050565b600082825260208201905092915050565b6000612b5282612b65565b9050919050565b60008115159050919050565b600073ffffffffffffffffffffffffffffffffffffffff82169050919050565b6000819050919050565b82818337600083830152505050565b60005b83811015612bbc578082015181840152602081019050612ba1565b83811115612bcb576000848401525b50505050565b6000601f19601f8301169050919050565b612beb81612b47565b8114612bf657600080fd5b50565b612c0281612b59565b8114612c0d57600080fd5b50565b612c1981612b85565b8114612c2457600080fd5b5056fea365627a7a72315820652b62122d90bfe843e642e85c19923b49d2237224baa3b91a88534964a7f8c76c6578706572696d656e74616cf564736f6c63430005100040",
  "source": "// SPDX-License-Identifier: MIT\r\npragma solidity >=0.4.22 <0.9.0;\r\npragma experimental ABIEncoderV2;\r\n\r\ncontract AppStore {\r\n\r\n  mapping(uint => AppData) public apps;\r\n  mapping(uint  => string) public appsFilesHashes;\r\n  mapping(address  => UserData) public userDictionary;\r\n  uint public appsCount = 0; \r\n\r\n  struct UserData {\r\n    bool isInit;\r\n    string userName;\r\n    string downloadCode;\r\n    uint[] uploadedApps;\r\n    uint[] purchasedApps;\r\n  }\r\n\r\n  struct AppData {\r\n    uint id;\r\n    string appName;\r\n    string category;\r\n    string appDescription;\r\n    string appDeveloper;\r\n    address developerAddress;\r\n    string appLogoHash;\r\n    string price;\r\n    string priceCurrency;\r\n    ReviewAndRating [] reviews;\r\n  }\r\n\r\n  struct ReviewAndRating{\r\n    string name;\r\n    address evaluaterAddress;\r\n    uint rating;\r\n    string review;\r\n  }\r\n\r\n  function createApp(string memory _appName,string memory _category,string memory _appDescription,string memory _price,string memory _priceCurrency, string memory _appLogoHash,string memory _appFileHash) public {\r\n    for (uint i = 0; i < userDictionary[msg.sender].uploadedApps.length; i++) {\r\n      require(keccak256(bytes(apps[userDictionary[msg.sender].uploadedApps[i]].appName))!=keccak256(bytes(_appName)),'you already published an app with this name!');\r\n    }\r\n    appsCount++;\r\n    apps[appsCount].id=appsCount;\r\n    apps[appsCount].appName=_appName;\r\n    apps[appsCount].category=_category;\r\n    apps[appsCount].appDescription=_appDescription;\r\n    apps[appsCount].appLogoHash=_appLogoHash;\r\n    apps[appsCount].appDeveloper=userDictionary[msg.sender].userName;\r\n    apps[appsCount].price=_price;\r\n    apps[appsCount].priceCurrency=_priceCurrency;\r\n    apps[appsCount].developerAddress=msg.sender;\r\n    appsFilesHashes[appsCount]=_appFileHash;\r\n    userDictionary[msg.sender].uploadedApps.push(appsCount);\r\n  }\r\n\r\n\r\n  function registerUser(string memory _userName, string memory initDownloadCode)public{\r\n    require(bytes(_userName).length!=0,\"username cannot be empty\");\r\n    require(bytes(userDictionary[msg.sender].userName).length==0,'this account is already registered!');\r\n    userDictionary[msg.sender].userName=_userName;\r\n    userDictionary[msg.sender].isInit=true;\r\n    userDictionary[msg.sender].downloadCode=initDownloadCode;\r\n  }\r\n\r\n\r\n  function addReview(uint _appid,uint _rating,string memory _review,bool isAnonymous) public {\r\n    require(msg.sender!=apps[_appid].developerAddress,'you cannot review your app!');\r\n    for (uint i = 0; i < apps[_appid].reviews.length; i++) {\r\n        require(apps[_appid].reviews[i].evaluaterAddress!=msg.sender,'you can review this app only once!');\r\n    }\r\n    bool appPurchased=false;\r\n    for (uint i = 0; i < userDictionary[msg.sender].purchasedApps.length; i++) {\r\n      if(userDictionary[msg.sender].purchasedApps[i]==_appid){\r\n        appPurchased=true;\r\n        break;\r\n      }\r\n    }\r\n    require(appPurchased==true,'you cannot review an app you didnt purchase!');\r\n    ReviewAndRating memory NewReview=ReviewAndRating(isAnonymous?'Anonymous':userDictionary[msg.sender].userName, msg.sender, _rating, _review);\r\n    apps[_appid].reviews.push(NewReview);\r\n  }\r\n\r\n\r\n  function purchaseApp(uint _appid)public payable{\r\n      // if(keccak256(bytes(\"ETH\"))==keccak256(bytes(apps[_appid].priceCurrency))){\r\n      //   require(msg.value>=apps[_appid].price,\"paid money is not enough\");\r\n      // }else{\r\n      //   require((msg.value/conversionRate)+1>=apps[_appid].price,\"paid money is not enough\");\r\n      // }\r\n    for (uint i = 0; i < userDictionary[msg.sender].purchasedApps.length; i++) {\r\n        if(userDictionary[msg.sender].purchasedApps[i]==_appid){\r\n          return;\r\n        }\r\n    }\r\n    for (uint i = 0; i < userDictionary[msg.sender].uploadedApps.length; i++) {\r\n        if(userDictionary[msg.sender].uploadedApps[i]==_appid){\r\n          return;\r\n        }\r\n    }\r\n      userDictionary[msg.sender].purchasedApps.push(_appid);\r\n    //  apps[_appid].developerAddress.transfer(msg.value);\r\n  }\r\n\r\n\r\n  function getAppHash(uint _appid)public view returns(string memory){\r\n    return appsFilesHashes[_appid];\r\n  } \r\n\r\n\r\n  function isNewUser(address _user)public view returns(bool){\r\n    return !userDictionary[_user].isInit;\r\n  } \r\n\r\n\r\n  function getUserName(address _user)public view returns(string memory){\r\n    return userDictionary[_user].userName;\r\n  }\r\n\r\n\r\n  function getUploadedApps(address _user) public view returns(uint[] memory){\r\n    return userDictionary[_user].uploadedApps;\r\n  }\r\n\r\n\r\n  function getPurchasedApps(address _user) public view returns(uint[] memory){\r\n    return userDictionary[_user].purchasedApps;\r\n  }\r\n\r\n\r\n  function getDownloadCode(address _user) public view returns(string memory){\r\n    return userDictionary[_user].downloadCode;\r\n  }\r\n\r\n\r\n  function getReviews(uint appid) public view returns(ReviewAndRating [] memory ){\r\n    return apps[appid].reviews;\r\n  }\r\n\r\n}\r\n",
  "sourcePath": "E:\\8semester2022\\parallelProject\\DecentralizedAppStore\\AppStore\\src\\contracts\\contracts\\AppStore.sol",
  "compiler": {
    "name": "solc",
    "version": "0.5.16+commit.9c3226ce.Emscripten.clang"
  },
  "schemaVersion": "3.4.7",
  "updatedAt": "2022-11-14T21:08:55.529Z",
  "networkType": "ethereum",
  "devdoc": {
    "methods": {}
  },
  "userdoc": {
    "methods": {}
  }
}